{
  "contractName": "CryptoMultisender",
  "abi": [
    {
      "inputs": [],
      "stateMutability": "nonpayable",
      "type": "constructor"
    },
    {
      "anonymous": false,
      "inputs": [
        {
          "indexed": true,
          "internalType": "address",
          "name": "affiliate",
          "type": "address"
        },
        {
          "indexed": true,
          "internalType": "string",
          "name": "affiliateCode",
          "type": "string"
        }
      ],
      "name": "AffiliatePartnershipRevoked",
      "type": "event"
    },
    {
      "anonymous": false,
      "inputs": [
        {
          "indexed": true,
          "internalType": "address",
          "name": "to",
          "type": "address"
        },
        {
          "indexed": false,
          "internalType": "uint256",
          "name": "value",
          "type": "uint256"
        }
      ],
      "name": "CommissionPaid",
      "type": "event"
    },
    {
      "anonymous": false,
      "inputs": [
        {
          "indexed": false,
          "internalType": "address",
          "name": "token",
          "type": "address"
        },
        {
          "indexed": false,
          "internalType": "address",
          "name": "sentTo",
          "type": "address"
        },
        {
          "indexed": false,
          "internalType": "uint256",
          "name": "value",
          "type": "uint256"
        }
      ],
      "name": "ERC20TokensWithdrawn",
      "type": "event"
    },
    {
      "anonymous": false,
      "inputs": [
        {
          "indexed": true,
          "internalType": "address",
          "name": "by",
          "type": "address"
        },
        {
          "indexed": false,
          "internalType": "uint256",
          "name": "totalTransfers",
          "type": "uint256"
        },
        {
          "indexed": false,
          "internalType": "uint256",
          "name": "ethValue",
          "type": "uint256"
        }
      ],
      "name": "EthAirdrop",
      "type": "event"
    },
    {
      "anonymous": false,
      "inputs": [
        {
          "indexed": true,
          "internalType": "address",
          "name": "newAffiliate",
          "type": "address"
        },
        {
          "indexed": true,
          "internalType": "string",
          "name": "affiliateCode",
          "type": "string"
        }
      ],
      "name": "NewAffiliatePartnership",
      "type": "event"
    },
    {
      "anonymous": false,
      "inputs": [
        {
          "indexed": true,
          "internalType": "address",
          "name": "premiumMember",
          "type": "address"
        }
      ],
      "name": "NewPremiumMembership",
      "type": "event"
    },
    {
      "anonymous": false,
      "inputs": [
        {
          "indexed": true,
          "internalType": "address",
          "name": "previousOwner",
          "type": "address"
        },
        {
          "indexed": true,
          "internalType": "address",
          "name": "newOwner",
          "type": "address"
        }
      ],
      "name": "OwnershipTransferred",
      "type": "event"
    },
    {
      "anonymous": false,
      "inputs": [
        {
          "indexed": false,
          "internalType": "uint256",
          "name": "newFee",
          "type": "uint256"
        }
      ],
      "name": "PremiumMemberFeeUpdated",
      "type": "event"
    },
    {
      "anonymous": false,
      "inputs": [
        {
          "indexed": false,
          "internalType": "uint256",
          "name": "from",
          "type": "uint256"
        },
        {
          "indexed": false,
          "internalType": "uint256",
          "name": "to",
          "type": "uint256"
        }
      ],
      "name": "RateChanged",
      "type": "event"
    },
    {
      "anonymous": false,
      "inputs": [
        {
          "indexed": true,
          "internalType": "address",
          "name": "to",
          "type": "address"
        },
        {
          "indexed": false,
          "internalType": "uint256",
          "name": "totalWei",
          "type": "uint256"
        }
      ],
      "name": "RefundIssued",
      "type": "event"
    },
    {
      "anonymous": false,
      "inputs": [
        {
          "indexed": true,
          "internalType": "address",
          "name": "by",
          "type": "address"
        },
        {
          "indexed": true,
          "internalType": "address",
          "name": "tokenAddress",
          "type": "address"
        },
        {
          "indexed": false,
          "internalType": "uint256",
          "name": "totalTransfers",
          "type": "uint256"
        }
      ],
      "name": "TokenAirdrop",
      "type": "event"
    },
    {
      "stateMutability": "payable",
      "type": "fallback"
    },
    {
      "inputs": [
        {
          "internalType": "string",
          "name": "",
          "type": "string"
        }
      ],
      "name": "affiliateCodeExists",
      "outputs": [
        {
          "internalType": "bool",
          "name": "",
          "type": "bool"
        }
      ],
      "stateMutability": "view",
      "type": "function"
    },
    {
      "inputs": [
        {
          "internalType": "address",
          "name": "",
          "type": "address"
        }
      ],
      "name": "affiliateCodeOfAddr",
      "outputs": [
        {
          "internalType": "string",
          "name": "",
          "type": "string"
        }
      ],
      "stateMutability": "view",
      "type": "function"
    },
    {
      "inputs": [
        {
          "internalType": "string",
          "name": "",
          "type": "string"
        }
      ],
      "name": "affiliateCodeToAddr",
      "outputs": [
        {
          "internalType": "address",
          "name": "",
          "type": "address"
        }
      ],
      "stateMutability": "view",
      "type": "function"
    },
    {
      "inputs": [],
      "name": "dropUnitPrice",
      "outputs": [
        {
          "internalType": "uint256",
          "name": "",
          "type": "uint256"
        }
      ],
      "stateMutability": "view",
      "type": "function"
    },
    {
      "inputs": [
        {
          "internalType": "address",
          "name": "",
          "type": "address"
        }
      ],
      "name": "isAffiliate",
      "outputs": [
        {
          "internalType": "bool",
          "name": "",
          "type": "bool"
        }
      ],
      "stateMutability": "view",
      "type": "function"
    },
    {
      "inputs": [
        {
          "internalType": "address",
          "name": "",
          "type": "address"
        }
      ],
      "name": "isAffiliatedWith",
      "outputs": [
        {
          "internalType": "string",
          "name": "",
          "type": "string"
        }
      ],
      "stateMutability": "view",
      "type": "function"
    },
    {
      "inputs": [
        {
          "internalType": "address",
          "name": "",
          "type": "address"
        }
      ],
      "name": "isPremiumMember",
      "outputs": [
        {
          "internalType": "bool",
          "name": "",
          "type": "bool"
        }
      ],
      "stateMutability": "view",
      "type": "function"
    },
    {
      "inputs": [],
      "name": "owner",
      "outputs": [
        {
          "internalType": "address",
          "name": "",
          "type": "address"
        }
      ],
      "stateMutability": "view",
      "type": "function"
    },
    {
      "inputs": [],
      "name": "premiumMemberFee",
      "outputs": [
        {
          "internalType": "uint256",
          "name": "",
          "type": "uint256"
        }
      ],
      "stateMutability": "view",
      "type": "function"
    },
    {
      "inputs": [],
      "name": "rate",
      "outputs": [
        {
          "internalType": "uint256",
          "name": "",
          "type": "uint256"
        }
      ],
      "stateMutability": "view",
      "type": "function"
    },
    {
      "inputs": [],
      "name": "renounceOwnership",
      "outputs": [],
      "stateMutability": "nonpayable",
      "type": "function"
    },
    {
      "inputs": [
        {
          "internalType": "address",
          "name": "",
          "type": "address"
        }
      ],
      "name": "tokenTrialDrops",
      "outputs": [
        {
          "internalType": "uint256",
          "name": "",
          "type": "uint256"
        }
      ],
      "stateMutability": "view",
      "type": "function"
    },
    {
      "inputs": [
        {
          "internalType": "address",
          "name": "newOwner",
          "type": "address"
        }
      ],
      "name": "transferOwnership",
      "outputs": [],
      "stateMutability": "nonpayable",
      "type": "function"
    },
    {
      "stateMutability": "payable",
      "type": "receive"
    },
    {
      "inputs": [
        {
          "internalType": "uint256",
          "name": "_fee",
          "type": "uint256"
        }
      ],
      "name": "setPremiumMemberFee",
      "outputs": [
        {
          "internalType": "bool",
          "name": "",
          "type": "bool"
        }
      ],
      "stateMutability": "nonpayable",
      "type": "function"
    },
    {
      "inputs": [
        {
          "internalType": "address",
          "name": "_addr",
          "type": "address"
        }
      ],
      "name": "grantPremiumMembership",
      "outputs": [
        {
          "internalType": "bool",
          "name": "",
          "type": "bool"
        }
      ],
      "stateMutability": "nonpayable",
      "type": "function"
    },
    {
      "inputs": [
        {
          "internalType": "string",
          "name": "_afCode",
          "type": "string"
        }
      ],
      "name": "becomePremiumMember",
      "outputs": [
        {
          "internalType": "bool",
          "name": "",
          "type": "bool"
        }
      ],
      "stateMutability": "payable",
      "type": "function"
    },
    {
      "inputs": [
        {
          "internalType": "address",
          "name": "_addr",
          "type": "address"
        },
        {
          "internalType": "string",
          "name": "_code",
          "type": "string"
        }
      ],
      "name": "addAffiliate",
      "outputs": [
        {
          "internalType": "bool",
          "name": "",
          "type": "bool"
        }
      ],
      "stateMutability": "nonpayable",
      "type": "function"
    },
    {
      "inputs": [
        {
          "internalType": "address",
          "name": "_addr",
          "type": "address"
        }
      ],
      "name": "removeAffiliate",
      "outputs": [
        {
          "internalType": "bool",
          "name": "",
          "type": "bool"
        }
      ],
      "stateMutability": "nonpayable",
      "type": "function"
    },
    {
      "inputs": [
        {
          "internalType": "address",
          "name": "_addressOfToken",
          "type": "address"
        }
      ],
      "name": "tokenHasFreeTrial",
      "outputs": [
        {
          "internalType": "bool",
          "name": "",
          "type": "bool"
        }
      ],
      "stateMutability": "view",
      "type": "function"
    },
    {
      "inputs": [
        {
          "internalType": "address",
          "name": "_addressOfToken",
          "type": "address"
        }
      ],
      "name": "getRemainingTrialDrops",
      "outputs": [
        {
          "internalType": "uint256",
          "name": "",
          "type": "uint256"
        }
      ],
      "stateMutability": "view",
      "type": "function"
    },
    {
      "inputs": [
        {
          "internalType": "uint256",
          "name": "_newRate",
          "type": "uint256"
        }
      ],
      "name": "setRate",
      "outputs": [
        {
          "internalType": "bool",
          "name": "",
          "type": "bool"
        }
      ],
      "stateMutability": "nonpayable",
      "type": "function"
    },
    {
      "inputs": [
        {
          "internalType": "address",
          "name": "_addr",
          "type": "address"
        },
        {
          "internalType": "address",
          "name": "_addressOfToken",
          "type": "address"
        }
      ],
      "name": "getTokenAllowance",
      "outputs": [
        {
          "internalType": "uint256",
          "name": "",
          "type": "uint256"
        }
      ],
      "stateMutability": "view",
      "type": "function"
    },
    {
      "inputs": [
        {
          "internalType": "address[]",
          "name": "_recipients",
          "type": "address[]"
        },
        {
          "internalType": "uint256",
          "name": "_value",
          "type": "uint256"
        },
        {
          "internalType": "string",
          "name": "_afCode",
          "type": "string"
        }
      ],
      "name": "singleValueEthAirrop",
      "outputs": [
        {
          "internalType": "bool",
          "name": "",
          "type": "bool"
        }
      ],
      "stateMutability": "payable",
      "type": "function"
    },
    {
      "inputs": [
        {
          "internalType": "address[]",
          "name": "_recipients",
          "type": "address[]"
        },
        {
          "internalType": "uint256[]",
          "name": "_values",
          "type": "uint256[]"
        },
        {
          "internalType": "string",
          "name": "_afCode",
          "type": "string"
        }
      ],
      "name": "multiValueEthAirdrop",
      "outputs": [
        {
          "internalType": "bool",
          "name": "",
          "type": "bool"
        }
      ],
      "stateMutability": "payable",
      "type": "function"
    },
    {
      "inputs": [
        {
          "internalType": "address",
          "name": "_addressOfToken",
          "type": "address"
        },
        {
          "internalType": "address[]",
          "name": "_recipients",
          "type": "address[]"
        },
        {
          "internalType": "uint256",
          "name": "_value",
          "type": "uint256"
        },
        {
          "internalType": "string",
          "name": "_afCode",
          "type": "string"
        }
      ],
      "name": "singleValueTokenAirdrop",
      "outputs": [
        {
          "internalType": "bool",
          "name": "",
          "type": "bool"
        }
      ],
      "stateMutability": "payable",
      "type": "function"
    },
    {
      "inputs": [
        {
          "internalType": "address",
          "name": "_addressOfToken",
          "type": "address"
        },
        {
          "internalType": "address[]",
          "name": "_recipients",
          "type": "address[]"
        },
        {
          "internalType": "uint256[]",
          "name": "_values",
          "type": "uint256[]"
        },
        {
          "internalType": "string",
          "name": "_afCode",
          "type": "string"
        }
      ],
      "name": "multiValueTokenAirdrop",
      "outputs": [
        {
          "internalType": "bool",
          "name": "",
          "type": "bool"
        }
      ],
      "stateMutability": "payable",
      "type": "function"
    },
    {
      "inputs": [
        {
          "internalType": "address",
          "name": "_addressOfToken",
          "type": "address"
        },
        {
          "internalType": "address",
          "name": "_recipient",
          "type": "address"
        },
        {
          "internalType": "uint256",
          "name": "_value",
          "type": "uint256"
        }
      ],
      "name": "withdrawERC20Tokens",
      "outputs": [
        {
          "internalType": "bool",
          "name": "",
          "type": "bool"
        }
      ],
      "stateMutability": "nonpayable",
      "type": "function"
    }
  ],
  "bytecode": "0x60806040523480156200001157600080fd5b5062000032620000266200005d60201b60201c565b6200006560201b60201c565b612710600981905550655af3107a4000600a819055506703782dace9d9000060088190555062000129565b600033905090565b60008060009054906101000a900473ffffffffffffffffffffffffffffffffffffffff169050816000806101000a81548173ffffffffffffffffffffffffffffffffffffffff021916908373ffffffffffffffffffffffffffffffffffffffff1602179055508173ffffffffffffffffffffffffffffffffffffffff168173ffffffffffffffffffffffffffffffffffffffff167f8be0079c531659141344cd1fd0a4f28419497f9722a3daafe3b4186f6b6457e060405160405180910390a35050565b6149ed80620001396000396000f3fe6080604052600436106101a05760003560e01c80638da5cb5b116100ec578063e8a05d4c1161008a578063f53289ca11610064578063f53289ca14610681578063f8fa4d17146106b1578063f9727e1d146106e1578063fec5c0c61461071e576101aa565b8063e8a05d4c146105de578063ea7ee0101461061b578063f2fde38b14610658576101aa565b8063adc76126116100c6578063adc76126146104f7578063b186768514610534578063bcdd1e1314610571578063cfab2bb3146105ae576101aa565b80638da5cb5b1461047657806390d419d1146104a1578063a39a2b76146104cc576101aa565b80634a4a2feb11610159578063590925e211610133578063590925e2146103b557806362920c85146103f25780636cca7d3c14610422578063715018a61461045f576101aa565b80634a4a2feb146102fe5780634fa851861461033b578063503ad00e14610378576101aa565b806318f20763146101af57806323a0fb02146101df5780632c4e722e1461021c57806334fcf437146102475780633b9ff843146102845780633d2375f9146102c1576101aa565b366101aa57600080fd5b600080fd5b6101c960048036038101906101c49190613afd565b61075b565b6040516101d69190613ba3565b60405180910390f35b3480156101eb57600080fd5b5061020660048036038101906102019190613bbe565b6109e9565b6040516102139190613ba3565b60405180910390f35b34801561022857600080fd5b50610231610a35565b60405161023e9190613bfa565b60405180910390f35b34801561025357600080fd5b5061026e60048036038101906102699190613c15565b610a3b565b60405161027b9190613ba3565b60405180910390f35b34801561029057600080fd5b506102ab60048036038101906102a69190613bbe565b610b48565b6040516102b89190613ba3565b60405180910390f35b3480156102cd57600080fd5b506102e860048036038101906102e39190613c42565b610e39565b6040516102f59190613ba3565b60405180910390f35b34801561030a57600080fd5b5061032560048036038101906103209190613bbe565b610e6f565b6040516103329190613d13565b60405180910390f35b34801561034757600080fd5b50610362600480360381019061035d9190613bbe565b610f0f565b60405161036f9190613ba3565b60405180910390f35b34801561038457600080fd5b5061039f600480360381019061039a9190613d35565b610f2f565b6040516103ac9190613ba3565b60405180910390f35b3480156103c157600080fd5b506103dc60048036038101906103d79190613c42565b61124c565b6040516103e99190613da0565b60405180910390f35b61040c60048036038101906104079190613e7e565b611295565b6040516104199190613ba3565b60405180910390f35b34801561042e57600080fd5b5061044960048036038101906104449190613bbe565b611592565b6040516104569190613bfa565b60405180910390f35b34801561046b57600080fd5b506104746115aa565b005b34801561048257600080fd5b5061048b611632565b6040516104989190613da0565b60405180910390f35b3480156104ad57600080fd5b506104b661165b565b6040516104c39190613bfa565b60405180910390f35b3480156104d857600080fd5b506104e1611661565b6040516104ee9190613bfa565b60405180910390f35b34801561050357600080fd5b5061051e60048036038101906105199190613bbe565b611667565b60405161052b9190613bfa565b60405180910390f35b34801561054057600080fd5b5061055b60048036038101906105569190613bbe565b6116e1565b6040516105689190613d13565b60405180910390f35b34801561057d57600080fd5b5061059860048036038101906105939190613f25565b611781565b6040516105a59190613ba3565b60405180910390f35b6105c860048036038101906105c39190613c42565b611948565b6040516105d59190613ba3565b60405180910390f35b3480156105ea57600080fd5b5061060560048036038101906106009190613bbe565b611df0565b6040516106129190613ba3565b60405180910390f35b34801561062757600080fd5b50610642600480360381019061063d9190613f78565b611e10565b60405161064f9190613bfa565b60405180910390f35b34801561066457600080fd5b5061067f600480360381019061067a9190613bbe565b611e9b565b005b61069b60048036038101906106969190613fb8565b611f92565b6040516106a89190613ba3565b60405180910390f35b6106cb60048036038101906106c69190614057565b6122f2565b6040516106d89190613ba3565b60405180910390f35b3480156106ed57600080fd5b5061070860048036038101906107039190613c15565b6126d8565b6040516107159190613ba3565b60405180910390f35b34801561072a57600080fd5b5061074560048036038101906107409190613bbe565b6127b8565b6040516107529190613ba3565b60405180910390f35b600080610774600a54865161296790919063ffffffff16565b9050600061079e8261079088518861296790919063ffffffff16565b61297d90919063ffffffff16565b905080341015806107f85750600260003373ffffffffffffffffffffffffffffffffffffffff1673ffffffffffffffffffffffffffffffffffffffff16815260200190815260200160002060009054906101000a900460ff165b610837576040517f08c379a000000000000000000000000000000000000000000000000000000000815260040161082e90614184565b60405180910390fd5b61084084612993565b9350600260003373ffffffffffffffffffffffffffffffffffffffff1673ffffffffffffffffffffffffffffffffffffffff16815260200190815260200160002060009054906101000a900460ff1661089f5761089e865185613126565b5b6108a8816133f6565b60005b865181101561097757600073ffffffffffffffffffffffffffffffffffffffff168782815181106108df576108de6141a4565b5b602002602001015173ffffffffffffffffffffffffffffffffffffffff161461096457868181518110610915576109146141a4565b5b602002602001015173ffffffffffffffffffffffffffffffffffffffff166108fc879081150290604051600060405180830381858888f19350505050158015610962573d6000803e3d6000fd5b505b808061096f90614202565b9150506108ab565b503373ffffffffffffffffffffffffffffffffffffffff167f96280f1b9a54271a5ff3d2bc027d857d9386da43de7540d42b8b73180a15864a87516109c689518961296790919063ffffffff16565b6040516109d492919061424a565b60405180910390a26001925050509392505050565b60006064600160008473ffffffffffffffffffffffffffffffffffffffff1673ffffffffffffffffffffffffffffffffffffffff16815260200190815260200160002054109050919050565b60095481565b6000610a45613461565b73ffffffffffffffffffffffffffffffffffffffff16610a63611632565b73ffffffffffffffffffffffffffffffffffffffff1614610ab9576040517f08c379a0000000000000000000000000000000000000000000000000000000008152600401610ab0906142bf565b60405180910390fd5b6009548214158015610acb5750600082115b610ad457600080fd5b7f4ac9052a820bf4f8c02d7588587cae835573b5b99ea7ad4ca002f17f319f718660095483604051610b0792919061424a565b60405180910390a1816009819055506000670de0b6b3a76400009050610b386009548261346990919063ffffffff16565b600a819055506001915050919050565b6000610b52613461565b73ffffffffffffffffffffffffffffffffffffffff16610b70611632565b73ffffffffffffffffffffffffffffffffffffffff1614610bc6576040517f08c379a0000000000000000000000000000000000000000000000000000000008152600401610bbd906142bf565b60405180910390fd5b600360008373ffffffffffffffffffffffffffffffffffffffff1673ffffffffffffffffffffffffffffffffffffffff16815260200190815260200160002060009054906101000a900460ff16610c1c57600080fd5b6000600360008473ffffffffffffffffffffffffffffffffffffffff1673ffffffffffffffffffffffffffffffffffffffff16815260200190815260200160002060006101000a81548160ff02191690831515021790555060006004600660008573ffffffffffffffffffffffffffffffffffffffff1673ffffffffffffffffffffffffffffffffffffffff168152602001908152602001600020604051610cc491906143de565b908152602001604051809103902060006101000a81548173ffffffffffffffffffffffffffffffffffffffff021916908373ffffffffffffffffffffffffffffffffffffffff160217905550600660008373ffffffffffffffffffffffffffffffffffffffff1673ffffffffffffffffffffffffffffffffffffffff168152602001908152602001600020604051610d5c91906143de565b60405180910390208273ffffffffffffffffffffffffffffffffffffffff167f4ddc7b8659a2faf8698c810ab0219aa981bfccb47c036d3cc7ae8a32c15dc4ec60405160405180910390a36040518060400160405280601e81526020017f4e6f206c6f6e67657220616e20616666696c6961746520706172746e65720000815250600660008473ffffffffffffffffffffffffffffffffffffffff1673ffffffffffffffffffffffffffffffffffffffff1681526020019081526020016000209080519060200190610e2f9291906137a4565b5060019050919050565b6005818051602081018201805184825260208301602085012081835280955050505050506000915054906101000a900460ff1681565b60066020528060005260406000206000915090508054610e8e9061430e565b80601f0160208091040260200160405190810160405280929190818152602001828054610eba9061430e565b8015610f075780601f10610edc57610100808354040283529160200191610f07565b820191906000526020600020905b815481529060010190602001808311610eea57829003601f168201915b505050505081565b60036020528060005260406000206000915054906101000a900460ff1681565b6000610f39613461565b73ffffffffffffffffffffffffffffffffffffffff16610f57611632565b73ffffffffffffffffffffffffffffffffffffffff1614610fad576040517f08c379a0000000000000000000000000000000000000000000000000000000008152600401610fa4906142bf565b60405180910390fd5b600360008473ffffffffffffffffffffffffffffffffffffffff1673ffffffffffffffffffffffffffffffffffffffff16815260200190815260200160002060009054906101000a900460ff161561103a576040517f08c379a000000000000000000000000000000000000000000000000000000000815260040161103190614441565b60405180910390fd5b600073ffffffffffffffffffffffffffffffffffffffff168373ffffffffffffffffffffffffffffffffffffffff160361107357600080fd5b6005826040516110839190614492565b908152602001604051809103902060009054906101000a900460ff16156110a957600080fd5b60016005836040516110bb9190614492565b908152602001604051809103902060006101000a81548160ff0219169083151502179055506001600360008573ffffffffffffffffffffffffffffffffffffffff1673ffffffffffffffffffffffffffffffffffffffff16815260200190815260200160002060006101000a81548160ff021916908315150217905550826004836040516111499190614492565b908152602001604051809103902060006101000a81548173ffffffffffffffffffffffffffffffffffffffff021916908373ffffffffffffffffffffffffffffffffffffffff16021790555081600660008573ffffffffffffffffffffffffffffffffffffffff1673ffffffffffffffffffffffffffffffffffffffff16815260200190815260200160002090805190602001906111e89291906137a4565b50816040516111f79190614492565b60405180910390208373ffffffffffffffffffffffffffffffffffffffff167ff30f92c3d1eddb3772622c3b7d6a3985a8de818f7eebd5cef6650ee86d5ddbce60405160405180910390a36001905092915050565b6004818051602081018201805184825260208301602085012081835280955050505050506000915054906101000a900473ffffffffffffffffffffffffffffffffffffffff1681565b600082518451146112db576040517f08c379a00000000000000000000000000000000000000000000000000000000081526004016112d29061451b565b60405180910390fd5b60006112e68461347f565b90506000611300600a54875161296790919063ffffffff16565b90506000611317828461297d90919063ffffffff16565b905080341015806113715750600260003373ffffffffffffffffffffffffffffffffffffffff1673ffffffffffffffffffffffffffffffffffffffff16815260200190815260200160002060009054906101000a900460ff165b6113b0576040517f08c379a00000000000000000000000000000000000000000000000000000000081526004016113a790614184565b60405180910390fd5b6113b985612993565b9450600260003373ffffffffffffffffffffffffffffffffffffffff1673ffffffffffffffffffffffffffffffffffffffff16815260200190815260200160002060009054906101000a900460ff1661141857611417875186613126565b5b611421816133f6565b60005b875181101561153257600073ffffffffffffffffffffffffffffffffffffffff16888281518110611458576114576141a4565b5b602002602001015173ffffffffffffffffffffffffffffffffffffffff161415801561149e57506000878281518110611494576114936141a4565b5b6020026020010151115b1561151f578781815181106114b6576114b56141a4565b5b602002602001015173ffffffffffffffffffffffffffffffffffffffff166108fc8883815181106114ea576114e96141a4565b5b60200260200101519081150290604051600060405180830381858888f1935050505015801561151d573d6000803e3d6000fd5b505b808061152a90614202565b915050611424565b503373ffffffffffffffffffffffffffffffffffffffff167f96280f1b9a54271a5ff3d2bc027d857d9386da43de7540d42b8b73180a15864a88518560405161157c92919061424a565b60405180910390a2600193505050509392505050565b60016020528060005260406000206000915090505481565b6115b2613461565b73ffffffffffffffffffffffffffffffffffffffff166115d0611632565b73ffffffffffffffffffffffffffffffffffffffff1614611626576040517f08c379a000000000000000000000000000000000000000000000000000000000815260040161161d906142bf565b60405180910390fd5b61163060006134de565b565b60008060009054906101000a900473ffffffffffffffffffffffffffffffffffffffff16905090565b60085481565b600a5481565b6000611672826109e9565b156116d7576000606490506116cf600160008573ffffffffffffffffffffffffffffffffffffffff1673ffffffffffffffffffffffffffffffffffffffff16815260200190815260200160002054826135a290919063ffffffff16565b9150506116dc565b600090505b919050565b600760205280600052604060002060009150905080546117009061430e565b80601f016020809104026020016040519081016040528092919081815260200182805461172c9061430e565b80156117795780601f1061174e57610100808354040283529160200191611779565b820191906000526020600020905b81548152906001019060200180831161175c57829003601f168201915b505050505081565b600061178b613461565b73ffffffffffffffffffffffffffffffffffffffff166117a9611632565b73ffffffffffffffffffffffffffffffffffffffff16146117ff576040517f08c379a00000000000000000000000000000000000000000000000000000000081526004016117f6906142bf565b60405180910390fd5b600073ffffffffffffffffffffffffffffffffffffffff168473ffffffffffffffffffffffffffffffffffffffff16141580156118695750600073ffffffffffffffffffffffffffffffffffffffff168373ffffffffffffffffffffffffffffffffffffffff1614155b80156118755750600082115b61187e57600080fd5b60008490508073ffffffffffffffffffffffffffffffffffffffff1663a9059cbb85856040518363ffffffff1660e01b81526004016118be92919061453b565b6020604051808303816000875af11580156118dd573d6000803e3d6000fd5b505050506040513d601f19601f820116820180604052508101906119019190614590565b507ee763f7778b8ceef7270c89b7d1df1008b0e482da39c43831417733af96fb0d858585604051611934939291906145bd565b60405180910390a160019150509392505050565b6000600260003373ffffffffffffffffffffffffffffffffffffffff1673ffffffffffffffffffffffffffffffffffffffff16815260200190815260200160002060009054906101000a900460ff16156119d7576040517f08c379a00000000000000000000000000000000000000000000000000000000081526004016119ce90614640565b60405180910390fd5b6008543410156119e86008546135b8565b6119f1346135b8565b604051602001611a029291906146f8565b60405160208183030381529060405290611a52576040517f08c379a0000000000000000000000000000000000000000000000000000000008152600401611a499190613d13565b60405180910390fd5b506001600260003373ffffffffffffffffffffffffffffffffffffffff1673ffffffffffffffffffffffffffffffffffffffff16815260200190815260200160002060006101000a81548160ff021916908315150217905550611ab482612993565b9150611ac16008546133f6565b611b00826040518060400160405280600481526020017f766f696400000000000000000000000000000000000000000000000000000000815250613740565b158015611b94575060036000600484604051611b1c9190614492565b908152602001604051809103902060009054906101000a900473ffffffffffffffffffffffffffffffffffffffff1673ffffffffffffffffffffffffffffffffffffffff1673ffffffffffffffffffffffffffffffffffffffff16815260200190815260200160002060009054906101000a900460ff165b15611d5357611ba1611632565b73ffffffffffffffffffffffffffffffffffffffff166108fc611be36064611bd5605060085461296790919063ffffffff16565b61346990919063ffffffff16565b9081150290604051600060405180830381858888f19350505050158015611c0e573d6000803e3d6000fd5b506000611c3a6064611c2c601460085461296790919063ffffffff16565b61346990919063ffffffff16565b9050600483604051611c4c9190614492565b908152602001604051809103902060009054906101000a900473ffffffffffffffffffffffffffffffffffffffff1673ffffffffffffffffffffffffffffffffffffffff166108fc829081150290604051600060405180830381858888f19350505050158015611cc0573d6000803e3d6000fd5b50600483604051611cd19190614492565b908152602001604051809103902060009054906101000a900473ffffffffffffffffffffffffffffffffffffffff1673ffffffffffffffffffffffffffffffffffffffff167f885e6f6235626292940f78c947a331f4c7c1d7f50a48b38092cf546bc9c7907a82604051611d459190613bfa565b60405180910390a250611da4565b611d5b611632565b73ffffffffffffffffffffffffffffffffffffffff166108fc6008549081150290604051600060405180830381858888f19350505050158015611da2573d6000803e3d6000fd5b505b3373ffffffffffffffffffffffffffffffffffffffff167fc6b9fca7b2e1cbd5b69b197ea298ab7dc0c58d469fc42acebdd4d38acb00951560405160405180910390a260019050919050565b60026020528060005260406000206000915054906101000a900460ff1681565b6000808290508073ffffffffffffffffffffffffffffffffffffffff1663dd62ed3e85306040518363ffffffff1660e01b8152600401611e51929190614732565b602060405180830381865afa158015611e6e573d6000803e3d6000fd5b505050506040513d601f19601f82011682018060405250810190611e929190614770565b91505092915050565b611ea3613461565b73ffffffffffffffffffffffffffffffffffffffff16611ec1611632565b73ffffffffffffffffffffffffffffffffffffffff1614611f17576040517f08c379a0000000000000000000000000000000000000000000000000000000008152600401611f0e906142bf565b60405180910390fd5b600073ffffffffffffffffffffffffffffffffffffffff168173ffffffffffffffffffffffffffffffffffffffff1603611f86576040517f08c379a0000000000000000000000000000000000000000000000000000000008152600401611f7d9061480f565b60405180910390fd5b611f8f816134de565b50565b6000808590506000611fb0600a54875161296790919063ffffffff16565b90508034101580611fc65750611fc5876109e9565b5b8061201a5750600260003373ffffffffffffffffffffffffffffffffffffffff1673ffffffffffffffffffffffffffffffffffffffff16815260200190815260200160002060009054906101000a900460ff165b612059576040517f08c379a000000000000000000000000000000000000000000000000000000000815260040161205090614184565b60405180910390fd5b612062816133f6565b61206b84612993565b935060005b865181101561217657600073ffffffffffffffffffffffffffffffffffffffff168782815181106120a4576120a36141a4565b5b602002602001015173ffffffffffffffffffffffffffffffffffffffff1614612163578273ffffffffffffffffffffffffffffffffffffffff166323b872dd338984815181106120f7576120f66141a4565b5b6020026020010151896040518463ffffffff1660e01b815260040161211e939291906145bd565b6020604051808303816000875af115801561213d573d6000803e3d6000fd5b505050506040513d601f19601f820116820180604052508101906121619190614590565b505b808061216e90614202565b915050612070565b50612180876109e9565b15612220576121d88651600160008a73ffffffffffffffffffffffffffffffffffffffff1673ffffffffffffffffffffffffffffffffffffffff1681526020019081526020016000205461297d90919063ffffffff16565b600160008973ffffffffffffffffffffffffffffffffffffffff1673ffffffffffffffffffffffffffffffffffffffff1681526020019081526020016000208190555061227e565b600260003373ffffffffffffffffffffffffffffffffffffffff1673ffffffffffffffffffffffffffffffffffffffff16815260200190815260200160002060009054906101000a900460ff1661227d5761227c865185613126565b5b5b8673ffffffffffffffffffffffffffffffffffffffff163373ffffffffffffffffffffffffffffffffffffffff167f39015fe519110ce3ccad418b153817407dc5312684839c8700af7436a80a07af88516040516122dc9190613bfa565b60405180910390a3600192505050949350505050565b600080859050835185511461233c576040517f08c379a00000000000000000000000000000000000000000000000000000000081526004016123339061451b565b60405180910390fd5b6000612354600a54875161296790919063ffffffff16565b9050803410158061236a5750612369876109e9565b5b806123be5750600260003373ffffffffffffffffffffffffffffffffffffffff1673ffffffffffffffffffffffffffffffffffffffff16815260200190815260200160002060009054906101000a900460ff165b6123fd576040517f08c379a00000000000000000000000000000000000000000000000000000000081526004016123f490614184565b60405180910390fd5b612406816133f6565b61240f84612993565b935060005b865181101561255c57600073ffffffffffffffffffffffffffffffffffffffff16878281518110612448576124476141a4565b5b602002602001015173ffffffffffffffffffffffffffffffffffffffff161415801561248e57506000868281518110612484576124836141a4565b5b6020026020010151115b15612549578273ffffffffffffffffffffffffffffffffffffffff166323b872dd338984815181106124c3576124c26141a4565b5b60200260200101518985815181106124de576124dd6141a4565b5b60200260200101516040518463ffffffff1660e01b8152600401612504939291906145bd565b6020604051808303816000875af1158015612523573d6000803e3d6000fd5b505050506040513d601f19601f820116820180604052508101906125479190614590565b505b808061255490614202565b915050612414565b50612566876109e9565b15612606576125be8651600160008a73ffffffffffffffffffffffffffffffffffffffff1673ffffffffffffffffffffffffffffffffffffffff1681526020019081526020016000205461297d90919063ffffffff16565b600160008973ffffffffffffffffffffffffffffffffffffffff1673ffffffffffffffffffffffffffffffffffffffff16815260200190815260200160002081905550612664565b600260003373ffffffffffffffffffffffffffffffffffffffff1673ffffffffffffffffffffffffffffffffffffffff16815260200190815260200160002060009054906101000a900460ff1661266357612662865185613126565b5b5b8673ffffffffffffffffffffffffffffffffffffffff163373ffffffffffffffffffffffffffffffffffffffff167f39015fe519110ce3ccad418b153817407dc5312684839c8700af7436a80a07af88516040516126c29190613bfa565b60405180910390a3600192505050949350505050565b60006126e2613461565b73ffffffffffffffffffffffffffffffffffffffff16612700611632565b73ffffffffffffffffffffffffffffffffffffffff1614612756576040517f08c379a000000000000000000000000000000000000000000000000000000000815260040161274d906142bf565b60405180910390fd5b60008211801561276857506008548214155b61277157600080fd5b816008819055507fa77eb4a199fa90085e9d7437273dd3bc924372a4bd0569aa21acc65a07b2c11c826040516127a79190613bfa565b60405180910390a160019050919050565b60006127c2613461565b73ffffffffffffffffffffffffffffffffffffffff166127e0611632565b73ffffffffffffffffffffffffffffffffffffffff1614612836576040517f08c379a000000000000000000000000000000000000000000000000000000000815260040161282d906142bf565b60405180910390fd5b600260008373ffffffffffffffffffffffffffffffffffffffff1673ffffffffffffffffffffffffffffffffffffffff16815260200190815260200160002060009054906101000a900460ff16156128c3576040517f08c379a00000000000000000000000000000000000000000000000000000000081526004016128ba90614640565b60405180910390fd5b6001600260008473ffffffffffffffffffffffffffffffffffffffff1673ffffffffffffffffffffffffffffffffffffffff16815260200190815260200160002060006101000a81548160ff0219169083151502179055508173ffffffffffffffffffffffffffffffffffffffff167fc6b9fca7b2e1cbd5b69b197ea298ab7dc0c58d469fc42acebdd4d38acb00951560405160405180910390a260019050919050565b60008183612975919061482f565b905092915050565b6000818361298b9190614889565b905092915050565b6060612a9b600760003373ffffffffffffffffffffffffffffffffffffffff1673ffffffffffffffffffffffffffffffffffffffff16815260200190815260200160002080546129e29061430e565b80601f0160208091040260200160405190810160405280929190818152602001828054612a0e9061430e565b8015612a5b5780601f10612a3057610100808354040283529160200191612a5b565b820191906000526020600020905b815481529060010190602001808311612a3e57829003601f168201915b50505050506040518060400160405280600481526020017f766f696400000000000000000000000000000000000000000000000000000000815250613740565b80612b2e575060036000600484604051612ab59190614492565b908152602001604051809103902060009054906101000a900473ffffffffffffffffffffffffffffffffffffffff1673ffffffffffffffffffffffffffffffffffffffff1673ffffffffffffffffffffffffffffffffffffffff16815260200190815260200160002060009054906101000a900460ff16155b15612bf9576040518060400160405280600481526020017f766f696400000000000000000000000000000000000000000000000000000000815250600760003373ffffffffffffffffffffffffffffffffffffffff1673ffffffffffffffffffffffffffffffffffffffff1681526020019081526020016000209080519060200190612bbb9291906137a4565b506040518060400160405280600481526020017f766f6964000000000000000000000000000000000000000000000000000000008152509050613121565b612c128260405180602001604052806000815250613740565b158015612cfb5750612cfa600760003373ffffffffffffffffffffffffffffffffffffffff1673ffffffffffffffffffffffffffffffffffffffff1681526020019081526020016000208054612c679061430e565b80601f0160208091040260200160405190810160405280929190818152602001828054612c939061430e565b8015612ce05780601f10612cb557610100808354040283529160200191612ce0565b820191906000526020600020905b815481529060010190602001808311612cc357829003601f168201915b505050505060405180602001604052806000815250613740565b5b8015612d2f5750600582604051612d129190614492565b908152602001604051809103902060009054906101000a900460ff165b15612e37573373ffffffffffffffffffffffffffffffffffffffff16600483604051612d5b9190614492565b908152602001604051809103902060009054906101000a900473ffffffffffffffffffffffffffffffffffffffff1673ffffffffffffffffffffffffffffffffffffffff1603612de2576040518060400160405280600481526020017f766f6964000000000000000000000000000000000000000000000000000000008152509050613121565b81600760003373ffffffffffffffffffffffffffffffffffffffff1673ffffffffffffffffffffffffffffffffffffffff1681526020019081526020016000209080519060200190612e359291906137a4565b505b612e508260405180602001604052806000815250613740565b8015612f395750612f37600760003373ffffffffffffffffffffffffffffffffffffffff1673ffffffffffffffffffffffffffffffffffffffff1681526020019081526020016000208054612ea49061430e565b80601f0160208091040260200160405190810160405280929190818152602001828054612ed09061430e565b8015612f1d5780601f10612ef257610100808354040283529160200191612f1d565b820191906000526020600020905b815481529060010190602001808311612f0057829003601f168201915b505050505060405180602001604052806000815250613740565b155b1561300957600760003373ffffffffffffffffffffffffffffffffffffffff1673ffffffffffffffffffffffffffffffffffffffff1681526020019081526020016000208054612f889061430e565b80601f0160208091040260200160405190810160405280929190818152602001828054612fb49061430e565b80156130015780601f10612fd657610100808354040283529160200191613001565b820191906000526020600020905b815481529060010190602001808311612fe457829003601f168201915b505050505091505b6130228260405180602001604052806000815250613740565b8061305657506005826040516130389190614492565b908152602001604051809103902060009054906101000a900460ff16155b1561311d576040518060400160405280600481526020017f766f696400000000000000000000000000000000000000000000000000000000815250600760003373ffffffffffffffffffffffffffffffffffffffff1673ffffffffffffffffffffffffffffffffffffffff16815260200190815260200160002090805190602001906130e39291906137a4565b506040518060400160405280600481526020017f766f69640000000000000000000000000000000000000000000000000000000081525091505b8190505b919050565b613165816040518060400160405280600481526020017f766f696400000000000000000000000000000000000000000000000000000000815250613740565b1580156131f95750600360006004836040516131819190614492565b908152602001604051809103902060009054906101000a900473ffffffffffffffffffffffffffffffffffffffff1673ffffffffffffffffffffffffffffffffffffffff1673ffffffffffffffffffffffffffffffffffffffff16815260200190815260200160002060009054906101000a900460ff165b1561338f576000613228600261321a600a548661296790919063ffffffff16565b61346990919063ffffffff16565b9050613232611632565b73ffffffffffffffffffffffffffffffffffffffff166108fc829081150290604051600060405180830381858888f19350505050158015613277573d6000803e3d6000fd5b506004826040516132889190614492565b908152602001604051809103902060009054906101000a900473ffffffffffffffffffffffffffffffffffffffff1673ffffffffffffffffffffffffffffffffffffffff166108fc829081150290604051600060405180830381858888f193505050501580156132fc573d6000803e3d6000fd5b5060048260405161330d9190614492565b908152602001604051809103902060009054906101000a900473ffffffffffffffffffffffffffffffffffffffff1673ffffffffffffffffffffffffffffffffffffffff167f885e6f6235626292940f78c947a331f4c7c1d7f50a48b38092cf546bc9c7907a826040516133819190613bfa565b60405180910390a2506133f2565b613397611632565b73ffffffffffffffffffffffffffffffffffffffff166108fc6133c5600a548561296790919063ffffffff16565b9081150290604051600060405180830381858888f193505050501580156133f0573d6000803e3d6000fd5b505b5050565b8034111561345e57600061341382346135a290919063ffffffff16565b90503373ffffffffffffffffffffffffffffffffffffffff166108fc829081150290604051600060405180830381858888f1935050505015801561345b573d6000803e3d6000fd5b50505b50565b600033905090565b60008183613477919061490e565b905092915050565b6000806000905060005b83518110156134d4576134bf8482815181106134a8576134a76141a4565b5b60200260200101518361297d90919063ffffffff16565b915080806134cc90614202565b915050613489565b5080915050919050565b60008060009054906101000a900473ffffffffffffffffffffffffffffffffffffffff169050816000806101000a81548173ffffffffffffffffffffffffffffffffffffffff021916908373ffffffffffffffffffffffffffffffffffffffff1602179055508173ffffffffffffffffffffffffffffffffffffffff168173ffffffffffffffffffffffffffffffffffffffff167f8be0079c531659141344cd1fd0a4f28419497f9722a3daafe3b4186f6b6457e060405160405180910390a35050565b600081836135b0919061493f565b905092915050565b6060600082036135ff576040518060400160405280600181526020017f3000000000000000000000000000000000000000000000000000000000000000815250905061373b565b600082905060005b6000821461363157808061361a90614202565b915050600a8261362a919061490e565b9150613607565b60008167ffffffffffffffff81111561364d5761364c613871565b5b6040519080825280601f01601f19166020018201604052801561367f5781602001600182028036833780820191505090505b50905060008290505b600086146137335760018161369d919061493f565b90506000600a80886136af919061490e565b6136b9919061482f565b876136c4919061493f565b60306136d09190614980565b905060008160f81b9050808484815181106136ee576136ed6141a4565b5b60200101907effffffffffffffffffffffffffffffffffffffffffffffffffffffffffffff1916908160001a905350600a8861372a919061490e565b97505050613688565b819450505050505b919050565b600080836040516020016137549190614492565b60405160208183030381529060405280519060200120905060008360405160200161377f9190614492565b6040516020818303038152906040528051906020012090508082149250505092915050565b8280546137b09061430e565b90600052602060002090601f0160209004810192826137d25760008555613819565b82601f106137eb57805160ff1916838001178555613819565b82800160010185558215613819579182015b828111156138185782518255916020019190600101906137fd565b5b509050613826919061382a565b5090565b5b8082111561384357600081600090555060010161382b565b5090565b6000604051905090565b600080fd5b600080fd5b600080fd5b6000601f19601f8301169050919050565b7f4e487b7100000000000000000000000000000000000000000000000000000000600052604160045260246000fd5b6138a982613860565b810181811067ffffffffffffffff821117156138c8576138c7613871565b5b80604052505050565b60006138db613847565b90506138e782826138a0565b919050565b600067ffffffffffffffff82111561390757613906613871565b5b602082029050602081019050919050565b600080fd5b600073ffffffffffffffffffffffffffffffffffffffff82169050919050565b60006139488261391d565b9050919050565b6139588161393d565b811461396357600080fd5b50565b6000813590506139758161394f565b92915050565b600061398e613989846138ec565b6138d1565b905080838252602082019050602084028301858111156139b1576139b0613918565b5b835b818110156139da57806139c68882613966565b8452602084019350506020810190506139b3565b5050509392505050565b600082601f8301126139f9576139f861385b565b5b8135613a0984826020860161397b565b91505092915050565b6000819050919050565b613a2581613a12565b8114613a3057600080fd5b50565b600081359050613a4281613a1c565b92915050565b600080fd5b600067ffffffffffffffff821115613a6857613a67613871565b5b613a7182613860565b9050602081019050919050565b82818337600083830152505050565b6000613aa0613a9b84613a4d565b6138d1565b905082815260208101848484011115613abc57613abb613a48565b5b613ac7848285613a7e565b509392505050565b600082601f830112613ae457613ae361385b565b5b8135613af4848260208601613a8d565b91505092915050565b600080600060608486031215613b1657613b15613851565b5b600084013567ffffffffffffffff811115613b3457613b33613856565b5b613b40868287016139e4565b9350506020613b5186828701613a33565b925050604084013567ffffffffffffffff811115613b7257613b71613856565b5b613b7e86828701613acf565b9150509250925092565b60008115159050919050565b613b9d81613b88565b82525050565b6000602082019050613bb86000830184613b94565b92915050565b600060208284031215613bd457613bd3613851565b5b6000613be284828501613966565b91505092915050565b613bf481613a12565b82525050565b6000602082019050613c0f6000830184613beb565b92915050565b600060208284031215613c2b57613c2a613851565b5b6000613c3984828501613a33565b91505092915050565b600060208284031215613c5857613c57613851565b5b600082013567ffffffffffffffff811115613c7657613c75613856565b5b613c8284828501613acf565b91505092915050565b600081519050919050565b600082825260208201905092915050565b60005b83811015613cc5578082015181840152602081019050613caa565b83811115613cd4576000848401525b50505050565b6000613ce582613c8b565b613cef8185613c96565b9350613cff818560208601613ca7565b613d0881613860565b840191505092915050565b60006020820190508181036000830152613d2d8184613cda565b905092915050565b60008060408385031215613d4c57613d4b613851565b5b6000613d5a85828601613966565b925050602083013567ffffffffffffffff811115613d7b57613d7a613856565b5b613d8785828601613acf565b9150509250929050565b613d9a8161393d565b82525050565b6000602082019050613db56000830184613d91565b92915050565b600067ffffffffffffffff821115613dd657613dd5613871565b5b602082029050602081019050919050565b6000613dfa613df584613dbb565b6138d1565b90508083825260208201905060208402830185811115613e1d57613e1c613918565b5b835b81811015613e465780613e328882613a33565b845260208401935050602081019050613e1f565b5050509392505050565b600082601f830112613e6557613e6461385b565b5b8135613e75848260208601613de7565b91505092915050565b600080600060608486031215613e9757613e96613851565b5b600084013567ffffffffffffffff811115613eb557613eb4613856565b5b613ec1868287016139e4565b935050602084013567ffffffffffffffff811115613ee257613ee1613856565b5b613eee86828701613e50565b925050604084013567ffffffffffffffff811115613f0f57613f0e613856565b5b613f1b86828701613acf565b9150509250925092565b600080600060608486031215613f3e57613f3d613851565b5b6000613f4c86828701613966565b9350506020613f5d86828701613966565b9250506040613f6e86828701613a33565b9150509250925092565b60008060408385031215613f8f57613f8e613851565b5b6000613f9d85828601613966565b9250506020613fae85828601613966565b9150509250929050565b60008060008060808587031215613fd257613fd1613851565b5b6000613fe087828801613966565b945050602085013567ffffffffffffffff81111561400157614000613856565b5b61400d878288016139e4565b935050604061401e87828801613a33565b925050606085013567ffffffffffffffff81111561403f5761403e613856565b5b61404b87828801613acf565b91505092959194509250565b6000806000806080858703121561407157614070613851565b5b600061407f87828801613966565b945050602085013567ffffffffffffffff8111156140a05761409f613856565b5b6140ac878288016139e4565b935050604085013567ffffffffffffffff8111156140cd576140cc613856565b5b6140d987828801613e50565b925050606085013567ffffffffffffffff8111156140fa576140f9613856565b5b61410687828801613acf565b91505092959194509250565b7f4e6f7420656e6f756768204554482073656e742077697468207472616e73616360008201527f74696f6e21000000000000000000000000000000000000000000000000000000602082015250565b600061416e602583613c96565b915061417982614112565b604082019050919050565b6000602082019050818103600083015261419d81614161565b9050919050565b7f4e487b7100000000000000000000000000000000000000000000000000000000600052603260045260246000fd5b7f4e487b7100000000000000000000000000000000000000000000000000000000600052601160045260246000fd5b600061420d82613a12565b91507fffffffffffffffffffffffffffffffffffffffffffffffffffffffffffffffff820361423f5761423e6141d3565b5b600182019050919050565b600060408201905061425f6000830185613beb565b61426c6020830184613beb565b9392505050565b7f4f776e61626c653a2063616c6c6572206973206e6f7420746865206f776e6572600082015250565b60006142a9602083613c96565b91506142b482614273565b602082019050919050565b600060208201905081810360008301526142d88161429c565b9050919050565b7f4e487b7100000000000000000000000000000000000000000000000000000000600052602260045260246000fd5b6000600282049050600182168061432657607f821691505b602082108103614339576143386142df565b5b50919050565b600081905092915050565b60008190508160005260206000209050919050565b6000815461436c8161430e565b614376818661433f565b9450600182166000811461439157600181146143a2576143d5565b60ff198316865281860193506143d5565b6143ab8561434a565b60005b838110156143cd578154818901526001820191506020810190506143ae565b838801955050505b50505092915050565b60006143ea828461435f565b915081905092915050565b7f4164647265737320697320616c726561647920616e20616666696c696174652e600082015250565b600061442b602083613c96565b9150614436826143f5565b602082019050919050565b6000602082019050818103600083015261445a8161441e565b9050919050565b600061446c82613c8b565b614476818561433f565b9350614486818560208601613ca7565b80840191505092915050565b600061449e8284614461565b915081905092915050565b7f546f74616c206e756d626572206f6620726563697069656e747320616e64207660008201527f616c75657320617265206e6f7420657175616c00000000000000000000000000602082015250565b6000614505603383613c96565b9150614510826144a9565b604082019050919050565b60006020820190508181036000830152614534816144f8565b9050919050565b60006040820190506145506000830185613d91565b61455d6020830184613beb565b9392505050565b61456d81613b88565b811461457857600080fd5b50565b60008151905061458a81614564565b92915050565b6000602082840312156145a6576145a5613851565b5b60006145b48482850161457b565b91505092915050565b60006060820190506145d26000830186613d91565b6145df6020830185613d91565b6145ec6040830184613beb565b949350505050565b7f497320616c7265616479207072656d69756d4d656d626572206d656d62657200600082015250565b600061462a601f83613c96565b9150614635826145f4565b602082019050919050565b600060208201905081810360008301526146598161461d565b9050919050565b7f7072656d69756d4d656d626572206665652069733a2000000000000000000000600082015250565b600061469660168361433f565b91506146a182614660565b601682019050919050565b7f2e204e6f7420656e6f756768204554482073656e742e20000000000000000000600082015250565b60006146e260178361433f565b91506146ed826146ac565b601782019050919050565b600061470382614689565b915061470f8285614461565b915061471a826146d5565b91506147268284614461565b91508190509392505050565b60006040820190506147476000830185613d91565b6147546020830184613d91565b9392505050565b60008151905061476a81613a1c565b92915050565b60006020828403121561478657614785613851565b5b60006147948482850161475b565b91505092915050565b7f4f776e61626c653a206e6577206f776e657220697320746865207a65726f206160008201527f6464726573730000000000000000000000000000000000000000000000000000602082015250565b60006147f9602683613c96565b91506148048261479d565b604082019050919050565b60006020820190508181036000830152614828816147ec565b9050919050565b600061483a82613a12565b915061484583613a12565b9250817fffffffffffffffffffffffffffffffffffffffffffffffffffffffffffffffff048311821515161561487e5761487d6141d3565b5b828202905092915050565b600061489482613a12565b915061489f83613a12565b9250827fffffffffffffffffffffffffffffffffffffffffffffffffffffffffffffffff038211156148d4576148d36141d3565b5b828201905092915050565b7f4e487b7100000000000000000000000000000000000000000000000000000000600052601260045260246000fd5b600061491982613a12565b915061492483613a12565b925082614934576149336148df565b5b828204905092915050565b600061494a82613a12565b915061495583613a12565b925082821015614968576149676141d3565b5b828203905092915050565b600060ff82169050919050565b600061498b82614973565b915061499683614973565b92508260ff038211156149ac576149ab6141d3565b5b82820190509291505056fea26469706673582212203a3d4eba511de044d0886286f2d3442b068f22502029196ca2866a5f6517e9b864736f6c634300080d0033",
  "immutableReferences": {},
  "source": "// SPDX-License-Identifier: NOLICENSE\n\n/***\n * @author Original: Zenos Pavlakou\n * @author Modified: Alexandre Tolstenko\n * @notice reference https://cryptomultisender.com/blog/our-airdrop-smart-contract\n */\n\nimport \"@openzeppelin/contracts/utils/math/SafeMath.sol\";\nimport \"@openzeppelin/contracts/access/Ownable.sol\";\nimport \"@openzeppelin/contracts/token/ERC20/IERC20.sol\";\n\npragma solidity ^0.8.9;\n\ncontract CryptoMultisender is Ownable {\n\n    using SafeMath for uint256;\n\n    mapping (address => uint256) public tokenTrialDrops;\n\n    mapping (address => bool) public isPremiumMember;\n    mapping (address => bool) public isAffiliate;\n    mapping (string => address) public affiliateCodeToAddr;\n    mapping (string => bool) public affiliateCodeExists;\n    mapping (address => string) public affiliateCodeOfAddr;\n    mapping (address => string) public isAffiliatedWith;\n\n    uint256 public premiumMemberFee;\n    uint256 public rate;\n    uint256 public dropUnitPrice;\n\n\n    event TokenAirdrop(address indexed by, address indexed tokenAddress, uint256 totalTransfers);\n    event EthAirdrop(address indexed by, uint256 totalTransfers, uint256 ethValue);\n\n\n    event RateChanged(uint256 from, uint256 to);\n    event RefundIssued(address indexed to, uint256 totalWei);\n    event ERC20TokensWithdrawn(address token, address sentTo, uint256 value);\n    event CommissionPaid(address indexed to, uint256 value);\n    event NewPremiumMembership(address indexed premiumMember);\n    event NewAffiliatePartnership(address indexed newAffiliate, string indexed affiliateCode);\n    event AffiliatePartnershipRevoked(address indexed affiliate, string indexed affiliateCode);\n    event PremiumMemberFeeUpdated(uint256 newFee);\n\n\n    constructor() {\n        rate = 10000;\n        dropUnitPrice = 1e14;\n        premiumMemberFee = 25e16;\n    }\n\n\n    /**\n     * Allows the owner of this contract to change the fee for users to become premium members.\n     *\n     * @param _fee The new fee.\n     *\n     * @return True if the fee is changed successfully. False otherwise.\n     * */\n    function setPremiumMemberFee(uint256 _fee) public onlyOwner returns(bool) {\n        require(_fee > 0 && _fee != premiumMemberFee);\n        premiumMemberFee = _fee;\n        emit PremiumMemberFeeUpdated(_fee);\n        return true;\n    }\n\n\n    function uint2str(uint _i) internal pure returns (string memory _uintAsString) {\n        if (_i == 0) {\n            return \"0\";\n        }\n        uint j = _i;\n        uint len;\n        while (j != 0) {\n            len++;\n            j /= 10;\n        }\n        bytes memory bstr = new bytes(len);\n        uint k = len;\n        while (_i != 0) {\n            k = k-1;\n            uint8 temp = (48 + uint8(_i - _i / 10 * 10));\n            bytes1 b1 = bytes1(temp);\n            bstr[k] = b1;\n            _i /= 10;\n        }\n        return string(bstr);\n    }\n\n\n    /**\n    * Used to give change to users who accidentally send too much ETH to payable functions.\n    *\n    * @param _price The service fee the user has to pay for function execution.\n    **/\n    function giveChange(uint256 _price) internal {\n        if(msg.value > _price) {\n            uint256 change = msg.value.sub(_price);\n            payable(msg.sender).transfer(change);\n        }\n    }\n\n\n    /**\n    * Ensures that the correct affiliate code is used and also ensures that affiliate partners\n    * are not able to 'jack' commissions from existing users who they are not affiliated with.\n    *\n    * @param _afCode The affiliate code provided by the user.\n    *\n    * @return The correct affiliate code or void.\n    **/\n    function processAffiliateCode(string memory _afCode) internal returns(string memory) {\n\n        if(stringsAreEqual(isAffiliatedWith[msg.sender], \"void\") || !isAffiliate[affiliateCodeToAddr[_afCode]]) {\n            isAffiliatedWith[msg.sender] = \"void\";\n            return \"void\";\n        }\n\n        if(!stringsAreEqual(_afCode, \"\") && stringsAreEqual(isAffiliatedWith[msg.sender],\"\")\n        && affiliateCodeExists[_afCode]) {\n            if(affiliateCodeToAddr[_afCode] == msg.sender) {\n                return \"void\";\n            }\n            isAffiliatedWith[msg.sender] = _afCode;\n        }\n\n        if(stringsAreEqual(_afCode,\"\") && !stringsAreEqual(isAffiliatedWith[msg.sender],\"\")) {\n            _afCode = isAffiliatedWith[msg.sender];\n        }\n\n        if(stringsAreEqual(_afCode,\"\") || !affiliateCodeExists[_afCode]) {\n            isAffiliatedWith[msg.sender] = \"void\";\n            _afCode = \"void\";\n        }\n\n        return _afCode;\n    }\n\n\n    /**\n    * Allows the owner of this contract to grant users with premium membership.\n    *\n    * @param _addr The address of the user who is being granted premium membership.\n    *\n    * @return True if premium membership is granted successfully. False otherwise.\n    **/\n    function grantPremiumMembership(address _addr) public onlyOwner returns(bool) {\n        require(!isPremiumMember[_addr], \"Is already premiumMember member\");\n        isPremiumMember[_addr] = true;\n        emit NewPremiumMembership(_addr);\n        return true;\n    }\n\n\n    /**\n    * Allows users to become premium members.\n    *\n    * @param _afCode If a user has been refferred by an affiliate partner, they can provide\n    * an affiliate code so the partner gets commission.\n    *\n    * @return True if user successfully becomes premium member. False otherwise.\n    **/\n    function becomePremiumMember(string memory _afCode) public payable returns(bool) {\n        require(!isPremiumMember[msg.sender], \"Is already premiumMember member\");\n        require(\n            msg.value >= premiumMemberFee,\n            string(abi.encodePacked(\n                \"premiumMember fee is: \", uint2str(premiumMemberFee), \". Not enough ETH sent. \", uint2str(msg.value)\n            ))\n        );\n\n        isPremiumMember[msg.sender] = true;\n\n        _afCode = processAffiliateCode(_afCode);\n\n        giveChange(premiumMemberFee);\n\n        if(!stringsAreEqual(_afCode,\"void\") && isAffiliate[affiliateCodeToAddr[_afCode]]) {\n            payable(owner()).transfer(premiumMemberFee.mul(80).div(100));\n            uint256 commission = premiumMemberFee.mul(20).div(100);\n            payable(affiliateCodeToAddr[_afCode]).transfer(commission);\n            emit CommissionPaid(affiliateCodeToAddr[_afCode], commission);\n        } else {\n            payable(owner()).transfer(premiumMemberFee);\n        }\n        emit NewPremiumMembership(msg.sender);\n        return true;\n    }\n\n\n    /**\n    * Allows the owner of this contract to add an affiliate partner.\n    *\n    * @param _addr The address of the new affiliate partner.\n    * @param _code The affiliate code.\n    *\n    * @return True if the affiliate has been added successfully. False otherwise.\n    **/\n    function addAffiliate(address _addr, string memory _code) public onlyOwner returns(bool) {\n        require(!isAffiliate[_addr], \"Address is already an affiliate.\");\n        require(_addr != address(0));\n        require(!affiliateCodeExists[_code]);\n        affiliateCodeExists[_code] = true;\n        isAffiliate[_addr] = true;\n        affiliateCodeToAddr[_code] = _addr;\n        affiliateCodeOfAddr[_addr] = _code;\n        emit NewAffiliatePartnership(_addr,_code);\n        return true;\n    }\n\n\n    /**\n    * Allows the owner of this contract to remove an affiliate partner.\n    *\n    * @param _addr The address of the affiliate partner.\n    *\n    * @return True if affiliate partner is removed successfully. False otherwise.\n    **/\n    function removeAffiliate(address _addr) public onlyOwner returns(bool) {\n        require(isAffiliate[_addr]);\n        isAffiliate[_addr] = false;\n        affiliateCodeToAddr[affiliateCodeOfAddr[_addr]] = address(0);\n        emit AffiliatePartnershipRevoked(_addr, affiliateCodeOfAddr[_addr]);\n        affiliateCodeOfAddr[_addr] = \"No longer an affiliate partner\";\n        return true;\n    }\n\n\n\n    /**\n     * Checks whether or not an ERC20 token has used its free trial of 100 drops. This is a constant\n     * function which does not alter the state of the contract and therefore does not require any gas\n     * or a signature to be executed.\n     *\n     * @param _addressOfToken The address of the token being queried.\n     *\n     * @return true if the token being queried has not used its 100 first free trial drops, false\n     * otherwise.\n     * */\n    function tokenHasFreeTrial(address _addressOfToken) public view returns(bool) {\n        return tokenTrialDrops[_addressOfToken] < 100;\n    }\n\n\n    /**\n     * Checks how many remaining free trial drops a token has.\n     *\n     * @param _addressOfToken the address of the token being queried.\n     *\n     * @return the total remaining free trial drops of a token.\n     * */\n    function getRemainingTrialDrops(address _addressOfToken) public view returns(uint256) {\n        if(tokenHasFreeTrial(_addressOfToken)) {\n            uint256 maxTrialDrops =  100;\n            return maxTrialDrops.sub(tokenTrialDrops[_addressOfToken]);\n        }\n        return 0;\n    }\n\n\n    /**\n     * Allows for the price of drops to be changed by the owner of the contract. Any attempt made by\n     * any other account to invoke the function will result in a loss of gas and the price will remain\n     * untampered.\n     *\n     * @return true if function executes successfully, false otherwise.\n     * */\n    function setRate(uint256 _newRate) public onlyOwner returns(bool) {\n        require(\n            _newRate != rate\n            && _newRate > 0\n        );\n        emit RateChanged(rate, _newRate);\n        rate = _newRate;\n        uint256 eth = 1 ether;\n        dropUnitPrice = eth.div(rate);\n        return true;\n    }\n\n\n\n    /**\n     * Allows for the allowance of a token from its owner to this contract to be queried.\n     *\n     * As part of the ERC20 standard all tokens which fall under this category have an allowance\n     * function which enables owners of tokens to allow (or give permission) to another address\n     * to spend tokens on behalf of the owner. This contract uses this as part of its protocol.\n     * Users must first give permission to the contract to transfer tokens on their behalf, however,\n     * this does not mean that the tokens will ever be transferrable without the permission of the\n     * owner. This is a security feature which was implemented on this contract. It is not possible\n     * for the owner of this contract or anyone else to transfer the tokens which belong to others.\n     *\n     * @param _addr The address of the token's owner.\n     * @param _addressOfToken The contract address of the ERC20 token.\n     *\n     * @return The ERC20 token allowance from token owner to this contract.\n     * */\n    function getTokenAllowance(address _addr, address _addressOfToken) public view returns(uint256) {\n        IERC20 token = IERC20(_addressOfToken);\n        return token.allowance(_addr, address(this));\n    }\n\n\n    fallback() external payable {\n        revert();\n    }\n\n\n    receive() external payable {\n        revert();\n    }\n\n\n    /**\n    * Checks if two strings are the same.\n    *\n    * @param _a String 1\n    * @param _b String 2\n    *\n    * @return True if both strings are the same. False otherwise.\n    **/\n    function stringsAreEqual(string memory _a, string memory _b) internal pure returns(bool) {\n        bytes32 hashA = keccak256(abi.encodePacked(_a));\n        bytes32 hashB = keccak256(abi.encodePacked(_b));\n        return hashA == hashB;\n    }\n\n\n    /**\n     * Allows for the distribution of Ether to be transferred to multiple recipients at\n     * a time. This function only facilitates batch transfers of constant values (i.e., all recipients\n     * will receive the same amount of tokens).\n     *\n     * @param _recipients The list of addresses which will receive tokens.\n     * @param _value The amount of tokens all addresses will receive.\n     * @param _afCode If the user is affiliated with a partner, they will provide this code so that\n     * the parter is paid commission.\n     *\n     * @return true if function executes successfully, false otherwise.\n     * */\n    function singleValueEthAirrop(address[] memory _recipients, uint256 _value, string memory _afCode) public payable returns(bool) {\n\n        uint256 price = _recipients.length.mul(dropUnitPrice);\n        uint256 totalCost = _value.mul(_recipients.length).add(price);\n\n        require(\n            msg.value >= totalCost|| isPremiumMember[msg.sender],\n            \"Not enough ETH sent with transaction!\"\n        );\n\n\n        _afCode = processAffiliateCode(_afCode);\n\n\n        if(!isPremiumMember[msg.sender]) {\n            distributeCommission(_recipients.length, _afCode);\n        }\n\n        giveChange(totalCost);\n\n        for(uint i=0; i<_recipients.length; i++) {\n            if(_recipients[i] != address(0)) {\n                payable(_recipients[i]).transfer(_value);\n            }\n        }\n\n        emit EthAirdrop(msg.sender, _recipients.length, _value.mul(_recipients.length));\n\n        return true;\n    }\n\n\n\n    function _getTotalEthValue(uint256[] memory _values) internal pure returns(uint256) {\n        uint256 totalVal = 0;\n        for(uint i = 0; i < _values.length; i++) {\n            totalVal = totalVal.add(_values[i]);\n        }\n        return totalVal;\n    }\n\n\n    /**\n     * Allows for the distribution of Ether to be transferred to multiple recipients at\n     * a time.\n     *\n     * @param _recipients The list of addresses which will receive tokens.\n     * @param _values The corresponding amounts that the recipients will receive\n     * @param _afCode If the user is affiliated with a partner, they will provide this code so that\n     * the parter is paid commission.\n     *\n     * @return true if function executes successfully, false otherwise.\n     * */\n    function multiValueEthAirdrop(address[] memory _recipients, uint256[] memory _values, string memory _afCode) public payable returns(bool) {\n        require(_recipients.length == _values.length, \"Total number of recipients and values are not equal\");\n\n        uint256 totalEthValue = _getTotalEthValue(_values);\n        uint256 price = _recipients.length.mul(dropUnitPrice);\n        uint256 totalCost = totalEthValue.add(price);\n\n        require(\n            msg.value >= totalCost || isPremiumMember[msg.sender],\n            \"Not enough ETH sent with transaction!\"\n        );\n\n\n        _afCode = processAffiliateCode(_afCode);\n\n        if(!isPremiumMember[msg.sender]) {\n            distributeCommission(_recipients.length, _afCode);\n        }\n\n        giveChange(totalCost);\n\n        for(uint i = 0; i < _recipients.length; i++) {\n            if(_recipients[i] != address(0) && _values[i] > 0) {\n                payable(_recipients[i]).transfer(_values[i]);\n            }\n        }\n\n        emit EthAirdrop(msg.sender, _recipients.length, totalEthValue);\n        return true;\n    }\n\n\n    /**\n     * Allows for the distribution of an ERC20 token to be transferred to multiple recipients at\n     * a time. This function only facilitates batch transfers of constant values (i.e., all recipients\n     * will receive the same amount of tokens).\n     *\n     * @param _addressOfToken The contract address of an ERC20 token.\n     * @param _recipients The list of addresses which will receive tokens.\n     * @param _value The amount of tokens all addresses will receive.\n     * @param _afCode If the user is affiliated with a partner, they will provide this code so that\n     * the parter is paid commission.\n     *\n     * @return true if function executes successfully, false otherwise.\n     * */\n    function singleValueTokenAirdrop(address _addressOfToken,  address[] memory _recipients, uint256 _value, string memory _afCode) public payable returns(bool) {\n        IERC20 token = IERC20(_addressOfToken);\n\n        uint256 price = _recipients.length.mul(dropUnitPrice);\n\n        require(\n            msg.value >= price || tokenHasFreeTrial(_addressOfToken) || isPremiumMember[msg.sender],\n            \"Not enough ETH sent with transaction!\"\n        );\n\n        giveChange(price);\n\n        _afCode = processAffiliateCode(_afCode);\n\n        for(uint i = 0; i < _recipients.length; i++) {\n            if(_recipients[i] != address(0)) {\n                token.transferFrom(msg.sender, _recipients[i], _value);\n            }\n        }\n        if(tokenHasFreeTrial(_addressOfToken)) {\n            tokenTrialDrops[_addressOfToken] = tokenTrialDrops[_addressOfToken].add(_recipients.length);\n        } else {\n            if(!isPremiumMember[msg.sender]) {\n                distributeCommission(_recipients.length, _afCode);\n            }\n\n        }\n\n        emit TokenAirdrop(msg.sender, _addressOfToken, _recipients.length);\n        return true;\n    }\n\n\n    /**\n     * Allows for the distribution of an ERC20 token to be transferred to multiple recipients at\n     * a time. This function facilitates batch transfers of differing values (i.e., all recipients\n     * can receive different amounts of tokens).\n     *\n     * @param _addressOfToken The contract address of an ERC20 token.\n     * @param _recipients The list of addresses which will receive tokens.\n     * @param _values The corresponding values of tokens which each address will receive.\n     * @param _afCode If the user is affiliated with a partner, they will provide this code so that\n     * the parter is paid commission.\n     *\n     * @return true if function executes successfully, false otherwise.\n     * */\n    function multiValueTokenAirdrop(address _addressOfToken,  address[] memory _recipients, uint256[] memory _values, string memory _afCode) public payable returns(bool) {\n        IERC20 token = IERC20(_addressOfToken);\n        require(_recipients.length == _values.length, \"Total number of recipients and values are not equal\");\n\n        uint256 price = _recipients.length.mul(dropUnitPrice);\n\n        require(\n            msg.value >= price || tokenHasFreeTrial(_addressOfToken) || isPremiumMember[msg.sender],\n            \"Not enough ETH sent with transaction!\"\n        );\n\n        giveChange(price);\n\n        _afCode = processAffiliateCode(_afCode);\n\n        for(uint i = 0; i < _recipients.length; i++) {\n            if(_recipients[i] != address(0) && _values[i] > 0) {\n                token.transferFrom(msg.sender, _recipients[i], _values[i]);\n            }\n        }\n        if(tokenHasFreeTrial(_addressOfToken)) {\n            tokenTrialDrops[_addressOfToken] = tokenTrialDrops[_addressOfToken].add(_recipients.length);\n        } else {\n            if(!isPremiumMember[msg.sender]) {\n                distributeCommission(_recipients.length, _afCode);\n            }\n        }\n        emit TokenAirdrop(msg.sender, _addressOfToken, _recipients.length);\n        return true;\n    }\n\n\n    /**\n    * Send the owner and affiliates commissions.\n    **/\n    function distributeCommission(uint256 _drops, string memory _afCode) internal {\n        if(!stringsAreEqual(_afCode,\"void\") && isAffiliate[affiliateCodeToAddr[_afCode]]) {\n            uint256 profitSplit = _drops.mul(dropUnitPrice).div(2);\n            payable(owner()).transfer(profitSplit);\n            payable(affiliateCodeToAddr[_afCode]).transfer(profitSplit);\n            emit CommissionPaid(affiliateCodeToAddr[_afCode], profitSplit);\n        } else {\n            payable(owner()).transfer(_drops.mul(dropUnitPrice));\n        }\n    }\n\n\n\n\n    /**\n     * Allows for any ERC20 tokens which have been mistakenly  sent to this contract to be returned\n     * to the original sender by the owner of the contract. Any attempt made by any other account\n     * to invoke the function will result in a loss of gas and no tokens will be transferred out.\n     *\n     * @param _addressOfToken The contract address of an ERC20 token.\n     * @param _recipient The address which will receive tokens.\n     * @param _value The amount of tokens to refund.\n     *\n     * @return true if function executes successfully, false otherwise.\n     * */\n    function withdrawERC20Tokens(address _addressOfToken,  address _recipient, uint256 _value) public onlyOwner returns(bool){\n        require(\n            _addressOfToken != address(0)\n            && _recipient != address(0)\n            && _value > 0\n        );\n        IERC20 token = IERC20(_addressOfToken);\n        token.transfer(_recipient, _value);\n        emit ERC20TokensWithdrawn(_addressOfToken, _recipient, _value);\n        return true;\n    }\n}",
  "sourcePath": "D:\\Solidity - Curso FG\\Solidity-Course\\contracts\\CryptoMultiSender.sol",
  "compiler": {
    "name": "solc",
    "version": "0.8.13+commit.abaa5c0e.Emscripten.clang"
  },
  "schemaVersion": "3.4.6",
  "updatedAt": "2022-03-30T15:35:27.849Z",
  "devdoc": {
    "kind": "dev",
    "methods": {
      "addAffiliate(address,string)": {
        "params": {
          "_addr": "The address of the new affiliate partner.",
          "_code": "The affiliate code."
        },
        "returns": {
          "_0": "True if the affiliate has been added successfully. False otherwise.*"
        }
      },
      "becomePremiumMember(string)": {
        "params": {
          "_afCode": "If a user has been refferred by an affiliate partner, they can provide an affiliate code so the partner gets commission."
        },
        "returns": {
          "_0": "True if user successfully becomes premium member. False otherwise.*"
        }
      },
      "getRemainingTrialDrops(address)": {
        "params": {
          "_addressOfToken": "the address of the token being queried."
        },
        "returns": {
          "_0": "the total remaining free trial drops of a token. "
        }
      },
      "getTokenAllowance(address,address)": {
        "params": {
          "_addr": "The address of the token's owner.",
          "_addressOfToken": "The contract address of the ERC20 token."
        },
        "returns": {
          "_0": "The ERC20 token allowance from token owner to this contract. "
        }
      },
      "grantPremiumMembership(address)": {
        "params": {
          "_addr": "The address of the user who is being granted premium membership."
        },
        "returns": {
          "_0": "True if premium membership is granted successfully. False otherwise.*"
        }
      },
      "multiValueEthAirdrop(address[],uint256[],string)": {
        "params": {
          "_afCode": "If the user is affiliated with a partner, they will provide this code so that the parter is paid commission.",
          "_recipients": "The list of addresses which will receive tokens.",
          "_values": "The corresponding amounts that the recipients will receive"
        },
        "returns": {
          "_0": "true if function executes successfully, false otherwise. "
        }
      },
      "multiValueTokenAirdrop(address,address[],uint256[],string)": {
        "params": {
          "_addressOfToken": "The contract address of an ERC20 token.",
          "_afCode": "If the user is affiliated with a partner, they will provide this code so that the parter is paid commission.",
          "_recipients": "The list of addresses which will receive tokens.",
          "_values": "The corresponding values of tokens which each address will receive."
        },
        "returns": {
          "_0": "true if function executes successfully, false otherwise. "
        }
      },
      "owner()": {
        "details": "Returns the address of the current owner."
      },
      "removeAffiliate(address)": {
        "params": {
          "_addr": "The address of the affiliate partner."
        },
        "returns": {
          "_0": "True if affiliate partner is removed successfully. False otherwise.*"
        }
      },
      "renounceOwnership()": {
        "details": "Leaves the contract without owner. It will not be possible to call `onlyOwner` functions anymore. Can only be called by the current owner. NOTE: Renouncing ownership will leave the contract without an owner, thereby removing any functionality that is only available to the owner."
      },
      "setPremiumMemberFee(uint256)": {
        "params": {
          "_fee": "The new fee."
        },
        "returns": {
          "_0": "True if the fee is changed successfully. False otherwise. "
        }
      },
      "setRate(uint256)": {
        "returns": {
          "_0": "true if function executes successfully, false otherwise. "
        }
      },
      "singleValueEthAirrop(address[],uint256,string)": {
        "params": {
          "_afCode": "If the user is affiliated with a partner, they will provide this code so that the parter is paid commission.",
          "_recipients": "The list of addresses which will receive tokens.",
          "_value": "The amount of tokens all addresses will receive."
        },
        "returns": {
          "_0": "true if function executes successfully, false otherwise. "
        }
      },
      "singleValueTokenAirdrop(address,address[],uint256,string)": {
        "params": {
          "_addressOfToken": "The contract address of an ERC20 token.",
          "_afCode": "If the user is affiliated with a partner, they will provide this code so that the parter is paid commission.",
          "_recipients": "The list of addresses which will receive tokens.",
          "_value": "The amount of tokens all addresses will receive."
        },
        "returns": {
          "_0": "true if function executes successfully, false otherwise. "
        }
      },
      "tokenHasFreeTrial(address)": {
        "params": {
          "_addressOfToken": "The address of the token being queried."
        },
        "returns": {
          "_0": "true if the token being queried has not used its 100 first free trial drops, false otherwise. "
        }
      },
      "transferOwnership(address)": {
        "details": "Transfers ownership of the contract to a new account (`newOwner`). Can only be called by the current owner."
      },
      "withdrawERC20Tokens(address,address,uint256)": {
        "params": {
          "_addressOfToken": "The contract address of an ERC20 token.",
          "_recipient": "The address which will receive tokens.",
          "_value": "The amount of tokens to refund."
        },
        "returns": {
          "_0": "true if function executes successfully, false otherwise. "
        }
      }
    },
    "version": 1
  },
  "userdoc": {
    "kind": "user",
    "methods": {
      "addAffiliate(address,string)": {
        "notice": "Allows the owner of this contract to add an affiliate partner."
      },
      "becomePremiumMember(string)": {
        "notice": "Allows users to become premium members."
      },
      "getRemainingTrialDrops(address)": {
        "notice": "Checks how many remaining free trial drops a token has."
      },
      "getTokenAllowance(address,address)": {
        "notice": "Allows for the allowance of a token from its owner to this contract to be queried. As part of the ERC20 standard all tokens which fall under this category have an allowance function which enables owners of tokens to allow (or give permission) to another address to spend tokens on behalf of the owner. This contract uses this as part of its protocol. Users must first give permission to the contract to transfer tokens on their behalf, however, this does not mean that the tokens will ever be transferrable without the permission of the owner. This is a security feature which was implemented on this contract. It is not possible for the owner of this contract or anyone else to transfer the tokens which belong to others."
      },
      "grantPremiumMembership(address)": {
        "notice": "Allows the owner of this contract to grant users with premium membership."
      },
      "multiValueEthAirdrop(address[],uint256[],string)": {
        "notice": "Allows for the distribution of Ether to be transferred to multiple recipients at a time."
      },
      "multiValueTokenAirdrop(address,address[],uint256[],string)": {
        "notice": "Allows for the distribution of an ERC20 token to be transferred to multiple recipients at a time. This function facilitates batch transfers of differing values (i.e., all recipients can receive different amounts of tokens)."
      },
      "removeAffiliate(address)": {
        "notice": "Allows the owner of this contract to remove an affiliate partner."
      },
      "setPremiumMemberFee(uint256)": {
        "notice": "Allows the owner of this contract to change the fee for users to become premium members."
      },
      "setRate(uint256)": {
        "notice": "Allows for the price of drops to be changed by the owner of the contract. Any attempt made by any other account to invoke the function will result in a loss of gas and the price will remain untampered."
      },
      "singleValueEthAirrop(address[],uint256,string)": {
        "notice": "Allows for the distribution of Ether to be transferred to multiple recipients at a time. This function only facilitates batch transfers of constant values (i.e., all recipients will receive the same amount of tokens)."
      },
      "singleValueTokenAirdrop(address,address[],uint256,string)": {
        "notice": "Allows for the distribution of an ERC20 token to be transferred to multiple recipients at a time. This function only facilitates batch transfers of constant values (i.e., all recipients will receive the same amount of tokens)."
      },
      "tokenHasFreeTrial(address)": {
        "notice": "Checks whether or not an ERC20 token has used its free trial of 100 drops. This is a constant function which does not alter the state of the contract and therefore does not require any gas or a signature to be executed."
      },
      "withdrawERC20Tokens(address,address,uint256)": {
        "notice": "Allows for any ERC20 tokens which have been mistakenly  sent to this contract to be returned to the original sender by the owner of the contract. Any attempt made by any other account to invoke the function will result in a loss of gas and no tokens will be transferred out."
      }
    },
    "version": 1
  }
}