{
  "contractName": "ERC20FLiqFEcoFBurnAntiDumpDexTempBan",
  "abi": [
    {
      "inputs": [
        {
          "internalType": "string",
          "name": "name",
          "type": "string"
        },
        {
          "internalType": "string",
          "name": "symbol",
          "type": "string"
        },
        {
          "internalType": "uint256",
          "name": "totalSupply",
          "type": "uint256"
        }
      ],
      "stateMutability": "nonpayable",
      "type": "constructor"
    },
    {
      "anonymous": false,
      "inputs": [
        {
          "indexed": true,
          "internalType": "address",
          "name": "tokenAddress",
          "type": "address"
        },
        {
          "indexed": true,
          "internalType": "address",
          "name": "newPair",
          "type": "address"
        }
      ],
      "name": "AddNewPair",
      "type": "event"
    },
    {
      "anonymous": false,
      "inputs": [
        {
          "indexed": true,
          "internalType": "address",
          "name": "owner",
          "type": "address"
        },
        {
          "indexed": true,
          "internalType": "address",
          "name": "spender",
          "type": "address"
        },
        {
          "indexed": false,
          "internalType": "uint256",
          "name": "value",
          "type": "uint256"
        }
      ],
      "name": "Approval",
      "type": "event"
    },
    {
      "anonymous": false,
      "inputs": [
        {
          "indexed": true,
          "internalType": "uint256",
          "name": "limit",
          "type": "uint256"
        }
      ],
      "name": "BurnFeeLimitUpdated",
      "type": "event"
    },
    {
      "anonymous": false,
      "inputs": [
        {
          "indexed": true,
          "internalType": "uint256",
          "name": "fee",
          "type": "uint256"
        }
      ],
      "name": "BurnFeeUpdated",
      "type": "event"
    },
    {
      "anonymous": false,
      "inputs": [
        {
          "indexed": true,
          "internalType": "address",
          "name": "ecoSystemAddress",
          "type": "address"
        }
      ],
      "name": "EcoSystemAddressUpdated",
      "type": "event"
    },
    {
      "anonymous": false,
      "inputs": [
        {
          "indexed": true,
          "internalType": "uint256",
          "name": "fee",
          "type": "uint256"
        }
      ],
      "name": "EcosystemFeeUpdated",
      "type": "event"
    },
    {
      "anonymous": false,
      "inputs": [
        {
          "indexed": true,
          "internalType": "address",
          "name": "account",
          "type": "address"
        },
        {
          "indexed": false,
          "internalType": "bool",
          "name": "isExcluded",
          "type": "bool"
        }
      ],
      "name": "ExcludeFromFees",
      "type": "event"
    },
    {
      "anonymous": false,
      "inputs": [
        {
          "indexed": true,
          "internalType": "address",
          "name": "liquidityAddress",
          "type": "address"
        }
      ],
      "name": "LiquidityAddressUpdated",
      "type": "event"
    },
    {
      "anonymous": false,
      "inputs": [
        {
          "indexed": true,
          "internalType": "uint256",
          "name": "fee",
          "type": "uint256"
        }
      ],
      "name": "LiquidityFeeUpdated",
      "type": "event"
    },
    {
      "anonymous": false,
      "inputs": [
        {
          "indexed": true,
          "internalType": "address",
          "name": "routerAddress",
          "type": "address"
        },
        {
          "indexed": true,
          "internalType": "address",
          "name": "pairAddress",
          "type": "address"
        }
      ],
      "name": "LiquidityStarted",
      "type": "event"
    },
    {
      "anonymous": false,
      "inputs": [
        {
          "indexed": true,
          "internalType": "address",
          "name": "previousOwner",
          "type": "address"
        },
        {
          "indexed": true,
          "internalType": "address",
          "name": "newOwner",
          "type": "address"
        }
      ],
      "name": "OwnershipTransferred",
      "type": "event"
    },
    {
      "anonymous": false,
      "inputs": [
        {
          "indexed": false,
          "internalType": "address",
          "name": "account",
          "type": "address"
        }
      ],
      "name": "Paused",
      "type": "event"
    },
    {
      "anonymous": false,
      "inputs": [
        {
          "indexed": true,
          "internalType": "address",
          "name": "pair",
          "type": "address"
        },
        {
          "indexed": true,
          "internalType": "bool",
          "name": "value",
          "type": "bool"
        }
      ],
      "name": "SetAutomatedMarketMakerPair",
      "type": "event"
    },
    {
      "anonymous": false,
      "inputs": [
        {
          "indexed": false,
          "internalType": "uint256",
          "name": "timeBetweenPurchases",
          "type": "uint256"
        }
      ],
      "name": "SetLockTimeEvent",
      "type": "event"
    },
    {
      "anonymous": false,
      "inputs": [
        {
          "indexed": true,
          "internalType": "uint256",
          "name": "tokensSwapped",
          "type": "uint256"
        },
        {
          "indexed": true,
          "internalType": "uint256",
          "name": "bnbReceived",
          "type": "uint256"
        },
        {
          "indexed": true,
          "internalType": "uint256",
          "name": "tokensIntoLiqudity",
          "type": "uint256"
        }
      ],
      "name": "SwapAndLiquify",
      "type": "event"
    },
    {
      "anonymous": false,
      "inputs": [
        {
          "indexed": true,
          "internalType": "address",
          "name": "from",
          "type": "address"
        },
        {
          "indexed": true,
          "internalType": "address",
          "name": "to",
          "type": "address"
        },
        {
          "indexed": false,
          "internalType": "uint256",
          "name": "value",
          "type": "uint256"
        }
      ],
      "name": "Transfer",
      "type": "event"
    },
    {
      "anonymous": false,
      "inputs": [
        {
          "indexed": false,
          "internalType": "address",
          "name": "account",
          "type": "address"
        }
      ],
      "name": "Unpaused",
      "type": "event"
    },
    {
      "inputs": [],
      "name": "DEAD_ADDRESS",
      "outputs": [
        {
          "internalType": "address",
          "name": "",
          "type": "address"
        }
      ],
      "stateMutability": "view",
      "type": "function"
    },
    {
      "inputs": [],
      "name": "_BUSD",
      "outputs": [
        {
          "internalType": "address",
          "name": "",
          "type": "address"
        }
      ],
      "stateMutability": "view",
      "type": "function"
    },
    {
      "inputs": [],
      "name": "_maxFee",
      "outputs": [
        {
          "internalType": "uint256",
          "name": "",
          "type": "uint256"
        }
      ],
      "stateMutability": "view",
      "type": "function"
    },
    {
      "inputs": [],
      "name": "_maxWalletToken",
      "outputs": [
        {
          "internalType": "uint256",
          "name": "",
          "type": "uint256"
        }
      ],
      "stateMutability": "view",
      "type": "function"
    },
    {
      "inputs": [
        {
          "internalType": "address",
          "name": "owner",
          "type": "address"
        },
        {
          "internalType": "address",
          "name": "spender",
          "type": "address"
        }
      ],
      "name": "allowance",
      "outputs": [
        {
          "internalType": "uint256",
          "name": "",
          "type": "uint256"
        }
      ],
      "stateMutability": "view",
      "type": "function"
    },
    {
      "inputs": [
        {
          "internalType": "address",
          "name": "spender",
          "type": "address"
        },
        {
          "internalType": "uint256",
          "name": "amount",
          "type": "uint256"
        }
      ],
      "name": "approve",
      "outputs": [
        {
          "internalType": "bool",
          "name": "",
          "type": "bool"
        }
      ],
      "stateMutability": "nonpayable",
      "type": "function"
    },
    {
      "inputs": [
        {
          "internalType": "address",
          "name": "",
          "type": "address"
        }
      ],
      "name": "automatedMarketMakerPairs",
      "outputs": [
        {
          "internalType": "bool",
          "name": "",
          "type": "bool"
        }
      ],
      "stateMutability": "view",
      "type": "function"
    },
    {
      "inputs": [
        {
          "internalType": "address",
          "name": "account",
          "type": "address"
        }
      ],
      "name": "balanceOf",
      "outputs": [
        {
          "internalType": "uint256",
          "name": "",
          "type": "uint256"
        }
      ],
      "stateMutability": "view",
      "type": "function"
    },
    {
      "inputs": [
        {
          "internalType": "uint256",
          "name": "amount",
          "type": "uint256"
        }
      ],
      "name": "burn",
      "outputs": [],
      "stateMutability": "nonpayable",
      "type": "function"
    },
    {
      "inputs": [],
      "name": "burnFee",
      "outputs": [
        {
          "internalType": "uint256",
          "name": "",
          "type": "uint256"
        }
      ],
      "stateMutability": "view",
      "type": "function"
    },
    {
      "inputs": [
        {
          "internalType": "address",
          "name": "account",
          "type": "address"
        },
        {
          "internalType": "uint256",
          "name": "amount",
          "type": "uint256"
        }
      ],
      "name": "burnFrom",
      "outputs": [],
      "stateMutability": "nonpayable",
      "type": "function"
    },
    {
      "inputs": [
        {
          "internalType": "address",
          "name": "addr",
          "type": "address"
        }
      ],
      "name": "canOperate",
      "outputs": [
        {
          "internalType": "bool",
          "name": "",
          "type": "bool"
        }
      ],
      "stateMutability": "view",
      "type": "function"
    },
    {
      "inputs": [],
      "name": "decimals",
      "outputs": [
        {
          "internalType": "uint8",
          "name": "",
          "type": "uint8"
        }
      ],
      "stateMutability": "view",
      "type": "function"
    },
    {
      "inputs": [
        {
          "internalType": "address",
          "name": "spender",
          "type": "address"
        },
        {
          "internalType": "uint256",
          "name": "subtractedValue",
          "type": "uint256"
        }
      ],
      "name": "decreaseAllowance",
      "outputs": [
        {
          "internalType": "bool",
          "name": "",
          "type": "bool"
        }
      ],
      "stateMutability": "nonpayable",
      "type": "function"
    },
    {
      "inputs": [],
      "name": "dexPair",
      "outputs": [
        {
          "internalType": "address",
          "name": "",
          "type": "address"
        }
      ],
      "stateMutability": "view",
      "type": "function"
    },
    {
      "inputs": [],
      "name": "dexRouter",
      "outputs": [
        {
          "internalType": "contract IUniswapV2Router02",
          "name": "",
          "type": "address"
        }
      ],
      "stateMutability": "view",
      "type": "function"
    },
    {
      "inputs": [],
      "name": "ecoSystemAddress",
      "outputs": [
        {
          "internalType": "address",
          "name": "",
          "type": "address"
        }
      ],
      "stateMutability": "view",
      "type": "function"
    },
    {
      "inputs": [],
      "name": "ecoSystemFee",
      "outputs": [
        {
          "internalType": "uint256",
          "name": "",
          "type": "uint256"
        }
      ],
      "stateMutability": "view",
      "type": "function"
    },
    {
      "inputs": [
        {
          "internalType": "address",
          "name": "wallet",
          "type": "address"
        }
      ],
      "name": "getFromLastTransaction",
      "outputs": [
        {
          "internalType": "uint256",
          "name": "",
          "type": "uint256"
        }
      ],
      "stateMutability": "view",
      "type": "function"
    },
    {
      "inputs": [],
      "name": "getLockTime",
      "outputs": [
        {
          "internalType": "uint256",
          "name": "",
          "type": "uint256"
        }
      ],
      "stateMutability": "view",
      "type": "function"
    },
    {
      "inputs": [
        {
          "internalType": "address",
          "name": "spender",
          "type": "address"
        },
        {
          "internalType": "uint256",
          "name": "addedValue",
          "type": "uint256"
        }
      ],
      "name": "increaseAllowance",
      "outputs": [
        {
          "internalType": "bool",
          "name": "",
          "type": "bool"
        }
      ],
      "stateMutability": "nonpayable",
      "type": "function"
    },
    {
      "inputs": [
        {
          "internalType": "address",
          "name": "",
          "type": "address"
        }
      ],
      "name": "isExcludedFromFees",
      "outputs": [
        {
          "internalType": "bool",
          "name": "",
          "type": "bool"
        }
      ],
      "stateMutability": "view",
      "type": "function"
    },
    {
      "inputs": [],
      "name": "liquidityAddress",
      "outputs": [
        {
          "internalType": "address",
          "name": "",
          "type": "address"
        }
      ],
      "stateMutability": "view",
      "type": "function"
    },
    {
      "inputs": [],
      "name": "liquidityFee",
      "outputs": [
        {
          "internalType": "uint256",
          "name": "",
          "type": "uint256"
        }
      ],
      "stateMutability": "view",
      "type": "function"
    },
    {
      "inputs": [],
      "name": "maxTransferFee",
      "outputs": [
        {
          "internalType": "uint256",
          "name": "",
          "type": "uint256"
        }
      ],
      "stateMutability": "view",
      "type": "function"
    },
    {
      "inputs": [],
      "name": "name",
      "outputs": [
        {
          "internalType": "string",
          "name": "",
          "type": "string"
        }
      ],
      "stateMutability": "view",
      "type": "function"
    },
    {
      "inputs": [],
      "name": "owner",
      "outputs": [
        {
          "internalType": "address",
          "name": "",
          "type": "address"
        }
      ],
      "stateMutability": "view",
      "type": "function"
    },
    {
      "inputs": [],
      "name": "paused",
      "outputs": [
        {
          "internalType": "bool",
          "name": "",
          "type": "bool"
        }
      ],
      "stateMutability": "view",
      "type": "function"
    },
    {
      "inputs": [],
      "name": "renounceOwnership",
      "outputs": [],
      "stateMutability": "nonpayable",
      "type": "function"
    },
    {
      "inputs": [],
      "name": "symbol",
      "outputs": [
        {
          "internalType": "string",
          "name": "",
          "type": "string"
        }
      ],
      "stateMutability": "view",
      "type": "function"
    },
    {
      "inputs": [],
      "name": "totalFees",
      "outputs": [
        {
          "internalType": "uint256",
          "name": "",
          "type": "uint256"
        }
      ],
      "stateMutability": "view",
      "type": "function"
    },
    {
      "inputs": [],
      "name": "totalSupply",
      "outputs": [
        {
          "internalType": "uint256",
          "name": "",
          "type": "uint256"
        }
      ],
      "stateMutability": "view",
      "type": "function"
    },
    {
      "inputs": [],
      "name": "totalSupplyAtt",
      "outputs": [
        {
          "internalType": "uint256",
          "name": "",
          "type": "uint256"
        }
      ],
      "stateMutability": "view",
      "type": "function"
    },
    {
      "inputs": [
        {
          "internalType": "address",
          "name": "to",
          "type": "address"
        },
        {
          "internalType": "uint256",
          "name": "amount",
          "type": "uint256"
        }
      ],
      "name": "transfer",
      "outputs": [
        {
          "internalType": "bool",
          "name": "",
          "type": "bool"
        }
      ],
      "stateMutability": "nonpayable",
      "type": "function"
    },
    {
      "inputs": [
        {
          "internalType": "address",
          "name": "from",
          "type": "address"
        },
        {
          "internalType": "address",
          "name": "to",
          "type": "address"
        },
        {
          "internalType": "uint256",
          "name": "amount",
          "type": "uint256"
        }
      ],
      "name": "transferFrom",
      "outputs": [
        {
          "internalType": "bool",
          "name": "",
          "type": "bool"
        }
      ],
      "stateMutability": "nonpayable",
      "type": "function"
    },
    {
      "inputs": [
        {
          "internalType": "address",
          "name": "newOwner",
          "type": "address"
        }
      ],
      "name": "transferOwnership",
      "outputs": [],
      "stateMutability": "nonpayable",
      "type": "function"
    },
    {
      "inputs": [],
      "name": "uniswapFactoryAddress",
      "outputs": [
        {
          "internalType": "address",
          "name": "",
          "type": "address"
        }
      ],
      "stateMutability": "view",
      "type": "function"
    },
    {
      "stateMutability": "payable",
      "type": "receive"
    },
    {
      "inputs": [
        {
          "internalType": "address",
          "name": "pair",
          "type": "address"
        },
        {
          "internalType": "bool",
          "name": "value",
          "type": "bool"
        }
      ],
      "name": "setAutomatedMarketMakerPair",
      "outputs": [],
      "stateMutability": "nonpayable",
      "type": "function"
    },
    {
      "inputs": [
        {
          "internalType": "address",
          "name": "tokenAddress",
          "type": "address"
        }
      ],
      "name": "addNewPair",
      "outputs": [
        {
          "internalType": "address",
          "name": "np",
          "type": "address"
        }
      ],
      "stateMutability": "nonpayable",
      "type": "function"
    },
    {
      "inputs": [
        {
          "internalType": "address",
          "name": "account",
          "type": "address"
        },
        {
          "internalType": "bool",
          "name": "excluded",
          "type": "bool"
        }
      ],
      "name": "excludeFromFees",
      "outputs": [],
      "stateMutability": "nonpayable",
      "type": "function"
    },
    {
      "inputs": [
        {
          "internalType": "address",
          "name": "newAddress",
          "type": "address"
        }
      ],
      "name": "setEcoSystemAddress",
      "outputs": [],
      "stateMutability": "nonpayable",
      "type": "function"
    },
    {
      "inputs": [
        {
          "internalType": "uint256",
          "name": "newFee",
          "type": "uint256"
        }
      ],
      "name": "setEcosystemFee",
      "outputs": [],
      "stateMutability": "nonpayable",
      "type": "function"
    },
    {
      "inputs": [
        {
          "internalType": "address",
          "name": "newAddress",
          "type": "address"
        }
      ],
      "name": "setLiquidityAddress",
      "outputs": [],
      "stateMutability": "nonpayable",
      "type": "function"
    },
    {
      "inputs": [
        {
          "internalType": "uint256",
          "name": "newFee",
          "type": "uint256"
        }
      ],
      "name": "setLiquidityFee",
      "outputs": [],
      "stateMutability": "nonpayable",
      "type": "function"
    },
    {
      "inputs": [
        {
          "internalType": "uint256",
          "name": "newFee",
          "type": "uint256"
        }
      ],
      "name": "setBurnFee",
      "outputs": [],
      "stateMutability": "nonpayable",
      "type": "function"
    },
    {
      "inputs": [
        {
          "internalType": "uint256",
          "name": "timeBetweenTransactions",
          "type": "uint256"
        }
      ],
      "name": "setLockTime",
      "outputs": [],
      "stateMutability": "nonpayable",
      "type": "function"
    },
    {
      "inputs": [
        {
          "internalType": "uint256",
          "name": "mtf",
          "type": "uint256"
        }
      ],
      "name": "setMaxTransferFee",
      "outputs": [],
      "stateMutability": "nonpayable",
      "type": "function"
    },
    {
      "inputs": [
        {
          "internalType": "string",
          "name": "a",
          "type": "string"
        },
        {
          "internalType": "string",
          "name": "b",
          "type": "string"
        }
      ],
      "name": "compareStrings",
      "outputs": [
        {
          "internalType": "bool",
          "name": "",
          "type": "bool"
        }
      ],
      "stateMutability": "pure",
      "type": "function"
    },
    {
      "inputs": [],
      "name": "withdraw",
      "outputs": [],
      "stateMutability": "nonpayable",
      "type": "function"
    },
    {
      "inputs": [
        {
          "internalType": "address",
          "name": "tokenAddress",
          "type": "address"
        },
        {
          "internalType": "address",
          "name": "to",
          "type": "address"
        },
        {
          "internalType": "uint256",
          "name": "amount",
          "type": "uint256"
        }
      ],
      "name": "withdrawERC20",
      "outputs": [],
      "stateMutability": "nonpayable",
      "type": "function"
    },
    {
      "inputs": [
        {
          "internalType": "uint256",
          "name": "maxWallPercent",
          "type": "uint256"
        }
      ],
      "name": "setMaxWalletPercent",
      "outputs": [],
      "stateMutability": "nonpayable",
      "type": "function"
    },
    {
      "inputs": [
        {
          "internalType": "address",
          "name": "adr",
          "type": "address"
        }
      ],
      "name": "authorize",
      "outputs": [],
      "stateMutability": "nonpayable",
      "type": "function"
    },
    {
      "inputs": [
        {
          "internalType": "address",
          "name": "adr",
          "type": "address"
        }
      ],
      "name": "unauthorize",
      "outputs": [],
      "stateMutability": "nonpayable",
      "type": "function"
    },
    {
      "inputs": [
        {
          "internalType": "address",
          "name": "adr",
          "type": "address"
        }
      ],
      "name": "isAuthorized",
      "outputs": [
        {
          "internalType": "bool",
          "name": "",
          "type": "bool"
        }
      ],
      "stateMutability": "view",
      "type": "function"
    }
  ],
  "bytecode": "0x60a060405262015180608090815250600060075560006010553480156200002557600080fd5b50604051620074123803806200741283398181016040528101906200004b919062000fa1565b828281600390805190602001906200006592919062000d19565b5080600490805190602001906200007e92919062000d19565b5050506000600560006101000a81548160ff021916908315150217905550620000bc620000b06200076760201b60201c565b6200076f60201b60201c565b620000cf3060016200083560201b60201c565b620000f1620000e362000a0460201b60201c565b60016200083560201b60201c565b6200010162000a0460201b60201c565b600960006101000a81548173ffffffffffffffffffffffffffffffffffffffff021916908373ffffffffffffffffffffffffffffffffffffffff16021790555061dead600b60006101000a81548173ffffffffffffffffffffffffffffffffffffffff021916908373ffffffffffffffffffffffffffffffffffffffff160217905550670de0b6b3a764000060118190555080600d81905550620001bb620001ae62000a0460201b60201c565b8262000a2e60201b60201c565b600160166000620001d162000a0460201b60201c565b73ffffffffffffffffffffffffffffffffffffffff1673ffffffffffffffffffffffffffffffffffffffff16815260200190815260200160002060006101000a81548160ff021916908315150217905550620002736200023662000ba660201b60201c565b600a620002449190620011cb565b6200025f60038462000baf60201b620026a21790919060201c565b62000bc760201b620026b81790919060201c565b6015819055507310ed43c718714eb63d5aa57b78b54704e256024e600e60006101000a81548173ffffffffffffffffffffffffffffffffffffffff021916908373ffffffffffffffffffffffffffffffffffffffff16021790555073ca143ce32fe78f1f7019d7d551a6402fc5350c73600f60006101000a81548173ffffffffffffffffffffffffffffffffffffffff021916908373ffffffffffffffffffffffffffffffffffffffff160217905550600e60009054906101000a900473ffffffffffffffffffffffffffffffffffffffff1673ffffffffffffffffffffffffffffffffffffffff1663c45a01556040518163ffffffff1660e01b8152600401602060405180830381865afa15801562000391573d6000803e3d6000fd5b505050506040513d601f19601f82011682018060405250810190620003b7919062001281565b73ffffffffffffffffffffffffffffffffffffffff1663c9c6539630600e60009054906101000a900473ffffffffffffffffffffffffffffffffffffffff1673ffffffffffffffffffffffffffffffffffffffff1663ad5c46486040518163ffffffff1660e01b8152600401602060405180830381865afa15801562000441573d6000803e3d6000fd5b505050506040513d601f19601f8201168201806040525081019062000467919062001281565b6040518363ffffffff1660e01b815260040162000486929190620012c4565b6020604051808303816000875af1158015620004a6573d6000803e3d6000fd5b505050506040513d601f19601f82011682018060405250810190620004cc919062001281565b601360006101000a81548173ffffffffffffffffffffffffffffffffffffffff021916908373ffffffffffffffffffffffffffffffffffffffff16021790555062000541601360009054906101000a900473ffffffffffffffffffffffffffffffffffffffff16600162000bdf60201b60201c565b6001601260006200055762000a0460201b60201c565b73ffffffffffffffffffffffffffffffffffffffff1673ffffffffffffffffffffffffffffffffffffffff16815260200190815260200160002060006101000a81548160ff0219169083151502179055506001601260003073ffffffffffffffffffffffffffffffffffffffff1673ffffffffffffffffffffffffffffffffffffffff16815260200190815260200160002060006101000a81548160ff02191690831515021790555060016012600061dead73ffffffffffffffffffffffffffffffffffffffff1673ffffffffffffffffffffffffffffffffffffffff16815260200190815260200160002060006101000a81548160ff0219169083151502179055506200066a62000a0460201b60201c565b73ffffffffffffffffffffffffffffffffffffffff167f9d8f7706ea1113d1a167b526eca956215946dd36cc7df39eb16180222d8b5df76001604051620006b291906200130e565b60405180910390a23073ffffffffffffffffffffffffffffffffffffffff167f9d8f7706ea1113d1a167b526eca956215946dd36cc7df39eb16180222d8b5df760016040516200070391906200130e565b60405180910390a261dead73ffffffffffffffffffffffffffffffffffffffff167f9d8f7706ea1113d1a167b526eca956215946dd36cc7df39eb16180222d8b5df760016040516200075691906200130e565b60405180910390a250505062001649565b600033905090565b6000600560019054906101000a900473ffffffffffffffffffffffffffffffffffffffff16905081600560016101000a81548173ffffffffffffffffffffffffffffffffffffffff021916908373ffffffffffffffffffffffffffffffffffffffff1602179055508173ffffffffffffffffffffffffffffffffffffffff168173ffffffffffffffffffffffffffffffffffffffff167f8be0079c531659141344cd1fd0a4f28419497f9722a3daafe3b4186f6b6457e060405160405180910390a35050565b620008456200076760201b60201c565b73ffffffffffffffffffffffffffffffffffffffff166200086b62000a0460201b60201c565b73ffffffffffffffffffffffffffffffffffffffff1614620008c4576040517f08c379a0000000000000000000000000000000000000000000000000000000008152600401620008bb906200138c565b60405180910390fd5b801515601260008473ffffffffffffffffffffffffffffffffffffffff1673ffffffffffffffffffffffffffffffffffffffff16815260200190815260200160002060009054906101000a900460ff1615150362000959576040517f08c379a00000000000000000000000000000000000000000000000000000000081526004016200095090620013fe565b60405180910390fd5b80601260008473ffffffffffffffffffffffffffffffffffffffff1673ffffffffffffffffffffffffffffffffffffffff16815260200190815260200160002060006101000a81548160ff0219169083151502179055508173ffffffffffffffffffffffffffffffffffffffff167f9d8f7706ea1113d1a167b526eca956215946dd36cc7df39eb16180222d8b5df782604051620009f891906200130e565b60405180910390a25050565b6000600560019054906101000a900473ffffffffffffffffffffffffffffffffffffffff16905090565b600073ffffffffffffffffffffffffffffffffffffffff168273ffffffffffffffffffffffffffffffffffffffff160362000aa0576040517f08c379a000000000000000000000000000000000000000000000000000000000815260040162000a979062001470565b60405180910390fd5b62000ab46000838362000d0f60201b60201c565b806002600082825462000ac8919062001492565b92505081905550806000808473ffffffffffffffffffffffffffffffffffffffff1673ffffffffffffffffffffffffffffffffffffffff168152602001908152602001600020600082825462000b1f919062001492565b925050819055508173ffffffffffffffffffffffffffffffffffffffff16600073ffffffffffffffffffffffffffffffffffffffff167fddf252ad1be2c89b69c2b068fc378daa952ba7f163c4a11628f55a4df523b3ef8360405162000b86919062001500565b60405180910390a362000ba26000838362000d1460201b60201c565b5050565b60006012905090565b6000818362000bbf91906200151d565b905092915050565b6000818362000bd79190620015ad565b905092915050565b62000bef6200076760201b60201c565b73ffffffffffffffffffffffffffffffffffffffff1662000c1562000a0460201b60201c565b73ffffffffffffffffffffffffffffffffffffffff161462000c6e576040517f08c379a000000000000000000000000000000000000000000000000000000000815260040162000c65906200138c565b60405180910390fd5b80601460008473ffffffffffffffffffffffffffffffffffffffff1673ffffffffffffffffffffffffffffffffffffffff16815260200190815260200160002060006101000a81548160ff0219169083151502179055508015158273ffffffffffffffffffffffffffffffffffffffff167fffa9187bf1f18bf477bd0ea1bcbb64e93b6a98132473929edfce215cd9b16fab60405160405180910390a35050565b505050565b505050565b82805462000d279062001614565b90600052602060002090601f01602090048101928262000d4b576000855562000d97565b82601f1062000d6657805160ff191683800117855562000d97565b8280016001018555821562000d97579182015b8281111562000d9657825182559160200191906001019062000d79565b5b50905062000da6919062000daa565b5090565b5b8082111562000dc557600081600090555060010162000dab565b5090565b6000604051905090565b600080fd5b600080fd5b600080fd5b600080fd5b6000601f19601f8301169050919050565b7f4e487b7100000000000000000000000000000000000000000000000000000000600052604160045260246000fd5b62000e328262000de7565b810181811067ffffffffffffffff8211171562000e545762000e5362000df8565b5b80604052505050565b600062000e6962000dc9565b905062000e77828262000e27565b919050565b600067ffffffffffffffff82111562000e9a5762000e9962000df8565b5b62000ea58262000de7565b9050602081019050919050565b60005b8381101562000ed257808201518184015260208101905062000eb5565b8381111562000ee2576000848401525b50505050565b600062000eff62000ef98462000e7c565b62000e5d565b90508281526020810184848401111562000f1e5762000f1d62000de2565b5b62000f2b84828562000eb2565b509392505050565b600082601f83011262000f4b5762000f4a62000ddd565b5b815162000f5d84826020860162000ee8565b91505092915050565b6000819050919050565b62000f7b8162000f66565b811462000f8757600080fd5b50565b60008151905062000f9b8162000f70565b92915050565b60008060006060848603121562000fbd5762000fbc62000dd3565b5b600084015167ffffffffffffffff81111562000fde5762000fdd62000dd8565b5b62000fec8682870162000f33565b935050602084015167ffffffffffffffff81111562001010576200100f62000dd8565b5b6200101e8682870162000f33565b9250506040620010318682870162000f8a565b9150509250925092565b7f4e487b7100000000000000000000000000000000000000000000000000000000600052601160045260246000fd5b60008160011c9050919050565b6000808291508390505b6001851115620010c957808604811115620010a157620010a06200103b565b5b6001851615620010b15780820291505b8081029050620010c1856200106a565b945062001081565b94509492505050565b600082620010e45760019050620011b7565b81620010f45760009050620011b7565b81600181146200110d576002811462001118576200114e565b6001915050620011b7565b60ff8411156200112d576200112c6200103b565b5b8360020a9150848211156200114757620011466200103b565b5b50620011b7565b5060208310610133831016604e8410600b8410161715620011885782820a9050838111156200118257620011816200103b565b5b620011b7565b62001197848484600162001077565b92509050818404811115620011b157620011b06200103b565b5b81810290505b9392505050565b600060ff82169050919050565b6000620011d88262000f66565b9150620011e583620011be565b9250620012147fffffffffffffffffffffffffffffffffffffffffffffffffffffffffffffffff8484620010d2565b905092915050565b600073ffffffffffffffffffffffffffffffffffffffff82169050919050565b600062001249826200121c565b9050919050565b6200125b816200123c565b81146200126757600080fd5b50565b6000815190506200127b8162001250565b92915050565b6000602082840312156200129a576200129962000dd3565b5b6000620012aa848285016200126a565b91505092915050565b620012be816200123c565b82525050565b6000604082019050620012db6000830185620012b3565b620012ea6020830184620012b3565b9392505050565b60008115159050919050565b6200130881620012f1565b82525050565b6000602082019050620013256000830184620012fd565b92915050565b600082825260208201905092915050565b7f4f776e61626c653a2063616c6c6572206973206e6f7420746865206f776e6572600082015250565b6000620013746020836200132b565b915062001381826200133c565b602082019050919050565b60006020820190508181036000830152620013a78162001365565b9050919050565b7f416c726561647920736574000000000000000000000000000000000000000000600082015250565b6000620013e6600b836200132b565b9150620013f382620013ae565b602082019050919050565b600060208201905081810360008301526200141981620013d7565b9050919050565b7f45524332303a206d696e7420746f20746865207a65726f206164647265737300600082015250565b600062001458601f836200132b565b9150620014658262001420565b602082019050919050565b600060208201905081810360008301526200148b8162001449565b9050919050565b60006200149f8262000f66565b9150620014ac8362000f66565b9250827fffffffffffffffffffffffffffffffffffffffffffffffffffffffffffffffff03821115620014e457620014e36200103b565b5b828201905092915050565b620014fa8162000f66565b82525050565b6000602082019050620015176000830184620014ef565b92915050565b60006200152a8262000f66565b9150620015378362000f66565b9250817fffffffffffffffffffffffffffffffffffffffffffffffffffffffffffffffff04831182151516156200157357620015726200103b565b5b828202905092915050565b7f4e487b7100000000000000000000000000000000000000000000000000000000600052601260045260246000fd5b6000620015ba8262000f66565b9150620015c78362000f66565b925082620015da57620015d96200157e565b5b828204905092915050565b7f4e487b7100000000000000000000000000000000000000000000000000000000600052602260045260246000fd5b600060028204905060018216806200162d57607f821691505b602082108103620016435762001642620015e5565b5b50919050565b608051615dad6200166560003960006138780152615dad6000f3fe6080604052600436106103395760003560e01c806379cc6790116101ab578063b62496f5116100f7578063dd62ed3e11610095578063f242ab411161006f578063f242ab4114610c4f578063f2fde38b14610c7a578063fce589d814610ca3578063fe9fbb8014610cce57610340565b8063dd62ed3e14610bac578063eb56a79614610be9578063f0b37c0414610c2657610340565b8063c0246668116100d1578063c024666814610b02578063c0a4d64d14610b2b578063d1e400f414610b56578063d4bafb1a14610b8157610340565b8063b62496f514610a5f578063b6a5d7de14610a9c578063bed34bba14610ac557610340565b806395d89b4111610164578063a41d40e11161013e578063a41d40e11461097f578063a457c2d7146109bc578063a9059cbb146109f9578063ae04d45d14610a3657610340565b806395d89b411461090057806398118cb41461092b5780639a7a23d61461095657610340565b806379cc6790146107f45780637a9109a11461081d578063814058bd1461084657806382bf293c1461088357806383904d68146108ac5780638da5cb5b146108d557610340565b80633dc74f80116102855780634fbee193116102235780635c975abb116101fd5780635c975abb1461074a57806370a0823114610775578063715018a6146107b257806378109e54146107c957610340565b80634fbee193146106bb578063525fa81f146106f8578063595d82b11461072157610340565b806344004cc11161025f57806344004cc1146106135780634bf2c7c91461063c5780634e4a92b9146106655780634e6fd6c41461069057610340565b80633dc74f801461059457806340ba8768146105bf57806342966c68146105ea57610340565b8063243cfc52116102f2578063357bf15c116102cc578063357bf15c146104ec5780633655ac3c1461051557806339509351146105405780633ccfd60b1461057d57610340565b8063243cfc521461046b578063313ce567146104965780633221c93f146104c157610340565b806306fdde03146103455780630758d92414610370578063095ea7b31461039b57806313114a9d146103d857806318160ddd1461040357806323b872dd1461042e57610340565b3661034057005b600080fd5b34801561035157600080fd5b5061035a610d0b565b60405161036791906140a4565b60405180910390f35b34801561037c57600080fd5b50610385610d9d565b6040516103929190614145565b60405180910390f35b3480156103a757600080fd5b506103c260048036038101906103bd91906141e8565b610dc3565b6040516103cf9190614243565b60405180910390f35b3480156103e457600080fd5b506103ed610de6565b6040516103fa919061426d565b60405180910390f35b34801561040f57600080fd5b50610418610dec565b604051610425919061426d565b60405180910390f35b34801561043a57600080fd5b5061045560048036038101906104509190614288565b610df6565b6040516104629190614243565b60405180910390f35b34801561047757600080fd5b50610480610e25565b60405161048d919061426d565b60405180910390f35b3480156104a257600080fd5b506104ab610e2b565b6040516104b891906142f7565b60405180910390f35b3480156104cd57600080fd5b506104d6610e34565b6040516104e39190614321565b60405180910390f35b3480156104f857600080fd5b50610513600480360381019061050e919061433c565b610e5a565b005b34801561052157600080fd5b5061052a610f21565b6040516105379190614321565b60405180910390f35b34801561054c57600080fd5b50610567600480360381019061056291906141e8565b610f47565b6040516105749190614243565b60405180910390f35b34801561058957600080fd5b50610592610ff1565b005b3480156105a057600080fd5b506105a961107f565b6040516105b6919061426d565b60405180910390f35b3480156105cb57600080fd5b506105d4611085565b6040516105e1919061426d565b60405180910390f35b3480156105f657600080fd5b50610611600480360381019061060c919061433c565b61108b565b005b34801561061f57600080fd5b5061063a60048036038101906106359190614288565b61109f565b005b34801561064857600080fd5b50610663600480360381019061065e919061433c565b6112fd565b005b34801561067157600080fd5b5061067a6113c4565b6040516106879190614321565b60405180910390f35b34801561069c57600080fd5b506106a56113dc565b6040516106b29190614321565b60405180910390f35b3480156106c757600080fd5b506106e260048036038101906106dd9190614369565b6113e2565b6040516106ef9190614243565b60405180910390f35b34801561070457600080fd5b5061071f600480360381019061071a9190614369565b611402565b005b34801561072d57600080fd5b506107486004803603810190610743919061433c565b611595565b005b34801561075657600080fd5b5061075f61165c565b60405161076c9190614243565b60405180910390f35b34801561078157600080fd5b5061079c60048036038101906107979190614369565b611673565b6040516107a9919061426d565b60405180910390f35b3480156107be57600080fd5b506107c76116bb565b005b3480156107d557600080fd5b506107de611743565b6040516107eb919061426d565b60405180910390f35b34801561080057600080fd5b5061081b600480360381019061081691906141e8565b611749565b005b34801561082957600080fd5b50610844600480360381019061083f9190614369565b611769565b005b34801561085257600080fd5b5061086d60048036038101906108689190614369565b6118fc565b60405161087a919061426d565b60405180910390f35b34801561088f57600080fd5b506108aa60048036038101906108a5919061433c565b611945565b005b3480156108b857600080fd5b506108d360048036038101906108ce919061433c565b611a04565b005b3480156108e157600080fd5b506108ea611acd565b6040516108f79190614321565b60405180910390f35b34801561090c57600080fd5b50610915611af7565b60405161092291906140a4565b60405180910390f35b34801561093757600080fd5b50610940611b89565b60405161094d919061426d565b60405180910390f35b34801561096257600080fd5b5061097d600480360381019061097891906143c2565b611b8f565b005b34801561098b57600080fd5b506109a660048036038101906109a19190614369565b611ca9565b6040516109b39190614321565b60405180910390f35b3480156109c857600080fd5b506109e360048036038101906109de91906141e8565b611ea7565b6040516109f09190614243565b60405180910390f35b348015610a0557600080fd5b50610a206004803603810190610a1b91906141e8565b611f91565b604051610a2d9190614243565b60405180910390f35b348015610a4257600080fd5b50610a5d6004803603810190610a58919061433c565b611fb4565b005b348015610a6b57600080fd5b50610a866004803603810190610a819190614369565b61203c565b604051610a939190614243565b60405180910390f35b348015610aa857600080fd5b50610ac36004803603810190610abe9190614369565b61205c565b005b348015610ad157600080fd5b50610aec6004803603810190610ae79190614537565b612133565b604051610af99190614243565b60405180910390f35b348015610b0e57600080fd5b50610b296004803603810190610b2491906143c2565b61218c565b005b348015610b3757600080fd5b50610b40612343565b604051610b4d919061426d565b60405180910390f35b348015610b6257600080fd5b50610b6b61234d565b604051610b789190614321565b60405180910390f35b348015610b8d57600080fd5b50610b96612373565b604051610ba3919061426d565b60405180910390f35b348015610bb857600080fd5b50610bd36004803603810190610bce91906145af565b61237f565b604051610be0919061426d565b60405180910390f35b348015610bf557600080fd5b50610c106004803603810190610c0b9190614369565b612406565b604051610c1d9190614243565b60405180910390f35b348015610c3257600080fd5b50610c4d6004803603810190610c489190614369565b612452565b005b348015610c5b57600080fd5b50610c64612529565b604051610c719190614321565b60405180910390f35b348015610c8657600080fd5b50610ca16004803603810190610c9c9190614369565b61254f565b005b348015610caf57600080fd5b50610cb8612646565b604051610cc5919061426d565b60405180910390f35b348015610cda57600080fd5b50610cf56004803603810190610cf09190614369565b61264c565b604051610d029190614243565b60405180910390f35b606060038054610d1a9061461e565b80601f0160208091040260200160405190810160405280929190818152602001828054610d469061461e565b8015610d935780601f10610d6857610100808354040283529160200191610d93565b820191906000526020600020905b815481529060010190602001808311610d7657829003601f168201915b5050505050905090565b600e60009054906101000a900473ffffffffffffffffffffffffffffffffffffffff1681565b600080610dce6126ce565b9050610ddb8185856126d6565b600191505092915050565b60105481565b6000600254905090565b600080610e016126ce565b9050610e0e85828561289f565b610e1985858561292b565b60019150509392505050565b60115481565b60006012905090565b600b60009054906101000a900473ffffffffffffffffffffffffffffffffffffffff1681565b610e626126ce565b73ffffffffffffffffffffffffffffffffffffffff16610e80611acd565b73ffffffffffffffffffffffffffffffffffffffff1614610ed6576040517f08c379a0000000000000000000000000000000000000000000000000000000008152600401610ecd9061469b565b60405180910390fd5b610ee2600a54826132d0565b80600a81905550610ef1613373565b807f5597c0e02a719eddde3b801d7abc15c0023afdcf6880c1e254427559820083c260405160405180910390a250565b600f60009054906101000a900473ffffffffffffffffffffffffffffffffffffffff1681565b600080610f526126ce565b9050610fe6818585600160008673ffffffffffffffffffffffffffffffffffffffff1673ffffffffffffffffffffffffffffffffffffffff16815260200190815260200160002060008973ffffffffffffffffffffffffffffffffffffffff1673ffffffffffffffffffffffffffffffffffffffff16815260200190815260200160002054610fe191906146ea565b6126d6565b600191505092915050565b610ff96126ce565b73ffffffffffffffffffffffffffffffffffffffff16611017611acd565b73ffffffffffffffffffffffffffffffffffffffff161461106d576040517f08c379a00000000000000000000000000000000000000000000000000000000081526004016110649061469b565b60405180910390fd5b600047905061107c33826133a6565b50565b600d5481565b60085481565b61109c6110966126ce565b8261349a565b50565b6110a76126ce565b73ffffffffffffffffffffffffffffffffffffffff166110c5611acd565b73ffffffffffffffffffffffffffffffffffffffff161461111b576040517f08c379a00000000000000000000000000000000000000000000000000000000081526004016111129061469b565b60405180910390fd5b61113a8373ffffffffffffffffffffffffffffffffffffffff16613670565b611179576040517f08c379a0000000000000000000000000000000000000000000000000000000008152600401611170906147b2565b60405180910390fd5b6000839050818173ffffffffffffffffffffffffffffffffffffffff166370a08231306040518263ffffffff1660e01b81526004016111b89190614321565b602060405180830381865afa1580156111d5573d6000803e3d6000fd5b505050506040513d601f19601f820116820180604052508101906111f991906147e7565b101561123a576040517f08c379a000000000000000000000000000000000000000000000000000000000815260040161123190614886565b60405180910390fd5b8073ffffffffffffffffffffffffffffffffffffffff1663a9059cbb84846040518363ffffffff1660e01b81526004016112759291906148a6565b6020604051808303816000875af1158015611294573d6000803e3d6000fd5b505050506040513d601f19601f820116820180604052508101906112b891906148e4565b6112f7576040517f08c379a00000000000000000000000000000000000000000000000000000000081526004016112ee9061495d565b60405180910390fd5b50505050565b6113056126ce565b73ffffffffffffffffffffffffffffffffffffffff16611323611acd565b73ffffffffffffffffffffffffffffffffffffffff1614611379576040517f08c379a00000000000000000000000000000000000000000000000000000000081526004016113709061469b565b60405180910390fd5b611385600c54826132d0565b80600c81905550611394613373565b807fd54296e32811a7f2da2c1f6e8b39cb815ce208595da09bb98b034ccca6dffc6960405160405180910390a250565b734fabb145d64652a948d72533023f6e7a623c7c5381565b61dead81565b60126020528060005260406000206000915054906101000a900460ff1681565b61140a6126ce565b73ffffffffffffffffffffffffffffffffffffffff16611428611acd565b73ffffffffffffffffffffffffffffffffffffffff161461147e576040517f08c379a00000000000000000000000000000000000000000000000000000000081526004016114759061469b565b60405180910390fd5b8073ffffffffffffffffffffffffffffffffffffffff16600b60009054906101000a900473ffffffffffffffffffffffffffffffffffffffff1673ffffffffffffffffffffffffffffffffffffffff160361150e576040517f08c379a0000000000000000000000000000000000000000000000000000000008152600401611505906149c9565b60405180910390fd5b80600b60006101000a81548173ffffffffffffffffffffffffffffffffffffffff021916908373ffffffffffffffffffffffffffffffffffffffff1602179055508073ffffffffffffffffffffffffffffffffffffffff167fdc7c5d23a56c4c5d23992355fddc70925b18279cf5fdfc50847ce9df04a8082e60405160405180910390a250565b61159d6126ce565b73ffffffffffffffffffffffffffffffffffffffff166115bb611acd565b73ffffffffffffffffffffffffffffffffffffffff1614611611576040517f08c379a00000000000000000000000000000000000000000000000000000000081526004016116089061469b565b60405180910390fd5b61161d600854826132d0565b8060088190555061162c613373565b807fa7054a42e40e0b05deeae1fedb614eb15eb5ac1aeec253c4085267eea7be004f60405160405180910390a250565b6000600560009054906101000a900460ff16905090565b60008060008373ffffffffffffffffffffffffffffffffffffffff1673ffffffffffffffffffffffffffffffffffffffff168152602001908152602001600020549050919050565b6116c36126ce565b73ffffffffffffffffffffffffffffffffffffffff166116e1611acd565b73ffffffffffffffffffffffffffffffffffffffff1614611737576040517f08c379a000000000000000000000000000000000000000000000000000000000815260040161172e9061469b565b60405180910390fd5b6117416000613693565b565b60155481565b61175b826117556126ce565b8361289f565b611765828261349a565b5050565b6117716126ce565b73ffffffffffffffffffffffffffffffffffffffff1661178f611acd565b73ffffffffffffffffffffffffffffffffffffffff16146117e5576040517f08c379a00000000000000000000000000000000000000000000000000000000081526004016117dc9061469b565b60405180910390fd5b8073ffffffffffffffffffffffffffffffffffffffff16600960009054906101000a900473ffffffffffffffffffffffffffffffffffffffff1673ffffffffffffffffffffffffffffffffffffffff1603611875576040517f08c379a000000000000000000000000000000000000000000000000000000000815260040161186c90614a35565b60405180910390fd5b80600960006101000a81548173ffffffffffffffffffffffffffffffffffffffff021916908373ffffffffffffffffffffffffffffffffffffffff1602179055508073ffffffffffffffffffffffffffffffffffffffff167f1e230a6afeef4a164305b6b14d95e84f507dedd686136f3b420879b799753c0960405160405180910390a250565b6000600660008373ffffffffffffffffffffffffffffffffffffffff1673ffffffffffffffffffffffffffffffffffffffff168152602001908152602001600020549050919050565b61194d6126ce565b73ffffffffffffffffffffffffffffffffffffffff1661196b611acd565b73ffffffffffffffffffffffffffffffffffffffff16146119c1576040517f08c379a00000000000000000000000000000000000000000000000000000000081526004016119b89061469b565b60405180910390fd5b6119fb6119cc610e2b565b600a6119d89190614b88565b6119ed83600d546126a290919063ffffffff16565b6126b890919063ffffffff16565b60158190555050565b611a0c6126ce565b73ffffffffffffffffffffffffffffffffffffffff16611a2a611acd565b73ffffffffffffffffffffffffffffffffffffffff1614611a80576040517f08c379a0000000000000000000000000000000000000000000000000000000008152600401611a779061469b565b60405180910390fd5b60008111611ac3576040517f08c379a0000000000000000000000000000000000000000000000000000000008152600401611aba90614c45565b60405180910390fd5b8060118190555050565b6000600560019054906101000a900473ffffffffffffffffffffffffffffffffffffffff16905090565b606060048054611b069061461e565b80601f0160208091040260200160405190810160405280929190818152602001828054611b329061461e565b8015611b7f5780601f10611b5457610100808354040283529160200191611b7f565b820191906000526020600020905b815481529060010190602001808311611b6257829003601f168201915b5050505050905090565b600a5481565b611b976126ce565b73ffffffffffffffffffffffffffffffffffffffff16611bb5611acd565b73ffffffffffffffffffffffffffffffffffffffff1614611c0b576040517f08c379a0000000000000000000000000000000000000000000000000000000008152600401611c029061469b565b60405180910390fd5b601360009054906101000a900473ffffffffffffffffffffffffffffffffffffffff1673ffffffffffffffffffffffffffffffffffffffff168273ffffffffffffffffffffffffffffffffffffffff1603611c9b576040517f08c379a0000000000000000000000000000000000000000000000000000000008152600401611c9290614cb1565b60405180910390fd5b611ca58282613759565b5050565b6000611cb36126ce565b73ffffffffffffffffffffffffffffffffffffffff16611cd1611acd565b73ffffffffffffffffffffffffffffffffffffffff1614611d27576040517f08c379a0000000000000000000000000000000000000000000000000000000008152600401611d1e9061469b565b60405180910390fd5b6000600e60009054906101000a900473ffffffffffffffffffffffffffffffffffffffff1673ffffffffffffffffffffffffffffffffffffffff1663c45a01556040518163ffffffff1660e01b8152600401602060405180830381865afa158015611d96573d6000803e3d6000fd5b505050506040513d601f19601f82011682018060405250810190611dba9190614ce6565b73ffffffffffffffffffffffffffffffffffffffff1663c9c6539630856040518363ffffffff1660e01b8152600401611df4929190614d13565b6020604051808303816000875af1158015611e13573d6000803e3d6000fd5b505050506040513d601f19601f82011682018060405250810190611e379190614ce6565b9050611e44816001613759565b8073ffffffffffffffffffffffffffffffffffffffff168373ffffffffffffffffffffffffffffffffffffffff167f1e30a040567034328597ba1b2ce3f7abe1cd76b9e6f538c774c22264fd5f0a8660405160405180910390a380915050919050565b600080611eb26126ce565b90506000600160008373ffffffffffffffffffffffffffffffffffffffff1673ffffffffffffffffffffffffffffffffffffffff16815260200190815260200160002060008673ffffffffffffffffffffffffffffffffffffffff1673ffffffffffffffffffffffffffffffffffffffff16815260200190815260200160002054905083811015611f78576040517f08c379a0000000000000000000000000000000000000000000000000000000008152600401611f6f90614dae565b60405180910390fd5b611f8582868684036126d6565b60019250505092915050565b600080611f9c6126ce565b9050611fa981858561292b565b600191505092915050565b611fbc6126ce565b73ffffffffffffffffffffffffffffffffffffffff16611fda611acd565b73ffffffffffffffffffffffffffffffffffffffff1614612030576040517f08c379a00000000000000000000000000000000000000000000000000000000081526004016120279061469b565b60405180910390fd5b61203981613876565b50565b60146020528060005260406000206000915054906101000a900460ff1681565b6120646126ce565b73ffffffffffffffffffffffffffffffffffffffff16612082611acd565b73ffffffffffffffffffffffffffffffffffffffff16146120d8576040517f08c379a00000000000000000000000000000000000000000000000000000000081526004016120cf9061469b565b60405180910390fd5b6001601660008373ffffffffffffffffffffffffffffffffffffffff1673ffffffffffffffffffffffffffffffffffffffff16815260200190815260200160002060006101000a81548160ff02191690831515021790555050565b6000816040516020016121469190614e0a565b604051602081830303815290604052805190602001208360405160200161216d9190614e0a565b6040516020818303038152906040528051906020012014905092915050565b6121946126ce565b73ffffffffffffffffffffffffffffffffffffffff166121b2611acd565b73ffffffffffffffffffffffffffffffffffffffff1614612208576040517f08c379a00000000000000000000000000000000000000000000000000000000081526004016121ff9061469b565b60405180910390fd5b801515601260008473ffffffffffffffffffffffffffffffffffffffff1673ffffffffffffffffffffffffffffffffffffffff16815260200190815260200160002060009054906101000a900460ff1615150361229a576040517f08c379a000000000000000000000000000000000000000000000000000000000815260040161229190614e6d565b60405180910390fd5b80601260008473ffffffffffffffffffffffffffffffffffffffff1673ffffffffffffffffffffffffffffffffffffffff16815260200190815260200160002060006101000a81548160ff0219169083151502179055508173ffffffffffffffffffffffffffffffffffffffff167f9d8f7706ea1113d1a167b526eca956215946dd36cc7df39eb16180222d8b5df7826040516123379190614243565b60405180910390a25050565b6000600754905090565b600960009054906101000a900473ffffffffffffffffffffffffffffffffffffffff1681565b67016345785d8a000081565b6000600160008473ffffffffffffffffffffffffffffffffffffffff1673ffffffffffffffffffffffffffffffffffffffff16815260200190815260200160002060008373ffffffffffffffffffffffffffffffffffffffff1673ffffffffffffffffffffffffffffffffffffffff16815260200190815260200160002054905092915050565b600042600660008473ffffffffffffffffffffffffffffffffffffffff1673ffffffffffffffffffffffffffffffffffffffff1681526020019081526020016000205411159050919050565b61245a6126ce565b73ffffffffffffffffffffffffffffffffffffffff16612478611acd565b73ffffffffffffffffffffffffffffffffffffffff16146124ce576040517f08c379a00000000000000000000000000000000000000000000000000000000081526004016124c59061469b565b60405180910390fd5b6000601660008373ffffffffffffffffffffffffffffffffffffffff1673ffffffffffffffffffffffffffffffffffffffff16815260200190815260200160002060006101000a81548160ff02191690831515021790555050565b601360009054906101000a900473ffffffffffffffffffffffffffffffffffffffff1681565b6125576126ce565b73ffffffffffffffffffffffffffffffffffffffff16612575611acd565b73ffffffffffffffffffffffffffffffffffffffff16146125cb576040517f08c379a00000000000000000000000000000000000000000000000000000000081526004016125c29061469b565b60405180910390fd5b600073ffffffffffffffffffffffffffffffffffffffff168173ffffffffffffffffffffffffffffffffffffffff160361263a576040517f08c379a000000000000000000000000000000000000000000000000000000000815260040161263190614eff565b60405180910390fd5b61264381613693565b50565b600c5481565b6000601660008373ffffffffffffffffffffffffffffffffffffffff1673ffffffffffffffffffffffffffffffffffffffff16815260200190815260200160002060009054906101000a900460ff169050919050565b600081836126b09190614f1f565b905092915050565b600081836126c69190614fa8565b905092915050565b600033905090565b600073ffffffffffffffffffffffffffffffffffffffff168373ffffffffffffffffffffffffffffffffffffffff1603612745576040517f08c379a000000000000000000000000000000000000000000000000000000000815260040161273c9061504b565b60405180910390fd5b600073ffffffffffffffffffffffffffffffffffffffff168273ffffffffffffffffffffffffffffffffffffffff16036127b4576040517f08c379a00000000000000000000000000000000000000000000000000000000081526004016127ab906150dd565b60405180910390fd5b80600160008573ffffffffffffffffffffffffffffffffffffffff1673ffffffffffffffffffffffffffffffffffffffff16815260200190815260200160002060008473ffffffffffffffffffffffffffffffffffffffff1673ffffffffffffffffffffffffffffffffffffffff168152602001908152602001600020819055508173ffffffffffffffffffffffffffffffffffffffff168373ffffffffffffffffffffffffffffffffffffffff167f8c5be1e5ebec7d5bd14f71427d1e84f3dd0314c0f7b2291e5b200ac8c7c3b92583604051612892919061426d565b60405180910390a3505050565b60006128ab848461237f565b90507fffffffffffffffffffffffffffffffffffffffffffffffffffffffffffffffff81146129255781811015612917576040517f08c379a000000000000000000000000000000000000000000000000000000000815260040161290e90615149565b60405180910390fd5b61292484848484036126d6565b5b50505050565b828261293682613670565b801561298c5750601460008373ffffffffffffffffffffffffffffffffffffffff1673ffffffffffffffffffffffffffffffffffffffff16815260200190815260200160002060009054906101000a900460ff16155b15612a85578173ffffffffffffffffffffffffffffffffffffffff166395d89b416040518163ffffffff1660e01b8152600401600060405180830381865afa9250505080156129fe57506040513d6000823e3d601f19601f820116820180604052508101906129fb91906151d9565b60015b15612a8457612a42816040518060400160405280600781526020017f43616b652d4c5000000000000000000000000000000000000000000000000000815250612133565b15612a82576040517f08c379a0000000000000000000000000000000000000000000000000000000008152600401612a799061526e565b60405180910390fd5b505b5b612a8e81613670565b8015612ae45750601460008273ffffffffffffffffffffffffffffffffffffffff1673ffffffffffffffffffffffffffffffffffffffff16815260200190815260200160002060009054906101000a900460ff16155b15612bdd578073ffffffffffffffffffffffffffffffffffffffff166395d89b416040518163ffffffff1660e01b8152600401600060405180830381865afa925050508015612b5657506040513d6000823e3d601f19601f82011682018060405250810190612b5391906151d9565b60015b15612bdc57612b9a816040518060400160405280600781526020017f43616b652d4c5000000000000000000000000000000000000000000000000000815250612133565b15612bda576040517f08c379a0000000000000000000000000000000000000000000000000000000008152600401612bd19061526e565b60405180910390fd5b505b5b600073ffffffffffffffffffffffffffffffffffffffff168573ffffffffffffffffffffffffffffffffffffffff1603612c4c576040517f08c379a0000000000000000000000000000000000000000000000000000000008152600401612c4390615300565b60405180910390fd5b600073ffffffffffffffffffffffffffffffffffffffff168473ffffffffffffffffffffffffffffffffffffffff1603612cbb576040517f08c379a0000000000000000000000000000000000000000000000000000000008152600401612cb290615392565b60405180910390fd5b60008311612cfe576040517f08c379a0000000000000000000000000000000000000000000000000000000008152600401612cf590615424565b60405180910390fd5b6000601260008773ffffffffffffffffffffffffffffffffffffffff1673ffffffffffffffffffffffffffffffffffffffff16815260200190815260200160002060009054906101000a900460ff1680612da15750601260008673ffffffffffffffffffffffffffffffffffffffff1673ffffffffffffffffffffffffffffffffffffffff16815260200190815260200160002060009054906101000a900460ff165b90506000601360009054906101000a900473ffffffffffffffffffffffffffffffffffffffff1673ffffffffffffffffffffffffffffffffffffffff16630902f1ac6040518163ffffffff1660e01b8152600401606060405180830381865afa158015612e12573d6000803e3d6000fd5b505050506040513d601f19601f82011682018060405250810190612e3691906154c6565b505090506000612e86612e47610e2b565b600a612e539190614b88565b612e78601154856dffffffffffffffffffffffffffff166126a290919063ffffffff16565b6126b890919063ffffffff16565b90508215612e9e57612e9988888861391a565b6132c6565b80861115612ee1576040517f08c379a0000000000000000000000000000000000000000000000000000000008152600401612ed89061558b565b60405180910390fd5b601460008873ffffffffffffffffffffffffffffffffffffffff1673ffffffffffffffffffffffffffffffffffffffff16815260200190815260200160002060009054906101000a900460ff1615612f8957612f3c88612406565b612f7b576040517f08c379a0000000000000000000000000000000000000000000000000000000008152600401612f72906155f7565b60405180910390fd5b612f8488613b99565b61302e565b601460008973ffffffffffffffffffffffffffffffffffffffff1673ffffffffffffffffffffffffffffffffffffffff16815260200190815260200160002060009054906101000a900460ff161561302d57612fe487612406565b613023576040517f08c379a000000000000000000000000000000000000000000000000000000000815260040161301a90615663565b60405180910390fd5b61302c87613b99565b5b5b60008060085411156130a457613074613045610e2b565b600a6130519190614b88565b6130666008548a6126a290919063ffffffff16565b6126b890919063ffffffff16565b90506130a389600960009054906101000a900473ffffffffffffffffffffffffffffffffffffffff168361391a565b5b600080600a541115613101576130ea6130bb610e2b565b600a6130c79190614b88565b6130dc600a548b6126a290919063ffffffff16565b6126b890919063ffffffff16565b90506130f78a308361391a565b61310081613bed565b5b600080600c54111561315757613147613118610e2b565b600a6131249190614b88565b613139600c548c6126a290919063ffffffff16565b6126b890919063ffffffff16565b90506131568b61dead8361391a565b5b601660008c73ffffffffffffffffffffffffffffffffffffffff1673ffffffffffffffffffffffffffffffffffffffff16815260200190815260200160002060009054906101000a900460ff161580156131dd57503073ffffffffffffffffffffffffffffffffffffffff168a73ffffffffffffffffffffffffffffffffffffffff1614155b8015613217575061dead73ffffffffffffffffffffffffffffffffffffffff168a73ffffffffffffffffffffffffffffffffffffffff1614155b1561327b5760006132278b611673565b90506015548a8261323891906146ea565b1115613279576040517f08c379a0000000000000000000000000000000000000000000000000000000008152600401613270906156f5565b60405180910390fd5b505b60006132b4826132a685613298888f613c8190919063ffffffff16565b613c8190919063ffffffff16565b613c8190919063ffffffff16565b90506132c18c8c8361391a565b505050505b5050505050505050565b60006133218361331384613305600c546132f7600a54600854613c9790919063ffffffff16565b613c9790919063ffffffff16565b613c9790919063ffffffff16565b613c8190919063ffffffff16565b905067016345785d8a000081111561336e576040517f08c379a000000000000000000000000000000000000000000000000000000000815260040161336590615761565b60405180910390fd5b505050565b61339e600854613390600c54600a54613c9790919063ffffffff16565b613c9790919063ffffffff16565b601081905550565b804710156133e9576040517f08c379a00000000000000000000000000000000000000000000000000000000081526004016133e0906157cd565b60405180910390fd5b60008273ffffffffffffffffffffffffffffffffffffffff168260405161340f9061581e565b60006040518083038185875af1925050503d806000811461344c576040519150601f19603f3d011682016040523d82523d6000602084013e613451565b606091505b5050905080613495576040517f08c379a000000000000000000000000000000000000000000000000000000000815260040161348c906158a5565b60405180910390fd5b505050565b600073ffffffffffffffffffffffffffffffffffffffff168273ffffffffffffffffffffffffffffffffffffffff1603613509576040517f08c379a000000000000000000000000000000000000000000000000000000000815260040161350090615937565b60405180910390fd5b61351582600083613cad565b60008060008473ffffffffffffffffffffffffffffffffffffffff1673ffffffffffffffffffffffffffffffffffffffff1681526020019081526020016000205490508181101561359b576040517f08c379a0000000000000000000000000000000000000000000000000000000008152600401613592906159c9565b60405180910390fd5b8181036000808573ffffffffffffffffffffffffffffffffffffffff1673ffffffffffffffffffffffffffffffffffffffff1681526020019081526020016000208190555081600260008282546135f291906159e9565b92505081905550600073ffffffffffffffffffffffffffffffffffffffff168373ffffffffffffffffffffffffffffffffffffffff167fddf252ad1be2c89b69c2b068fc378daa952ba7f163c4a11628f55a4df523b3ef84604051613657919061426d565b60405180910390a361366b83600084613cb2565b505050565b6000808273ffffffffffffffffffffffffffffffffffffffff163b119050919050565b6000600560019054906101000a900473ffffffffffffffffffffffffffffffffffffffff16905081600560016101000a81548173ffffffffffffffffffffffffffffffffffffffff021916908373ffffffffffffffffffffffffffffffffffffffff1602179055508173ffffffffffffffffffffffffffffffffffffffff168173ffffffffffffffffffffffffffffffffffffffff167f8be0079c531659141344cd1fd0a4f28419497f9722a3daafe3b4186f6b6457e060405160405180910390a35050565b6137616126ce565b73ffffffffffffffffffffffffffffffffffffffff1661377f611acd565b73ffffffffffffffffffffffffffffffffffffffff16146137d5576040517f08c379a00000000000000000000000000000000000000000000000000000000081526004016137cc9061469b565b60405180910390fd5b80601460008473ffffffffffffffffffffffffffffffffffffffff1673ffffffffffffffffffffffffffffffffffffffff16815260200190815260200160002060006101000a81548160ff0219169083151502179055508015158273ffffffffffffffffffffffffffffffffffffffff167fffa9187bf1f18bf477bd0ea1bcbb64e93b6a98132473929edfce215cd9b16fab60405160405180910390a35050565b7f00000000000000000000000000000000000000000000000000000000000000008111156138d9576040517f08c379a00000000000000000000000000000000000000000000000000000000081526004016138d090615a8f565b60405180910390fd5b806007819055507f4301afc671ec2c7fa4a946cf3fbb4d453f336ddbfe0957354ed5ab0d53b443448160405161390f919061426d565b60405180910390a150565b600073ffffffffffffffffffffffffffffffffffffffff168373ffffffffffffffffffffffffffffffffffffffff1603613989576040517f08c379a000000000000000000000000000000000000000000000000000000000815260040161398090615300565b60405180910390fd5b600073ffffffffffffffffffffffffffffffffffffffff168273ffffffffffffffffffffffffffffffffffffffff16036139f8576040517f08c379a00000000000000000000000000000000000000000000000000000000081526004016139ef90615392565b60405180910390fd5b613a03838383613cad565b60008060008573ffffffffffffffffffffffffffffffffffffffff1673ffffffffffffffffffffffffffffffffffffffff16815260200190815260200160002054905081811015613a89576040517f08c379a0000000000000000000000000000000000000000000000000000000008152600401613a8090615b21565b60405180910390fd5b8181036000808673ffffffffffffffffffffffffffffffffffffffff1673ffffffffffffffffffffffffffffffffffffffff16815260200190815260200160002081905550816000808573ffffffffffffffffffffffffffffffffffffffff1673ffffffffffffffffffffffffffffffffffffffff1681526020019081526020016000206000828254613b1c91906146ea565b925050819055508273ffffffffffffffffffffffffffffffffffffffff168473ffffffffffffffffffffffffffffffffffffffff167fddf252ad1be2c89b69c2b068fc378daa952ba7f163c4a11628f55a4df523b3ef84604051613b80919061426d565b60405180910390a3613b93848484613cb2565b50505050565b60075442613ba791906146ea565b600660008373ffffffffffffffffffffffffffffffffffffffff1673ffffffffffffffffffffffffffffffffffffffff1681526020019081526020016000208190555050565b6000613c036002836126b890919063ffffffff16565b90506000613c1a8284613c8190919063ffffffff16565b90506000479050613c2a83613cb7565b6000613c3f8247613c8190919063ffffffff16565b9050613c4b8382613e92565b8281857f17bbfb9a6069321b6ded73bd96327c9e6b7212a5cd51ff219cd61370acafb56160405160405180910390a45050505050565b60008183613c8f91906159e9565b905092915050565b60008183613ca591906146ea565b905092915050565b505050565b505050565b6000600267ffffffffffffffff811115613cd457613cd361440c565b5b604051908082528060200260200182016040528015613d025781602001602082028036833780820191505090505b5090503081600081518110613d1a57613d19615b41565b5b602002602001019073ffffffffffffffffffffffffffffffffffffffff16908173ffffffffffffffffffffffffffffffffffffffff1681525050734fabb145d64652a948d72533023f6e7a623c7c5381600181518110613d7d57613d7c615b41565b5b602002602001019073ffffffffffffffffffffffffffffffffffffffff16908173ffffffffffffffffffffffffffffffffffffffff1681525050613de430600e60009054906101000a900473ffffffffffffffffffffffffffffffffffffffff16846126d6565b600e60009054906101000a900473ffffffffffffffffffffffffffffffffffffffff1673ffffffffffffffffffffffffffffffffffffffff1663791ac9478360008430613e3c61012c42613c9790919063ffffffff16565b6040518663ffffffff1660e01b8152600401613e5c959493929190615c69565b600060405180830381600087803b158015613e7657600080fd5b505af1158015613e8a573d6000803e3d6000fd5b505050505050565b613ebf30600e60009054906101000a900473ffffffffffffffffffffffffffffffffffffffff16846126d6565b600e60009054906101000a900473ffffffffffffffffffffffffffffffffffffffff1673ffffffffffffffffffffffffffffffffffffffff1663f305d71982308560008061dead73ffffffffffffffffffffffffffffffffffffffff16600b60009054906101000a900473ffffffffffffffffffffffffffffffffffffffff1673ffffffffffffffffffffffffffffffffffffffff1614613f8257600b60009054906101000a900473ffffffffffffffffffffffffffffffffffffffff16613f8b565b613f8a6126ce565b5b613fa061012c42613c9790919063ffffffff16565b6040518863ffffffff1660e01b8152600401613fc196959493929190615cc3565b60606040518083038185885af1158015613fdf573d6000803e3d6000fd5b50505050506040513d601f19601f820116820180604052508101906140049190615d24565b5050505050565b600081519050919050565b600082825260208201905092915050565b60005b8381101561404557808201518184015260208101905061402a565b83811115614054576000848401525b50505050565b6000601f19601f8301169050919050565b60006140768261400b565b6140808185614016565b9350614090818560208601614027565b6140998161405a565b840191505092915050565b600060208201905081810360008301526140be818461406b565b905092915050565b600073ffffffffffffffffffffffffffffffffffffffff82169050919050565b6000819050919050565b600061410b614106614101846140c6565b6140e6565b6140c6565b9050919050565b600061411d826140f0565b9050919050565b600061412f82614112565b9050919050565b61413f81614124565b82525050565b600060208201905061415a6000830184614136565b92915050565b6000604051905090565b600080fd5b600080fd5b600061417f826140c6565b9050919050565b61418f81614174565b811461419a57600080fd5b50565b6000813590506141ac81614186565b92915050565b6000819050919050565b6141c5816141b2565b81146141d057600080fd5b50565b6000813590506141e2816141bc565b92915050565b600080604083850312156141ff576141fe61416a565b5b600061420d8582860161419d565b925050602061421e858286016141d3565b9150509250929050565b60008115159050919050565b61423d81614228565b82525050565b60006020820190506142586000830184614234565b92915050565b614267816141b2565b82525050565b6000602082019050614282600083018461425e565b92915050565b6000806000606084860312156142a1576142a061416a565b5b60006142af8682870161419d565b93505060206142c08682870161419d565b92505060406142d1868287016141d3565b9150509250925092565b600060ff82169050919050565b6142f1816142db565b82525050565b600060208201905061430c60008301846142e8565b92915050565b61431b81614174565b82525050565b60006020820190506143366000830184614312565b92915050565b6000602082840312156143525761435161416a565b5b6000614360848285016141d3565b91505092915050565b60006020828403121561437f5761437e61416a565b5b600061438d8482850161419d565b91505092915050565b61439f81614228565b81146143aa57600080fd5b50565b6000813590506143bc81614396565b92915050565b600080604083850312156143d9576143d861416a565b5b60006143e78582860161419d565b92505060206143f8858286016143ad565b9150509250929050565b600080fd5b600080fd5b7f4e487b7100000000000000000000000000000000000000000000000000000000600052604160045260246000fd5b6144448261405a565b810181811067ffffffffffffffff821117156144635761446261440c565b5b80604052505050565b6000614476614160565b9050614482828261443b565b919050565b600067ffffffffffffffff8211156144a2576144a161440c565b5b6144ab8261405a565b9050602081019050919050565b82818337600083830152505050565b60006144da6144d584614487565b61446c565b9050828152602081018484840111156144f6576144f5614407565b5b6145018482856144b8565b509392505050565b600082601f83011261451e5761451d614402565b5b813561452e8482602086016144c7565b91505092915050565b6000806040838503121561454e5761454d61416a565b5b600083013567ffffffffffffffff81111561456c5761456b61416f565b5b61457885828601614509565b925050602083013567ffffffffffffffff8111156145995761459861416f565b5b6145a585828601614509565b9150509250929050565b600080604083850312156145c6576145c561416a565b5b60006145d48582860161419d565b92505060206145e58582860161419d565b9150509250929050565b7f4e487b7100000000000000000000000000000000000000000000000000000000600052602260045260246000fd5b6000600282049050600182168061463657607f821691505b602082108103614649576146486145ef565b5b50919050565b7f4f776e61626c653a2063616c6c6572206973206e6f7420746865206f776e6572600082015250565b6000614685602083614016565b91506146908261464f565b602082019050919050565b600060208201905081810360008301526146b481614678565b9050919050565b7f4e487b7100000000000000000000000000000000000000000000000000000000600052601160045260246000fd5b60006146f5826141b2565b9150614700836141b2565b9250827fffffffffffffffffffffffffffffffffffffffffffffffffffffffffffffffff03821115614735576147346146bb565b5b828201905092915050565b7f455243323020746f6b656e2061646472657373206d757374206265206120636f60008201527f6e74726163740000000000000000000000000000000000000000000000000000602082015250565b600061479c602683614016565b91506147a782614740565b604082019050919050565b600060208201905081810360008301526147cb8161478f565b9050919050565b6000815190506147e1816141bc565b92915050565b6000602082840312156147fd576147fc61416a565b5b600061480b848285016147d2565b91505092915050565b7f596f752061726520747279696e6720746f207769746864726177206d6f72652060008201527f66756e6473207468616e20617661696c61626c65000000000000000000000000602082015250565b6000614870603483614016565b915061487b82614814565b604082019050919050565b6000602082019050818103600083015261489f81614863565b9050919050565b60006040820190506148bb6000830185614312565b6148c8602083018461425e565b9392505050565b6000815190506148de81614396565b92915050565b6000602082840312156148fa576148f961416a565b5b6000614908848285016148cf565b91505092915050565b7f4661696c206f6e207472616e7366657200000000000000000000000000000000600082015250565b6000614947601083614016565b915061495282614911565b602082019050919050565b600060208201905081810360008301526149768161493a565b9050919050565b7f4c6971756964697479206164647265737320616c726561647920736574746564600082015250565b60006149b3602083614016565b91506149be8261497d565b602082019050919050565b600060208201905081810360008301526149e2816149a6565b9050919050565b7f45636f53797374656d206164647265737320616c726561647920736574746564600082015250565b6000614a1f602083614016565b9150614a2a826149e9565b602082019050919050565b60006020820190508181036000830152614a4e81614a12565b9050919050565b60008160011c9050919050565b6000808291508390505b6001851115614aac57808604811115614a8857614a876146bb565b5b6001851615614a975780820291505b8081029050614aa585614a55565b9450614a6c565b94509492505050565b600082614ac55760019050614b81565b81614ad35760009050614b81565b8160018114614ae95760028114614af357614b22565b6001915050614b81565b60ff841115614b0557614b046146bb565b5b8360020a915084821115614b1c57614b1b6146bb565b5b50614b81565b5060208310610133831016604e8410600b8410161715614b575782820a905083811115614b5257614b516146bb565b5b614b81565b614b648484846001614a62565b92509050818404811115614b7b57614b7a6146bb565b5b81810290505b9392505050565b6000614b93826141b2565b9150614b9e836142db565b9250614bcb7fffffffffffffffffffffffffffffffffffffffffffffffffffffffffffffffff8484614ab5565b905092915050565b7f43616e277420746f20736574206d61785472616e7366657246656520746f207a60008201527f65726f0000000000000000000000000000000000000000000000000000000000602082015250565b6000614c2f602383614016565b9150614c3a82614bd3565b604082019050919050565b60006020820190508181036000830152614c5e81614c22565b9050919050565b7f63616e6e6f742062652072656d6f766564000000000000000000000000000000600082015250565b6000614c9b601183614016565b9150614ca682614c65565b602082019050919050565b60006020820190508181036000830152614cca81614c8e565b9050919050565b600081519050614ce081614186565b92915050565b600060208284031215614cfc57614cfb61416a565b5b6000614d0a84828501614cd1565b91505092915050565b6000604082019050614d286000830185614312565b614d356020830184614312565b9392505050565b7f45524332303a2064656372656173656420616c6c6f77616e63652062656c6f7760008201527f207a65726f000000000000000000000000000000000000000000000000000000602082015250565b6000614d98602583614016565b9150614da382614d3c565b604082019050919050565b60006020820190508181036000830152614dc781614d8b565b9050919050565b600081905092915050565b6000614de48261400b565b614dee8185614dce565b9350614dfe818560208601614027565b80840191505092915050565b6000614e168284614dd9565b915081905092915050565b7f416c726561647920736574000000000000000000000000000000000000000000600082015250565b6000614e57600b83614016565b9150614e6282614e21565b602082019050919050565b60006020820190508181036000830152614e8681614e4a565b9050919050565b7f4f776e61626c653a206e6577206f776e657220697320746865207a65726f206160008201527f6464726573730000000000000000000000000000000000000000000000000000602082015250565b6000614ee9602683614016565b9150614ef482614e8d565b604082019050919050565b60006020820190508181036000830152614f1881614edc565b9050919050565b6000614f2a826141b2565b9150614f35836141b2565b9250817fffffffffffffffffffffffffffffffffffffffffffffffffffffffffffffffff0483118215151615614f6e57614f6d6146bb565b5b828202905092915050565b7f4e487b7100000000000000000000000000000000000000000000000000000000600052601260045260246000fd5b6000614fb3826141b2565b9150614fbe836141b2565b925082614fce57614fcd614f79565b5b828204905092915050565b7f45524332303a20617070726f76652066726f6d20746865207a65726f2061646460008201527f7265737300000000000000000000000000000000000000000000000000000000602082015250565b6000615035602483614016565b915061504082614fd9565b604082019050919050565b6000602082019050818103600083015261506481615028565b9050919050565b7f45524332303a20617070726f766520746f20746865207a65726f20616464726560008201527f7373000000000000000000000000000000000000000000000000000000000000602082015250565b60006150c7602283614016565b91506150d28261506b565b604082019050919050565b600060208201905081810360008301526150f6816150ba565b9050919050565b7f45524332303a20696e73756666696369656e7420616c6c6f77616e6365000000600082015250565b6000615133601d83614016565b915061513e826150fd565b602082019050919050565b6000602082019050818103600083015261516281615126565b9050919050565b600061517c61517784614487565b61446c565b90508281526020810184848401111561519857615197614407565b5b6151a3848285614027565b509392505050565b600082601f8301126151c0576151bf614402565b5b81516151d0848260208601615169565b91505092915050565b6000602082840312156151ef576151ee61416a565b5b600082015167ffffffffffffffff81111561520d5761520c61416f565b5b615219848285016151ab565b91505092915050565b7f70616972206e6f7420616c6c6f77656400000000000000000000000000000000600082015250565b6000615258601083614016565b915061526382615222565b602082019050919050565b600060208201905081810360008301526152878161524b565b9050919050565b7f45524332303a207472616e736665722066726f6d20746865207a65726f20616460008201527f6472657373000000000000000000000000000000000000000000000000000000602082015250565b60006152ea602583614016565b91506152f58261528e565b604082019050919050565b60006020820190508181036000830152615319816152dd565b9050919050565b7f45524332303a207472616e7366657220746f20746865207a65726f206164647260008201527f6573730000000000000000000000000000000000000000000000000000000000602082015250565b600061537c602383614016565b915061538782615320565b604082019050919050565b600060208201905081810360008301526153ab8161536f565b9050919050565b7f5472616e7366657220616d6f756e74206d75737420626520677265617465722060008201527f7468616e207a65726f0000000000000000000000000000000000000000000000602082015250565b600061540e602983614016565b9150615419826153b2565b604082019050919050565b6000602082019050818103600083015261543d81615401565b9050919050565b60006dffffffffffffffffffffffffffff82169050919050565b61546781615444565b811461547257600080fd5b50565b6000815190506154848161545e565b92915050565b600063ffffffff82169050919050565b6154a38161548a565b81146154ae57600080fd5b50565b6000815190506154c08161549a565b92915050565b6000806000606084860312156154df576154de61416a565b5b60006154ed86828701615475565b93505060206154fe86828701615475565b925050604061550f868287016154b1565b9150509250925092565b7f4d6178207472616e7366657220616d6f756e74206c696d69742072656163686560008201527f6400000000000000000000000000000000000000000000000000000000000000602082015250565b6000615575602183614016565b915061558082615519565b604082019050919050565b600060208201905081810360008301526155a481615568565b9050919050565b7f7468652073656e6465722063616e6e6f74206f70657261746520796574000000600082015250565b60006155e1601d83614016565b91506155ec826155ab565b602082019050919050565b60006020820190508181036000830152615610816155d4565b9050919050565b7f74686520726563697069656e742063616e6e6f742073656c6c20796574000000600082015250565b600061564d601d83614016565b915061565882615617565b602082019050919050565b6000602082019050818103600083015261567c81615640565b9050919050565b7f546f74616c20486f6c64696e672069732063757272656e746c79206c696d697460008201527f65642c20796f752063616e206e6f74206275792074686174206d7563682e0000602082015250565b60006156df603e83614016565b91506156ea82615683565b604082019050919050565b6000602082019050818103600083015261570e816156d2565b9050919050565b7f46656573206578636565646564206d6178206c696d69746174696f6e00000000600082015250565b600061574b601c83614016565b915061575682615715565b602082019050919050565b6000602082019050818103600083015261577a8161573e565b9050919050565b7f416464726573733a20696e73756666696369656e742062616c616e6365000000600082015250565b60006157b7601d83614016565b91506157c282615781565b602082019050919050565b600060208201905081810360008301526157e6816157aa565b9050919050565b600081905092915050565b50565b60006158086000836157ed565b9150615813826157f8565b600082019050919050565b6000615829826157fb565b9150819050919050565b7f416464726573733a20756e61626c6520746f2073656e642076616c75652c207260008201527f6563697069656e74206d61792068617665207265766572746564000000000000602082015250565b600061588f603a83614016565b915061589a82615833565b604082019050919050565b600060208201905081810360008301526158be81615882565b9050919050565b7f45524332303a206275726e2066726f6d20746865207a65726f2061646472657360008201527f7300000000000000000000000000000000000000000000000000000000000000602082015250565b6000615921602183614016565b915061592c826158c5565b604082019050919050565b6000602082019050818103600083015261595081615914565b9050919050565b7f45524332303a206275726e20616d6f756e7420657863656564732062616c616e60008201527f6365000000000000000000000000000000000000000000000000000000000000602082015250565b60006159b3602283614016565b91506159be82615957565b604082019050919050565b600060208201905081810360008301526159e2816159a6565b9050919050565b60006159f4826141b2565b91506159ff836141b2565b925082821015615a1257615a116146bb565b5b828203905092915050565b7f6d61782074656d702062616e2067726561746572207468616e2074686520616c60008201527f6c6f776564000000000000000000000000000000000000000000000000000000602082015250565b6000615a79602583614016565b9150615a8482615a1d565b604082019050919050565b60006020820190508181036000830152615aa881615a6c565b9050919050565b7f45524332303a207472616e7366657220616d6f756e742065786365656473206260008201527f616c616e63650000000000000000000000000000000000000000000000000000602082015250565b6000615b0b602683614016565b9150615b1682615aaf565b604082019050919050565b60006020820190508181036000830152615b3a81615afe565b9050919050565b7f4e487b7100000000000000000000000000000000000000000000000000000000600052603260045260246000fd5b6000819050919050565b6000615b95615b90615b8b84615b70565b6140e6565b6141b2565b9050919050565b615ba581615b7a565b82525050565b600081519050919050565b600082825260208201905092915050565b6000819050602082019050919050565b615be081614174565b82525050565b6000615bf28383615bd7565b60208301905092915050565b6000602082019050919050565b6000615c1682615bab565b615c208185615bb6565b9350615c2b83615bc7565b8060005b83811015615c5c578151615c438882615be6565b9750615c4e83615bfe565b925050600181019050615c2f565b5085935050505092915050565b600060a082019050615c7e600083018861425e565b615c8b6020830187615b9c565b8181036040830152615c9d8186615c0b565b9050615cac6060830185614312565b615cb9608083018461425e565b9695505050505050565b600060c082019050615cd86000830189614312565b615ce5602083018861425e565b615cf26040830187615b9c565b615cff6060830186615b9c565b615d0c6080830185614312565b615d1960a083018461425e565b979650505050505050565b600080600060608486031215615d3d57615d3c61416a565b5b6000615d4b868287016147d2565b9350506020615d5c868287016147d2565b9250506040615d6d868287016147d2565b915050925092509256fea264697066735822122063ada058d9b76084dbc851fedf55a80ffa01adb8595b03232ce58cd726237ed264736f6c634300080d0033",
  "immutableReferences": {
    "18930": [
      {
        "length": 32,
        "start": 14456
      }
    ]
  },
  "source": "// SPDX-License-Identifier: MIT\r\npragma solidity ^0.8.9;\r\n\r\nimport \"@openzeppelin/contracts/utils/math/SafeMath.sol\";\r\nimport \"@openzeppelin/contracts/utils/Address.sol\";\r\nimport \"@openzeppelin/contracts/token/ERC20/ERC20.sol\";\r\nimport \"@openzeppelin/contracts/token/ERC20/extensions/ERC20Burnable.sol\";\r\nimport \"@openzeppelin/contracts/security/Pausable.sol\";\r\nimport \"@openzeppelin/contracts/access/Ownable.sol\";\r\n\r\nimport \"@uniswap/v2-periphery/contracts/interfaces/IUniswapV2Router02.sol\";\r\nimport \"@uniswap/v2-core/contracts/interfaces/IUniswapV2Factory.sol\";\r\nimport \"@uniswap/v2-core/contracts/interfaces/IUniswapV2Pair.sol\";\r\nimport \"./TimeLockDexTransactions.sol\";\r\n\r\n/**\r\n* Features:\r\n*   Fee de liquidez pode ir para todos ou o user ou a empresa(configurvel pela empresa)\r\n*   Fee de ecossistema da empresa(configurvel pela empresa)\r\n*   Fee de burn. (configurvel pela empresa at certo limite)\r\n*   Fees totais limitados a 10%\r\n*   Upgradeable para prximo token\r\n*   Anti whale fees baseado em volume da dex. Configurvel at certo limite pela empresa.\r\n*   Time lock dex transactions\r\n*   Impedir que as pessoas criem pares sem autorizacao da empresa.\r\n*/\r\ncontract ERC20FLiqFEcoFBurnAntiDumpDexTempBan is ERC20, ERC20Burnable, Pausable, Ownable, TimeLockDexTransactions {\r\n    using SafeMath for uint256;\r\n    using Address for address;\r\n\r\n    // @dev dead address\r\n    address public constant DEAD_ADDRESS = 0x000000000000000000000000000000000000dEaD;\r\n\r\n    // @dev the fee the ecosystem takes. value uses decimals() as multiplicative factor\r\n    uint256 public ecoSystemFee;\r\n\r\n    // @dev which wallet will receive the ecosystem fee\r\n    address public ecoSystemAddress;\r\n\r\n    // @dev the fee the liquidity takes. value uses decimals() as multiplicative factor\r\n    uint256 public liquidityFee;\r\n\r\n    // @dev which wallet will receive the ecosystem fee. If dead is used, it goes to the msgSender\r\n    address public liquidityAddress;\r\n\r\n    // @dev the fee the burn takes. value uses decimals() as multiplicative factor\r\n    uint256 public burnFee;\r\n\r\n    // @dev the total max value of the fee\r\n    uint256 public constant _maxFee = 10 ** 17; // 10%\r\n\r\n    // @dev the total supply value of the contract\r\n    uint256 public totalSupplyAtt;\r\n\r\n    // @dev the BUSD address\r\n    address public constant _BUSD = address(0x4Fabb145d64652a948d72533023f6E7A623C7C53);\r\n\r\n    // @dev the defauld dex router\r\n    IUniswapV2Router02 public dexRouter;\r\n\r\n    // @dev the dex factory address\r\n    address public uniswapFactoryAddress;\r\n\r\n    // @dev just to simplify to the user, the total fees\r\n    uint256 public totalFees = 0;\r\n\r\n    // @dev antiwhale mechanics\r\n    uint256 public maxTransferFee;\r\n\r\n    // @dev mapping of excluded from fees elements\r\n    mapping(address => bool) public isExcludedFromFees;\r\n\r\n    // @dev the default dex pair\r\n    address public dexPair;\r\n\r\n    // @dev what pairs are allowed to work in the token\r\n    mapping(address => bool) public automatedMarketMakerPairs;\r\n\r\n    // @dev maximum token transaction\r\n    uint256 public _maxWalletToken;\r\n\r\n    // @dev lists the wallets that can make a transaction\r\n    mapping (address => bool) internal authorizations;\r\n\r\n\r\n    constructor(string memory name, string memory symbol, uint256 totalSupply) ERC20(name, symbol) {\r\n        excludeFromFees(address(this), true);\r\n        excludeFromFees(owner(), true);\r\n\r\n        ecoSystemAddress = owner();\r\n        liquidityAddress = DEAD_ADDRESS;\r\n        maxTransferFee = 1 ether;\r\n\r\n        totalSupplyAtt = totalSupply;\r\n\r\n        _mint(owner(), totalSupply);\r\n\r\n        authorizations[owner()] = true;\r\n\r\n        //max wallet holding of 3% \r\n        _maxWalletToken = ( totalSupply ).mul(3).div(10 ** decimals());\r\n        \r\n        dexRouter = IUniswapV2Router02(0x10ED43C718714eb63d5aA57B78B54704E256024E); // bsc mainnet router\r\n        uniswapFactoryAddress = 0xcA143Ce32Fe78f1f7019d7d551a6402fC5350c73; // pancakeswap factory address\r\n\r\n        // Create a uniswap pair for this new token\r\n        dexPair = IUniswapV2Factory(dexRouter.factory()).createPair(address(this), dexRouter.WETH());\r\n        //dexPair = IUniswapV2Factory(dexRouter.factory()).createPair(address(this), _BUSD); // busd address\r\n        _setAutomatedMarketMakerPair(dexPair, true);\r\n\r\n        isExcludedFromFees[owner()] = true;\r\n        isExcludedFromFees[address(this)] = true;\r\n        isExcludedFromFees[DEAD_ADDRESS] = true;\r\n        emit ExcludeFromFees(owner(), true);\r\n        emit ExcludeFromFees(address(this), true);\r\n        emit ExcludeFromFees(DEAD_ADDRESS, true);\r\n    }\r\n\r\n    function setAutomatedMarketMakerPair(address pair, bool value) external onlyOwner {\r\n        require(pair != dexPair, \"cannot be removed\");\r\n        _setAutomatedMarketMakerPair(pair, value);\r\n    }\r\n\r\n    function _setAutomatedMarketMakerPair(address pair, bool value) private onlyOwner {\r\n        automatedMarketMakerPairs[pair] = value;\r\n        emit SetAutomatedMarketMakerPair(pair, value);\r\n    }\r\n\r\n    // @dev create and add a new pair for a given token\r\n    function addNewPair(address tokenAddress) external onlyOwner returns (address np) {\r\n        address newPair = IUniswapV2Factory(dexRouter.factory()).createPair(address(this), tokenAddress);\r\n        _setAutomatedMarketMakerPair(newPair, true);\r\n        emit AddNewPair(tokenAddress, newPair);\r\n        return newPair;\r\n    }\r\n    event AddNewPair(address indexed tokenAddress, address indexed newPair);\r\n\r\n    receive() external payable {}\r\n\r\n    function excludeFromFees(address account, bool excluded) public onlyOwner {\r\n        require(isExcludedFromFees[account] != excluded, \"Already set\");\r\n        isExcludedFromFees[account] = excluded;\r\n        emit ExcludeFromFees(account, excluded);\r\n    }\r\n\r\n    function checkFeesChanged(uint256 _oldFee, uint256 _newFee) internal view {\r\n        uint256 _fees = ecoSystemFee.add(liquidityFee).add(burnFee).add(_newFee).sub(_oldFee);\r\n        require(_fees <= _maxFee, \"Fees exceeded max limitation\");\r\n    }\r\n\r\n    function setEcoSystemAddress(address newAddress) public onlyOwner {\r\n        require(ecoSystemAddress != newAddress, \"EcoSystem address already setted\");\r\n        ecoSystemAddress = newAddress;\r\n        emit EcoSystemAddressUpdated(newAddress);\r\n    }\r\n\r\n    function setEcosystemFee(uint256 newFee) public onlyOwner {\r\n        checkFeesChanged(ecoSystemFee, newFee);\r\n        ecoSystemFee = newFee;\r\n        _updateTotalFee();\r\n        emit EcosystemFeeUpdated(newFee);\r\n    }\r\n\r\n    function setLiquidityAddress(address newAddress) public onlyOwner {\r\n        require(liquidityAddress != newAddress, \"Liquidity address already setted\");\r\n        liquidityAddress = newAddress;\r\n        emit LiquidityAddressUpdated(newAddress);\r\n    }\r\n\r\n    function setLiquidityFee(uint256 newFee) public onlyOwner {\r\n        checkFeesChanged(liquidityFee, newFee);\r\n        liquidityFee = newFee;\r\n        _updateTotalFee();\r\n        emit LiquidityFeeUpdated(newFee);\r\n    }\r\n\r\n    function setBurnFee(uint256 newFee) public onlyOwner {\r\n        checkFeesChanged(burnFee, newFee);\r\n        burnFee = newFee;\r\n        _updateTotalFee();\r\n        emit BurnFeeUpdated(newFee);\r\n    }\r\n\r\n    function setLockTime(uint timeBetweenTransactions) external onlyOwner {\r\n        _setLockTime(timeBetweenTransactions);\r\n    }\r\n\r\n    // todo: fix: company shouldnt have the ability to set maxTransferFee to zero and block all transactions\r\n    function setMaxTransferFee(uint mtf) external onlyOwner {\r\n        require(mtf > 0, \"Can't to set maxTransferFee to zero\");\r\n        maxTransferFee = mtf;\r\n    }\r\n\r\n    function _updateTotalFee() internal {\r\n        totalFees = liquidityFee.add(burnFee).add(ecoSystemFee);\r\n    }\r\n\r\n    function _swapAndLiquify(uint256 amount) private {\r\n        uint256 half = amount.div(2);\r\n        uint256 otherHalf = amount.sub(half);\r\n\r\n        uint256 initialAmount = address(this).balance;\r\n\r\n        _swapTokensForBNB(half);\r\n\r\n        uint256 newAmount = address(this).balance.sub(initialAmount);\r\n\r\n        _addLiquidity(otherHalf, newAmount);\r\n\r\n        emit SwapAndLiquify(half, newAmount, otherHalf);\r\n    }\r\n\r\n    function _swapTokensForBNB(uint256 tokenAmount) private {\r\n        address[] memory path = new address[](2);\r\n        path[0] = address(this);\r\n        path[1] = _BUSD; // TODO: test if this is something viable. the oldest value was \"path[1] = dexRouter.WETH();\"\r\n\r\n        _approve(address(this), address(dexRouter), tokenAmount);\r\n\r\n        // todo: change this to swapExactTokensForTokensSupportingFeeOnTransferTokens bc we are using busd as 2nd element of the pair\r\n        dexRouter.swapExactTokensForETHSupportingFeeOnTransferTokens(\r\n            tokenAmount,\r\n            0,\r\n            path,\r\n            address(this),\r\n            block.timestamp.add(300)\r\n        );\r\n    }\r\n\r\n    function _addLiquidity(uint256 tokenAmount, uint256 bnbAmount) private {\r\n        _approve(address(this), address(dexRouter), tokenAmount);\r\n\r\n        // TODO: make it work with BUSD use addLiquidity https://docs.uniswap.org/protocol/V2/reference/smart-contracts/router-02#addliquidity\r\n        dexRouter.addLiquidityETH{ value: bnbAmount }(\r\n            address(this),\r\n            tokenAmount,\r\n            0,\r\n            0,\r\n            liquidityAddress == DEAD_ADDRESS ? _msgSender() : liquidityAddress,\r\n            block.timestamp.add(300)\r\n        );\r\n    }\r\n\r\n    function compareStrings(string memory a, string memory b) public pure returns (bool) {\r\n        return (keccak256(abi.encodePacked((a))) == keccak256(abi.encodePacked((b))));\r\n    }\r\n\r\n    modifier _checkIfPairIsAuthorized(address from, address to) {\r\n        // if the contract has symbol and the name is Cake-LP, it is a pancake pair\r\n        if(Address.isContract(from) && !automatedMarketMakerPairs[from]) {\r\n            try IUniswapV2Pair(from).symbol() returns (string memory _value) {\r\n                if(compareStrings(_value, \"Cake-LP\")) // if the contract has symbol and the name is Cake-LP, it is a pancake pair\r\n                    revert(\"pair not allowed\");\r\n            }\r\n            catch {}\r\n        }\r\n        if(Address.isContract(to) && !automatedMarketMakerPairs[to]) {\r\n            try IUniswapV2Pair(to).symbol() returns (string memory _value) {\r\n                if(compareStrings(_value, \"Cake-LP\"))\r\n                    revert(\"pair not allowed\");\r\n            }\r\n            catch {}\r\n        }\r\n        _;\r\n    }\r\n\r\n    function _transfer(\r\n        address from,\r\n        address to,\r\n        uint256 amount\r\n    ) internal override\r\n    _checkIfPairIsAuthorized(from, to) // todo: test this better\r\n    {\r\n        require(from != address(0), \"ERC20: transfer from the zero address\");\r\n        require(to != address(0), \"ERC20: transfer to the zero address\");\r\n        require(amount > 0, \"Transfer amount must be greater than zero\");\r\n\r\n        bool excludedAccount = isExcludedFromFees[from] || isExcludedFromFees[to];\r\n        // todo: the pair could be anothe one\r\n        (uint112 reserve0, , ) = IUniswapV2Pair(dexPair).getReserves();\r\n        // todo: make the direction agnostic. We cannot garantee in the future that the token will always be on position 0. It could be on position 1 too if a user create the pair externally.\r\n        uint maxTransferAmount = uint256(reserve0).mul(maxTransferFee).div(10 ** decimals()); // never divide first. You lose precision. You should multiply first and then divide. never use only 2 decimals precision, you should use 18 decimals here\r\n        if (excludedAccount) {\r\n            super._transfer(from, to, amount);\r\n        } else {\r\n            require(amount <= maxTransferAmount, \"Max transfer amount limit reached\");\r\n            if(automatedMarketMakerPairs[to]) { // selling tokens\r\n                require(canOperate(from), \"the sender cannot operate yet\");\r\n                lockToOperate(from);\r\n            } else if(automatedMarketMakerPairs[from]) { // buying tokens\r\n                require(canOperate(to), \"the recipient cannot sell yet\");\r\n                lockToOperate(to);\r\n            }\r\n\r\n            uint256 tokenToEcoSystem=0;\r\n            if (ecoSystemFee > 0) {\r\n                tokenToEcoSystem = amount.mul(ecoSystemFee).div(10 ** decimals());\r\n                super._transfer(from, ecoSystemAddress, tokenToEcoSystem);\r\n            }\r\n\r\n            uint256 tokensToLiquidity=0;\r\n            if (liquidityFee > 0) {\r\n                tokensToLiquidity = amount.mul(liquidityFee).div(10 ** decimals());\r\n                super._transfer(from, address(this), tokensToLiquidity);\r\n                _swapAndLiquify(tokensToLiquidity); // TODO: this only works on the default pair. make it work to other pairs\r\n            }\r\n\r\n            uint256 tokensToBurn=0;\r\n            if (burnFee > 0) {\r\n                tokensToBurn = amount.mul(burnFee).div(10 ** decimals());\r\n                super._transfer(from, DEAD_ADDRESS, tokensToBurn);\r\n            }\r\n\r\n            if (!authorizations[from] && to != address(this)  && to != address(DEAD_ADDRESS)){\r\n                uint256 heldTokens = balanceOf(to);\r\n            require((heldTokens + amount) <= _maxWalletToken,\"Total Holding is currently limited, you can not buy that much.\");}\r\n\r\n\r\n            // todo: test this!\r\n            uint256 amountMinusFees = amount.sub(tokenToEcoSystem).sub(tokensToLiquidity).sub(tokensToBurn);\r\n            super._transfer(from, to, amountMinusFees);\r\n        }\r\n    }\r\n\r\n    event ExcludeFromFees(address indexed account, bool isExcluded);\r\n    event LiquidityAddressUpdated(address indexed liquidityAddress);\r\n    event EcoSystemAddressUpdated(address indexed ecoSystemAddress);\r\n    event SetAutomatedMarketMakerPair(address indexed pair, bool indexed value);\r\n    event SwapAndLiquify(\r\n        uint256 indexed tokensSwapped,\r\n        uint256 indexed bnbReceived,\r\n        uint256 indexed tokensIntoLiqudity\r\n    );\r\n    event EcosystemFeeUpdated(uint256 indexed fee);\r\n    event LiquidityFeeUpdated(uint256 indexed fee);\r\n    event BurnFeeUpdated(uint256 indexed fee);\r\n    event BurnFeeLimitUpdated(uint256 indexed limit);\r\n    event LiquidityStarted(address indexed routerAddress, address indexed pairAddress);\r\n\r\n\r\n    // todo: make nonReentrant\r\n    function withdraw() onlyOwner public {\r\n        uint256 balance = address(this).balance;\r\n        Address.sendValue(payable(msg.sender), balance);\r\n    }\r\n\r\n    // todo: make nonReentrant\r\n    /**\r\n     * @dev Withdraw any ERC20 token from this contract\r\n     * @param tokenAddress ERC20 token to withdraw\r\n     * @param to receiver address\r\n     * @param amount amount to withdraw\r\n     */\r\n    function withdrawERC20(\r\n        address tokenAddress,\r\n        address to,\r\n        uint256 amount\r\n    ) external virtual onlyOwner {\r\n        require(tokenAddress.isContract(), \"ERC20 token address must be a contract\");\r\n\r\n        IERC20 tokenContract = IERC20(tokenAddress);\r\n        require(\r\n            tokenContract.balanceOf(address(this)) >= amount,\r\n            \"You are trying to withdraw more funds than available\"\r\n        );\r\n\r\n        require(tokenContract.transfer(to, amount), \"Fail on transfer\");\r\n    }\r\n\r\n    //settting the maximum permitted wallet holding (percent of total supply)\r\n    function setMaxWalletPercent(uint256 maxWallPercent) external onlyOwner() {\r\n        _maxWalletToken = (totalSupplyAtt).mul(maxWallPercent).div(10 ** decimals());\r\n    }\r\n\r\n    //Authorize address. Owner only\r\n    function authorize(address adr) public onlyOwner {\r\n        authorizations[adr] = true;\r\n    }\r\n\r\n    \r\n    //Remove address' authorization. Owner only\r\n    function unauthorize(address adr) public onlyOwner {\r\n        authorizations[adr] = false;\r\n    }\r\n\r\n    //Return address' authorization status\r\n    function isAuthorized(address adr) public view returns (bool) {\r\n        return authorizations[adr];\r\n    }\r\n}",
  "sourcePath": "D:\\Solidity - Curso FG\\Solidity-Course\\contracts\\ERC20_FLiq_FEco_FBurn_AntiDump_DexTempBan.sol",
  "compiler": {
    "name": "solc",
    "version": "0.8.13+commit.abaa5c0e.Emscripten.clang"
  },
  "schemaVersion": "3.4.6",
  "updatedAt": "2022-03-30T15:35:27.893Z",
  "devdoc": {
    "kind": "dev",
    "methods": {
      "allowance(address,address)": {
        "details": "See {IERC20-allowance}."
      },
      "approve(address,uint256)": {
        "details": "See {IERC20-approve}. NOTE: If `amount` is the maximum `uint256`, the allowance is not updated on `transferFrom`. This is semantically equivalent to an infinite approval. Requirements: - `spender` cannot be the zero address."
      },
      "balanceOf(address)": {
        "details": "See {IERC20-balanceOf}."
      },
      "burn(uint256)": {
        "details": "Destroys `amount` tokens from the caller. See {ERC20-_burn}."
      },
      "burnFrom(address,uint256)": {
        "details": "Destroys `amount` tokens from `account`, deducting from the caller's allowance. See {ERC20-_burn} and {ERC20-allowance}. Requirements: - the caller must have allowance for ``accounts``'s tokens of at least `amount`."
      },
      "decimals()": {
        "details": "Returns the number of decimals used to get its user representation. For example, if `decimals` equals `2`, a balance of `505` tokens should be displayed to a user as `5.05` (`505 / 10 ** 2`). Tokens usually opt for a value of 18, imitating the relationship between Ether and Wei. This is the value {ERC20} uses, unless this function is overridden; NOTE: This information is only used for _display_ purposes: it in no way affects any of the arithmetic of the contract, including {IERC20-balanceOf} and {IERC20-transfer}."
      },
      "decreaseAllowance(address,uint256)": {
        "details": "Atomically decreases the allowance granted to `spender` by the caller. This is an alternative to {approve} that can be used as a mitigation for problems described in {IERC20-approve}. Emits an {Approval} event indicating the updated allowance. Requirements: - `spender` cannot be the zero address. - `spender` must have allowance for the caller of at least `subtractedValue`."
      },
      "increaseAllowance(address,uint256)": {
        "details": "Atomically increases the allowance granted to `spender` by the caller. This is an alternative to {approve} that can be used as a mitigation for problems described in {IERC20-approve}. Emits an {Approval} event indicating the updated allowance. Requirements: - `spender` cannot be the zero address."
      },
      "name()": {
        "details": "Returns the name of the token."
      },
      "owner()": {
        "details": "Returns the address of the current owner."
      },
      "paused()": {
        "details": "Returns true if the contract is paused, and false otherwise."
      },
      "renounceOwnership()": {
        "details": "Leaves the contract without owner. It will not be possible to call `onlyOwner` functions anymore. Can only be called by the current owner. NOTE: Renouncing ownership will leave the contract without an owner, thereby removing any functionality that is only available to the owner."
      },
      "symbol()": {
        "details": "Returns the symbol of the token, usually a shorter version of the name."
      },
      "totalSupply()": {
        "details": "See {IERC20-totalSupply}."
      },
      "transfer(address,uint256)": {
        "details": "See {IERC20-transfer}. Requirements: - `to` cannot be the zero address. - the caller must have a balance of at least `amount`."
      },
      "transferFrom(address,address,uint256)": {
        "details": "See {IERC20-transferFrom}. Emits an {Approval} event indicating the updated allowance. This is not required by the EIP. See the note at the beginning of {ERC20}. NOTE: Does not update the allowance if the current allowance is the maximum `uint256`. Requirements: - `from` and `to` cannot be the zero address. - `from` must have a balance of at least `amount`. - the caller must have allowance for ``from``'s tokens of at least `amount`."
      },
      "transferOwnership(address)": {
        "details": "Transfers ownership of the contract to a new account (`newOwner`). Can only be called by the current owner."
      },
      "withdrawERC20(address,address,uint256)": {
        "details": "Withdraw any ERC20 token from this contract",
        "params": {
          "amount": "amount to withdraw",
          "to": "receiver address",
          "tokenAddress": "ERC20 token to withdraw"
        }
      }
    },
    "version": 1
  },
  "userdoc": {
    "kind": "user",
    "methods": {},
    "notice": "Features:   Fee de liquidez pode ir para todos ou o user ou a empresa(configurvel pela empresa)   Fee de ecossistema da empresa(configurvel pela empresa)   Fee de burn. (configurvel pela empresa at certo limite)   Fees totais limitados a 10%   Upgradeable para prximo token   Anti whale fees baseado em volume da dex. Configurvel at certo limite pela empresa.   Time lock dex transactions   Impedir que as pessoas criem pares sem autorizacao da empresa.",
    "version": 1
  }
}