{
  "contractName": "Store",
  "abi": [
    {
      "inputs": [],
      "stateMutability": "nonpayable",
      "type": "constructor"
    },
    {
      "anonymous": false,
      "inputs": [
        {
          "indexed": true,
          "internalType": "address",
          "name": "addr",
          "type": "address"
        }
      ],
      "name": "AcceptedTokenChanged",
      "type": "event"
    },
    {
      "anonymous": false,
      "inputs": [
        {
          "indexed": false,
          "internalType": "address",
          "name": "previousAdmin",
          "type": "address"
        },
        {
          "indexed": false,
          "internalType": "address",
          "name": "newAdmin",
          "type": "address"
        }
      ],
      "name": "AdminChanged",
      "type": "event"
    },
    {
      "anonymous": false,
      "inputs": [
        {
          "indexed": true,
          "internalType": "address",
          "name": "beacon",
          "type": "address"
        }
      ],
      "name": "BeaconUpgraded",
      "type": "event"
    },
    {
      "anonymous": false,
      "inputs": [
        {
          "indexed": true,
          "internalType": "address",
          "name": "addr",
          "type": "address"
        }
      ],
      "name": "BnbBusdPairChanged",
      "type": "event"
    },
    {
      "anonymous": false,
      "inputs": [
        {
          "indexed": true,
          "internalType": "address",
          "name": "tokenContract",
          "type": "address"
        },
        {
          "indexed": false,
          "internalType": "uint256",
          "name": "id",
          "type": "uint256"
        },
        {
          "indexed": false,
          "internalType": "uint256",
          "name": "tokenId",
          "type": "uint256"
        },
        {
          "indexed": false,
          "internalType": "bytes32",
          "name": "title",
          "type": "bytes32"
        },
        {
          "indexed": false,
          "internalType": "uint256",
          "name": "price",
          "type": "uint256"
        }
      ],
      "name": "ItemAdded",
      "type": "event"
    },
    {
      "anonymous": false,
      "inputs": [
        {
          "indexed": true,
          "internalType": "address",
          "name": "tokenContract",
          "type": "address"
        },
        {
          "indexed": false,
          "internalType": "uint256",
          "name": "id",
          "type": "uint256"
        },
        {
          "indexed": false,
          "internalType": "uint256",
          "name": "tokenId",
          "type": "uint256"
        },
        {
          "indexed": true,
          "internalType": "address",
          "name": "seller",
          "type": "address"
        },
        {
          "indexed": true,
          "internalType": "address",
          "name": "buyer",
          "type": "address"
        },
        {
          "indexed": false,
          "internalType": "uint256",
          "name": "price",
          "type": "uint256"
        },
        {
          "indexed": false,
          "internalType": "uint256",
          "name": "amounts",
          "type": "uint256"
        }
      ],
      "name": "ItemBought",
      "type": "event"
    },
    {
      "anonymous": false,
      "inputs": [
        {
          "indexed": false,
          "internalType": "uint256",
          "name": "toDeleteIndex",
          "type": "uint256"
        },
        {
          "indexed": true,
          "internalType": "address",
          "name": "tokenContract",
          "type": "address"
        },
        {
          "indexed": false,
          "internalType": "uint256",
          "name": "itemId",
          "type": "uint256"
        },
        {
          "indexed": false,
          "internalType": "uint256",
          "name": "price",
          "type": "uint256"
        }
      ],
      "name": "ItemDeleted",
      "type": "event"
    },
    {
      "anonymous": false,
      "inputs": [
        {
          "indexed": false,
          "internalType": "uint256",
          "name": "id",
          "type": "uint256"
        },
        {
          "indexed": false,
          "internalType": "uint256",
          "name": "price",
          "type": "uint256"
        }
      ],
      "name": "ItemPriceUpdated",
      "type": "event"
    },
    {
      "anonymous": false,
      "inputs": [
        {
          "indexed": true,
          "internalType": "address",
          "name": "previousOwner",
          "type": "address"
        },
        {
          "indexed": true,
          "internalType": "address",
          "name": "newOwner",
          "type": "address"
        }
      ],
      "name": "OwnershipTransferred",
      "type": "event"
    },
    {
      "anonymous": false,
      "inputs": [
        {
          "indexed": false,
          "internalType": "address",
          "name": "account",
          "type": "address"
        }
      ],
      "name": "Paused",
      "type": "event"
    },
    {
      "anonymous": false,
      "inputs": [
        {
          "indexed": true,
          "internalType": "address",
          "name": "addr",
          "type": "address"
        }
      ],
      "name": "TknBnbPairChanged",
      "type": "event"
    },
    {
      "anonymous": false,
      "inputs": [
        {
          "indexed": false,
          "internalType": "address",
          "name": "account",
          "type": "address"
        }
      ],
      "name": "Unpaused",
      "type": "event"
    },
    {
      "anonymous": false,
      "inputs": [
        {
          "indexed": true,
          "internalType": "address",
          "name": "implementation",
          "type": "address"
        }
      ],
      "name": "Upgraded",
      "type": "event"
    },
    {
      "inputs": [],
      "name": "acceptedToken",
      "outputs": [
        {
          "internalType": "contract IERC20",
          "name": "",
          "type": "address"
        }
      ],
      "stateMutability": "view",
      "type": "function"
    },
    {
      "inputs": [
        {
          "internalType": "uint256",
          "name": "",
          "type": "uint256"
        }
      ],
      "name": "items",
      "outputs": [
        {
          "internalType": "address",
          "name": "tokenContract",
          "type": "address"
        },
        {
          "internalType": "uint256",
          "name": "tokenId",
          "type": "uint256"
        },
        {
          "internalType": "bytes32",
          "name": "title",
          "type": "bytes32"
        },
        {
          "internalType": "uint256",
          "name": "price",
          "type": "uint256"
        }
      ],
      "stateMutability": "view",
      "type": "function"
    },
    {
      "inputs": [],
      "name": "owner",
      "outputs": [
        {
          "internalType": "address",
          "name": "",
          "type": "address"
        }
      ],
      "stateMutability": "view",
      "type": "function"
    },
    {
      "inputs": [],
      "name": "paused",
      "outputs": [
        {
          "internalType": "bool",
          "name": "",
          "type": "bool"
        }
      ],
      "stateMutability": "view",
      "type": "function"
    },
    {
      "inputs": [],
      "name": "proxiableUUID",
      "outputs": [
        {
          "internalType": "bytes32",
          "name": "",
          "type": "bytes32"
        }
      ],
      "stateMutability": "view",
      "type": "function"
    },
    {
      "inputs": [],
      "name": "renounceOwnership",
      "outputs": [],
      "stateMutability": "nonpayable",
      "type": "function"
    },
    {
      "inputs": [
        {
          "internalType": "bytes4",
          "name": "interfaceId",
          "type": "bytes4"
        }
      ],
      "name": "supportsInterface",
      "outputs": [
        {
          "internalType": "bool",
          "name": "",
          "type": "bool"
        }
      ],
      "stateMutability": "view",
      "type": "function"
    },
    {
      "inputs": [
        {
          "internalType": "address",
          "name": "newOwner",
          "type": "address"
        }
      ],
      "name": "transferOwnership",
      "outputs": [],
      "stateMutability": "nonpayable",
      "type": "function"
    },
    {
      "inputs": [
        {
          "internalType": "address",
          "name": "newImplementation",
          "type": "address"
        }
      ],
      "name": "upgradeTo",
      "outputs": [],
      "stateMutability": "nonpayable",
      "type": "function"
    },
    {
      "inputs": [
        {
          "internalType": "address",
          "name": "newImplementation",
          "type": "address"
        },
        {
          "internalType": "bytes",
          "name": "data",
          "type": "bytes"
        }
      ],
      "name": "upgradeToAndCall",
      "outputs": [],
      "stateMutability": "payable",
      "type": "function"
    },
    {
      "stateMutability": "payable",
      "type": "receive"
    },
    {
      "inputs": [
        {
          "internalType": "address",
          "name": "_acceptedToken",
          "type": "address"
        },
        {
          "internalType": "address",
          "name": "tknBnb",
          "type": "address"
        },
        {
          "internalType": "address",
          "name": "bnbBusd",
          "type": "address"
        }
      ],
      "name": "initialize",
      "outputs": [],
      "stateMutability": "nonpayable",
      "type": "function"
    },
    {
      "inputs": [
        {
          "internalType": "address",
          "name": "addr",
          "type": "address"
        }
      ],
      "name": "setAcceptedToken",
      "outputs": [],
      "stateMutability": "nonpayable",
      "type": "function"
    },
    {
      "inputs": [
        {
          "internalType": "address",
          "name": "addr",
          "type": "address"
        }
      ],
      "name": "setTknBnbPair",
      "outputs": [],
      "stateMutability": "nonpayable",
      "type": "function"
    },
    {
      "inputs": [
        {
          "internalType": "address",
          "name": "addr",
          "type": "address"
        }
      ],
      "name": "setBnbBusdPair",
      "outputs": [],
      "stateMutability": "nonpayable",
      "type": "function"
    },
    {
      "inputs": [],
      "name": "pause",
      "outputs": [],
      "stateMutability": "nonpayable",
      "type": "function"
    },
    {
      "inputs": [],
      "name": "unpause",
      "outputs": [],
      "stateMutability": "nonpayable",
      "type": "function"
    },
    {
      "inputs": [
        {
          "internalType": "address",
          "name": "tokenContract",
          "type": "address"
        },
        {
          "internalType": "uint256",
          "name": "tokenId",
          "type": "uint256"
        },
        {
          "internalType": "bytes32",
          "name": "title",
          "type": "bytes32"
        },
        {
          "internalType": "uint256",
          "name": "price",
          "type": "uint256"
        }
      ],
      "name": "addItemToBeSold",
      "outputs": [],
      "stateMutability": "nonpayable",
      "type": "function"
    },
    {
      "inputs": [
        {
          "internalType": "uint256",
          "name": "toDeleteIndex",
          "type": "uint256"
        }
      ],
      "name": "removeItemFromStore",
      "outputs": [],
      "stateMutability": "nonpayable",
      "type": "function"
    },
    {
      "inputs": [],
      "name": "listItems",
      "outputs": [
        {
          "components": [
            {
              "internalType": "address",
              "name": "tokenContract",
              "type": "address"
            },
            {
              "internalType": "uint256",
              "name": "tokenId",
              "type": "uint256"
            },
            {
              "internalType": "bytes32",
              "name": "title",
              "type": "bytes32"
            },
            {
              "internalType": "uint256",
              "name": "price",
              "type": "uint256"
            }
          ],
          "internalType": "struct Store.Item[]",
          "name": "",
          "type": "tuple[]"
        }
      ],
      "stateMutability": "view",
      "type": "function"
    },
    {
      "inputs": [
        {
          "internalType": "uint256",
          "name": "id",
          "type": "uint256"
        },
        {
          "internalType": "uint256",
          "name": "newPrice",
          "type": "uint256"
        }
      ],
      "name": "updateItemPrice",
      "outputs": [],
      "stateMutability": "nonpayable",
      "type": "function"
    },
    {
      "inputs": [
        {
          "internalType": "address payable",
          "name": "to",
          "type": "address"
        },
        {
          "internalType": "uint256",
          "name": "amount",
          "type": "uint256"
        }
      ],
      "name": "withdraw",
      "outputs": [],
      "stateMutability": "nonpayable",
      "type": "function"
    },
    {
      "inputs": [
        {
          "internalType": "address",
          "name": "tokenAddress",
          "type": "address"
        },
        {
          "internalType": "address",
          "name": "to",
          "type": "address"
        },
        {
          "internalType": "uint256",
          "name": "amount",
          "type": "uint256"
        }
      ],
      "name": "withdrawERC20",
      "outputs": [],
      "stateMutability": "nonpayable",
      "type": "function"
    },
    {
      "inputs": [
        {
          "internalType": "address",
          "name": "tokenAddress",
          "type": "address"
        },
        {
          "internalType": "address",
          "name": "to",
          "type": "address"
        },
        {
          "internalType": "uint256[]",
          "name": "tokenIds",
          "type": "uint256[]"
        }
      ],
      "name": "withdrawERC721",
      "outputs": [],
      "stateMutability": "nonpayable",
      "type": "function"
    },
    {
      "inputs": [
        {
          "internalType": "address",
          "name": "tokenAddress",
          "type": "address"
        },
        {
          "internalType": "address",
          "name": "to",
          "type": "address"
        },
        {
          "internalType": "uint256",
          "name": "id",
          "type": "uint256"
        },
        {
          "internalType": "uint256",
          "name": "amount",
          "type": "uint256"
        }
      ],
      "name": "withdrawERC1155",
      "outputs": [],
      "stateMutability": "nonpayable",
      "type": "function"
    },
    {
      "inputs": [],
      "name": "getTKNtoBUSDprice",
      "outputs": [
        {
          "internalType": "uint256",
          "name": "price",
          "type": "uint256"
        }
      ],
      "stateMutability": "view",
      "type": "function"
    },
    {
      "inputs": [
        {
          "internalType": "uint256",
          "name": "id",
          "type": "uint256"
        },
        {
          "internalType": "uint256",
          "name": "amounts",
          "type": "uint256"
        }
      ],
      "name": "getItemPriceInToken",
      "outputs": [
        {
          "internalType": "uint256",
          "name": "price",
          "type": "uint256"
        }
      ],
      "stateMutability": "view",
      "type": "function"
    },
    {
      "inputs": [],
      "name": "version",
      "outputs": [
        {
          "internalType": "string",
          "name": "",
          "type": "string"
        }
      ],
      "stateMutability": "pure",
      "type": "function"
    },
    {
      "inputs": [
        {
          "internalType": "address",
          "name": "",
          "type": "address"
        },
        {
          "internalType": "address",
          "name": "",
          "type": "address"
        },
        {
          "internalType": "uint256",
          "name": "",
          "type": "uint256"
        },
        {
          "internalType": "uint256",
          "name": "",
          "type": "uint256"
        },
        {
          "internalType": "bytes",
          "name": "",
          "type": "bytes"
        }
      ],
      "name": "onERC1155Received",
      "outputs": [
        {
          "internalType": "bytes4",
          "name": "",
          "type": "bytes4"
        }
      ],
      "stateMutability": "nonpayable",
      "type": "function"
    },
    {
      "inputs": [
        {
          "internalType": "address",
          "name": "",
          "type": "address"
        },
        {
          "internalType": "address",
          "name": "",
          "type": "address"
        },
        {
          "internalType": "uint256[]",
          "name": "",
          "type": "uint256[]"
        },
        {
          "internalType": "uint256[]",
          "name": "",
          "type": "uint256[]"
        },
        {
          "internalType": "bytes",
          "name": "",
          "type": "bytes"
        }
      ],
      "name": "onERC1155BatchReceived",
      "outputs": [
        {
          "internalType": "bytes4",
          "name": "",
          "type": "bytes4"
        }
      ],
      "stateMutability": "nonpayable",
      "type": "function"
    },
    {
      "inputs": [
        {
          "internalType": "address",
          "name": "",
          "type": "address"
        },
        {
          "internalType": "address",
          "name": "",
          "type": "address"
        },
        {
          "internalType": "uint256",
          "name": "",
          "type": "uint256"
        },
        {
          "internalType": "bytes",
          "name": "",
          "type": "bytes"
        }
      ],
      "name": "onERC721Received",
      "outputs": [
        {
          "internalType": "bytes4",
          "name": "",
          "type": "bytes4"
        }
      ],
      "stateMutability": "nonpayable",
      "type": "function"
    }
  ],
  "bytecode": "0x60a06040523073ffffffffffffffffffffffffffffffffffffffff1660809073ffffffffffffffffffffffffffffffffffffffff168152503480156200004457600080fd5b50600060019054906101000a900460ff166200006f5760008054906101000a900460ff161562000080565b6200007f6200013c60201b60201c565b5b620000c2576040517f08c379a0000000000000000000000000000000000000000000000000000000008152600401620000b99062000204565b60405180910390fd5b60008060019054906101000a900460ff16159050801562000113576001600060016101000a81548160ff02191690831515021790555060016000806101000a81548160ff0219169083151502179055505b8015620001355760008060016101000a81548160ff0219169083151502179055505b5062000226565b600062000154306200015a60201b620033611760201c565b15905090565b6000808273ffffffffffffffffffffffffffffffffffffffff163b119050919050565b600082825260208201905092915050565b7f496e697469616c697a61626c653a20636f6e747261637420697320616c72656160008201527f647920696e697469616c697a6564000000000000000000000000000000000000602082015250565b6000620001ec602e836200017d565b9150620001f9826200018e565b604082019050919050565b600060208201905081810360008301526200021f81620001dd565b9050919050565b608051615e906200025e600039600081816109ca01528181610a58015281816110b00152818161113e01526111ee0152615e906000f3fe6080604052600436106101d15760003560e01c80637daea4de116100f7578063da52268111610095578063f31c7e3911610064578063f31c7e391461064d578063f3fef3a314610676578063fc615cb71461069f578063fe507481146106c8576101d8565b8063da5226811461057f578063e7e65017146105aa578063f23a6e61146105e7578063f2fde38b14610624576101d8565b8063a0edb48b116100d1578063a0edb48b146104b0578063bc197c81146104d9578063bfb231d214610516578063c0c53b8b14610556576101d8565b80637daea4de146104455780638456cb591461046e5780638da5cb5b14610485576101d8565b806344004cc11161016f57806354fd4d501161013e57806354fd4d50146103af5780635c975abb146103da578063715018a6146104055780637487f5281461041c576101d8565b806344004cc114610314578063451c3d801461033d5780634f1ef2861461036857806352d1902d14610384576101d8565b8063355eefc8116101ab578063355eefc8146102805780633659cfe6146102ab578063372e6a57146102d45780633f4ba83a146102fd576101d8565b806301ffc9a7146101dd578063150b7a021461021a5780632769b96b14610257576101d8565b366101d857005b600080fd5b3480156101e957600080fd5b5061020460048036038101906101ff9190613d51565b6106f1565b6040516102119190613d99565b60405180910390f35b34801561022657600080fd5b50610241600480360381019061023c9190613f8e565b61076b565b60405161024e9190614020565b60405180910390f35b34801561026357600080fd5b5061027e6004803603810190610279919061403b565b61077f565b005b34801561028c57600080fd5b506102956108f4565b6040516102a291906141b6565b60405180910390f35b3480156102b757600080fd5b506102d260048036038101906102cd91906141d8565b6109c8565b005b3480156102e057600080fd5b506102fb60048036038101906102f69190614231565b610b50565b005b34801561030957600080fd5b50610312610da3565b005b34801561032057600080fd5b5061033b60048036038101906103369190614298565b610e29565b005b34801561034957600080fd5b50610352611087565b60405161035f919061434a565b60405180910390f35b610382600480360381019061037d9190614365565b6110ae565b005b34801561039057600080fd5b506103996111ea565b6040516103a691906143d0565b60405180910390f35b3480156103bb57600080fd5b506103c46112a3565b6040516103d19190614473565b60405180910390f35b3480156103e657600080fd5b506103ef6112e0565b6040516103fc9190613d99565b60405180910390f35b34801561041157600080fd5b5061041a6112f7565b005b34801561042857600080fd5b50610443600480360381019061043e91906141d8565b61137f565b005b34801561045157600080fd5b5061046c600480360381019061046791906141d8565b6114e1565b005b34801561047a57600080fd5b50610483611643565b005b34801561049157600080fd5b5061049a6116c9565b6040516104a791906144a4565b60405180910390f35b3480156104bc57600080fd5b506104d760048036038101906104d291906144bf565b6116f3565b005b3480156104e557600080fd5b5061050060048036038101906104fb91906145ee565b611907565b60405161050d9190614020565b60405180910390f35b34801561052257600080fd5b5061053d600480360381019061053891906146bd565b61191c565b60405161054d94939291906146f9565b60405180910390f35b34801561056257600080fd5b5061057d6004803603810190610578919061473e565b61197d565b005b34801561058b57600080fd5b50610594611c5c565b6040516105a19190614791565b60405180910390f35b3480156105b657600080fd5b506105d160048036038101906105cc919061403b565b6127de565b6040516105de9190614791565b60405180910390f35b3480156105f357600080fd5b5061060e600480360381019061060991906147ac565b612969565b60405161061b9190614020565b60405180910390f35b34801561063057600080fd5b5061064b600480360381019061064691906141d8565b61297e565b005b34801561065957600080fd5b50610674600480360381019061066f91906141d8565b612a75565b005b34801561068257600080fd5b5061069d60048036038101906106989190614881565b612bd7565b005b3480156106ab57600080fd5b506106c660048036038101906106c191906146bd565b612d67565b005b3480156106d457600080fd5b506106ef60048036038101906106ea91906148c1565b61308c565b005b60007f4e2312e0000000000000000000000000000000000000000000000000000000007bffffffffffffffffffffffffffffffffffffffffffffffffffffffff1916827bffffffffffffffffffffffffffffffffffffffffffffffffffffffff19161480610764575061076382613384565b5b9050919050565b600063150b7a0260e01b9050949350505050565b6107876133ee565b73ffffffffffffffffffffffffffffffffffffffff166107a56116c9565b73ffffffffffffffffffffffffffffffffffffffff16146107fb576040517f08c379a00000000000000000000000000000000000000000000000000000000081526004016107f29061497c565b60405180910390fd5b610194805490508210610843576040517f08c379a000000000000000000000000000000000000000000000000000000000815260040161083a906149e8565b60405180910390fd5b60008103610886576040517f08c379a000000000000000000000000000000000000000000000000000000000815260040161087d90614a54565b60405180910390fd5b6000610194838154811061089d5761089c614a74565b5b906000526020600020906004020190508181600301819055507f0bfd84f586f186e4e2a0b575593a4b4b7735b4229f86de082fd9662d9324bb2783836040516108e7929190614aa3565b60405180910390a1505050565b6060610194805480602002602001604051908101604052809291908181526020016000905b828210156109bf57838290600052602060002090600402016040518060800160405290816000820160009054906101000a900473ffffffffffffffffffffffffffffffffffffffff1673ffffffffffffffffffffffffffffffffffffffff1673ffffffffffffffffffffffffffffffffffffffff168152602001600182015481526020016002820154815260200160038201548152505081526020019060010190610919565b50505050905090565b7f000000000000000000000000000000000000000000000000000000000000000073ffffffffffffffffffffffffffffffffffffffff163073ffffffffffffffffffffffffffffffffffffffff1603610a56576040517f08c379a0000000000000000000000000000000000000000000000000000000008152600401610a4d90614b3e565b60405180910390fd5b7f000000000000000000000000000000000000000000000000000000000000000073ffffffffffffffffffffffffffffffffffffffff16610a956133f6565b73ffffffffffffffffffffffffffffffffffffffff1614610aeb576040517f08c379a0000000000000000000000000000000000000000000000000000000008152600401610ae290614bd0565b60405180910390fd5b610af48161344d565b610b4d81600067ffffffffffffffff811115610b1357610b12613e63565b5b6040519080825280601f01601f191660200182016040528015610b455781602001600182028036833780820191505090505b5060006134cc565b50565b610b586133ee565b73ffffffffffffffffffffffffffffffffffffffff16610b766116c9565b73ffffffffffffffffffffffffffffffffffffffff1614610bcc576040517f08c379a0000000000000000000000000000000000000000000000000000000008152600401610bc39061497c565b60405180910390fd5b610beb8473ffffffffffffffffffffffffffffffffffffffff16613361565b610c2a576040517f08c379a0000000000000000000000000000000000000000000000000000000008152600401610c2190614c3c565b60405180910390fd5b60008111610c6d576040517f08c379a0000000000000000000000000000000000000000000000000000000008152600401610c6490614a54565b60405180910390fd5b61019460405180608001604052808673ffffffffffffffffffffffffffffffffffffffff16815260200185815260200184815260200183815250908060018154018082558091505060019003906000526020600020906004020160009091909190915060008201518160000160006101000a81548173ffffffffffffffffffffffffffffffffffffffff021916908373ffffffffffffffffffffffffffffffffffffffff16021790555060208201518160010155604082015181600201556060820151816003015550508373ffffffffffffffffffffffffffffffffffffffff167fd0de9872a08958c90cad062ce6cf97f6d7fb6096c1b9a9589e7bfe679f608e15600161019480549050610d829190614c8b565b858585604051610d959493929190614cbf565b60405180910390a250505050565b610dab6133ee565b73ffffffffffffffffffffffffffffffffffffffff16610dc96116c9565b73ffffffffffffffffffffffffffffffffffffffff1614610e1f576040517f08c379a0000000000000000000000000000000000000000000000000000000008152600401610e169061497c565b60405180910390fd5b610e2761363a565b565b610e316133ee565b73ffffffffffffffffffffffffffffffffffffffff16610e4f6116c9565b73ffffffffffffffffffffffffffffffffffffffff1614610ea5576040517f08c379a0000000000000000000000000000000000000000000000000000000008152600401610e9c9061497c565b60405180910390fd5b610ec48373ffffffffffffffffffffffffffffffffffffffff16613361565b610f03576040517f08c379a0000000000000000000000000000000000000000000000000000000008152600401610efa90614d76565b60405180910390fd5b6000839050818173ffffffffffffffffffffffffffffffffffffffff166370a08231306040518263ffffffff1660e01b8152600401610f4291906144a4565b602060405180830381865afa158015610f5f573d6000803e3d6000fd5b505050506040513d601f19601f82011682018060405250810190610f839190614dab565b1015610fc4576040517f08c379a0000000000000000000000000000000000000000000000000000000008152600401610fbb90614e4a565b60405180910390fd5b8073ffffffffffffffffffffffffffffffffffffffff1663a9059cbb84846040518363ffffffff1660e01b8152600401610fff929190614e6a565b6020604051808303816000875af115801561101e573d6000803e3d6000fd5b505050506040513d601f19601f820116820180604052508101906110429190614ebf565b611081576040517f08c379a000000000000000000000000000000000000000000000000000000000815260040161107890614f38565b60405180910390fd5b50505050565b61019160009054906101000a900473ffffffffffffffffffffffffffffffffffffffff1681565b7f000000000000000000000000000000000000000000000000000000000000000073ffffffffffffffffffffffffffffffffffffffff163073ffffffffffffffffffffffffffffffffffffffff160361113c576040517f08c379a000000000000000000000000000000000000000000000000000000000815260040161113390614b3e565b60405180910390fd5b7f000000000000000000000000000000000000000000000000000000000000000073ffffffffffffffffffffffffffffffffffffffff1661117b6133f6565b73ffffffffffffffffffffffffffffffffffffffff16146111d1576040517f08c379a00000000000000000000000000000000000000000000000000000000081526004016111c890614bd0565b60405180910390fd5b6111da8261344d565b6111e6828260016134cc565b5050565b60007f000000000000000000000000000000000000000000000000000000000000000073ffffffffffffffffffffffffffffffffffffffff163073ffffffffffffffffffffffffffffffffffffffff161461127a576040517f08c379a000000000000000000000000000000000000000000000000000000000815260040161127190614fca565b60405180910390fd5b7f360894a13ba1a3210667c828492db98dca3e2076cc3735a920a3ca505d382bbc60001b905090565b60606040518060400160405280600581526020017f312e302e30000000000000000000000000000000000000000000000000000000815250905090565b6000603360009054906101000a900460ff16905090565b6112ff6133ee565b73ffffffffffffffffffffffffffffffffffffffff1661131d6116c9565b73ffffffffffffffffffffffffffffffffffffffff1614611373576040517f08c379a000000000000000000000000000000000000000000000000000000000815260040161136a9061497c565b60405180910390fd5b61137d60006136dc565b565b6113876133ee565b73ffffffffffffffffffffffffffffffffffffffff166113a56116c9565b73ffffffffffffffffffffffffffffffffffffffff16146113fb576040517f08c379a00000000000000000000000000000000000000000000000000000000081526004016113f29061497c565b60405180910390fd5b61141a8173ffffffffffffffffffffffffffffffffffffffff16613361565b611459576040517f08c379a000000000000000000000000000000000000000000000000000000000815260040161145090614d76565b60405180910390fd5b8061019160006101000a81548173ffffffffffffffffffffffffffffffffffffffff021916908373ffffffffffffffffffffffffffffffffffffffff1602179055508073ffffffffffffffffffffffffffffffffffffffff167ffc49ccb34c222cddd284187f6f210905aee1dd0d41aa5c7eeabfd48a5eb260c260405160405180910390a250565b6114e96133ee565b73ffffffffffffffffffffffffffffffffffffffff166115076116c9565b73ffffffffffffffffffffffffffffffffffffffff161461155d576040517f08c379a00000000000000000000000000000000000000000000000000000000081526004016115549061497c565b60405180910390fd5b61157c8173ffffffffffffffffffffffffffffffffffffffff16613361565b6115bb576040517f08c379a00000000000000000000000000000000000000000000000000000000081526004016115b29061505c565b60405180910390fd5b8061019360006101000a81548173ffffffffffffffffffffffffffffffffffffffff021916908373ffffffffffffffffffffffffffffffffffffffff1602179055508073ffffffffffffffffffffffffffffffffffffffff167f5dc516cffaeb771da3ac876ceda0de10eb9c22af857ad302caa881ca0083677660405160405180910390a250565b61164b6133ee565b73ffffffffffffffffffffffffffffffffffffffff166116696116c9565b73ffffffffffffffffffffffffffffffffffffffff16146116bf576040517f08c379a00000000000000000000000000000000000000000000000000000000081526004016116b69061497c565b60405180910390fd5b6116c76137a2565b565b6000606560009054906101000a900473ffffffffffffffffffffffffffffffffffffffff16905090565b6116fb6133ee565b73ffffffffffffffffffffffffffffffffffffffff166117196116c9565b73ffffffffffffffffffffffffffffffffffffffff161461176f576040517f08c379a00000000000000000000000000000000000000000000000000000000081526004016117669061497c565b60405180910390fd5b61178e8473ffffffffffffffffffffffffffffffffffffffff16613361565b6117cd576040517f08c379a00000000000000000000000000000000000000000000000000000000081526004016117c4906150ee565b60405180910390fd5b6000849050818173ffffffffffffffffffffffffffffffffffffffff1662fdd58e30866040518363ffffffff1660e01b815260040161180d929190614e6a565b602060405180830381865afa15801561182a573d6000803e3d6000fd5b505050506040513d601f19601f8201168201806040525081019061184e9190614dab565b101561188f576040517f08c379a000000000000000000000000000000000000000000000000000000000815260040161188690615180565b60405180910390fd5b8073ffffffffffffffffffffffffffffffffffffffff1663f242432a308686866040518563ffffffff1660e01b81526004016118ce94939291906151d7565b600060405180830381600087803b1580156118e857600080fd5b505af11580156118fc573d6000803e3d6000fd5b505050505050505050565b600063bc197c8160e01b905095945050505050565b610194818154811061192d57600080fd5b90600052602060002090600402016000915090508060000160009054906101000a900473ffffffffffffffffffffffffffffffffffffffff16908060010154908060020154908060030154905084565b600060019054906101000a900460ff166119a55760008054906101000a900460ff16156119ae565b6119ad613845565b5b6119ed576040517f08c379a00000000000000000000000000000000000000000000000000000000081526004016119e4906152a1565b60405180910390fd5b60008060019054906101000a900460ff161590508015611a3d576001600060016101000a81548160ff02191690831515021790555060016000806101000a81548160ff0219169083151502179055505b611a5c8473ffffffffffffffffffffffffffffffffffffffff16613361565b611a9b576040517f08c379a0000000000000000000000000000000000000000000000000000000008152600401611a9290614d76565b60405180910390fd5b611aba8373ffffffffffffffffffffffffffffffffffffffff16613361565b611af9576040517f08c379a0000000000000000000000000000000000000000000000000000000008152600401611af090615333565b60405180910390fd5b611b188273ffffffffffffffffffffffffffffffffffffffff16613361565b611b57576040517f08c379a0000000000000000000000000000000000000000000000000000000008152600401611b4e9061505c565b60405180910390fd5b8361019160006101000a81548173ffffffffffffffffffffffffffffffffffffffff021916908373ffffffffffffffffffffffffffffffffffffffff1602179055508261019260006101000a81548173ffffffffffffffffffffffffffffffffffffffff021916908373ffffffffffffffffffffffffffffffffffffffff1602179055508161019360006101000a81548173ffffffffffffffffffffffffffffffffffffffff021916908373ffffffffffffffffffffffffffffffffffffffff160217905550611c25613856565b611c2d6138af565b611c35613908565b8015611c565760008060016101000a81548160ff0219169083151502179055505b50505050565b60008060009050600080600061019360009054906101000a900473ffffffffffffffffffffffffffffffffffffffff1673ffffffffffffffffffffffffffffffffffffffff16630dfe16816040518163ffffffff1660e01b8152600401602060405180830381865afa158015611cd6573d6000803e3d6000fd5b505050506040513d601f19601f82011682018060405250810190611cfa9190615368565b73ffffffffffffffffffffffffffffffffffffffff1661019260009054906101000a900473ffffffffffffffffffffffffffffffffffffffff1673ffffffffffffffffffffffffffffffffffffffff1663d21220a76040518163ffffffff1660e01b8152600401602060405180830381865afa158015611d7e573d6000803e3d6000fd5b505050506040513d601f19601f82011682018060405250810190611da29190615368565b73ffffffffffffffffffffffffffffffffffffffff1603611f9b5761019260009054906101000a900473ffffffffffffffffffffffffffffffffffffffff1673ffffffffffffffffffffffffffffffffffffffff16630902f1ac6040518163ffffffff1660e01b8152600401606060405180830381865afa158015611e2b573d6000803e3d6000fd5b505050506040513d601f19601f82011682018060405250810190611e4f9190615417565b826dffffffffffffffffffffffffffff169250816dffffffffffffffffffffffffffff16915050809450819550505061019360009054906101000a900473ffffffffffffffffffffffffffffffffffffffff1673ffffffffffffffffffffffffffffffffffffffff16630902f1ac6040518163ffffffff1660e01b8152600401606060405180830381865afa158015611eec573d6000803e3d6000fd5b505050506040513d601f19601f82011682018060405250810190611f109190615417565b826dffffffffffffffffffffffffffff169250816dffffffffffffffffffffffffffff169150508092508193505050611f90611f55858461395990919063ffffffff16565b611f82670de0b6b3a7640000611f74878661395990919063ffffffff16565b61395990919063ffffffff16565b61396f90919063ffffffff16565b9450505050506127db565b61019360009054906101000a900473ffffffffffffffffffffffffffffffffffffffff1673ffffffffffffffffffffffffffffffffffffffff1663d21220a76040518163ffffffff1660e01b8152600401602060405180830381865afa158015612009573d6000803e3d6000fd5b505050506040513d601f19601f8201168201806040525081019061202d9190615368565b73ffffffffffffffffffffffffffffffffffffffff1661019260009054906101000a900473ffffffffffffffffffffffffffffffffffffffff1673ffffffffffffffffffffffffffffffffffffffff1663d21220a76040518163ffffffff1660e01b8152600401602060405180830381865afa1580156120b1573d6000803e3d6000fd5b505050506040513d601f19601f820116820180604052508101906120d59190615368565b73ffffffffffffffffffffffffffffffffffffffff16036122ce5761019260009054906101000a900473ffffffffffffffffffffffffffffffffffffffff1673ffffffffffffffffffffffffffffffffffffffff16630902f1ac6040518163ffffffff1660e01b8152600401606060405180830381865afa15801561215e573d6000803e3d6000fd5b505050506040513d601f19601f820116820180604052508101906121829190615417565b826dffffffffffffffffffffffffffff169250816dffffffffffffffffffffffffffff16915050809450819550505061019360009054906101000a900473ffffffffffffffffffffffffffffffffffffffff1673ffffffffffffffffffffffffffffffffffffffff16630902f1ac6040518163ffffffff1660e01b8152600401606060405180830381865afa15801561221f573d6000803e3d6000fd5b505050506040513d601f19601f820116820180604052508101906122439190615417565b826dffffffffffffffffffffffffffff169250816dffffffffffffffffffffffffffff1691505080935081925050506122c3612288858461395990919063ffffffff16565b6122b5670de0b6b3a76400006122a7878661395990919063ffffffff16565b61395990919063ffffffff16565b61396f90919063ffffffff16565b9450505050506127db565b61019360009054906101000a900473ffffffffffffffffffffffffffffffffffffffff1673ffffffffffffffffffffffffffffffffffffffff16630dfe16816040518163ffffffff1660e01b8152600401602060405180830381865afa15801561233c573d6000803e3d6000fd5b505050506040513d601f19601f820116820180604052508101906123609190615368565b73ffffffffffffffffffffffffffffffffffffffff1661019260009054906101000a900473ffffffffffffffffffffffffffffffffffffffff1673ffffffffffffffffffffffffffffffffffffffff16630dfe16816040518163ffffffff1660e01b8152600401602060405180830381865afa1580156123e4573d6000803e3d6000fd5b505050506040513d601f19601f820116820180604052508101906124089190615368565b73ffffffffffffffffffffffffffffffffffffffff16036126015761019260009054906101000a900473ffffffffffffffffffffffffffffffffffffffff1673ffffffffffffffffffffffffffffffffffffffff16630902f1ac6040518163ffffffff1660e01b8152600401606060405180830381865afa158015612491573d6000803e3d6000fd5b505050506040513d601f19601f820116820180604052508101906124b59190615417565b826dffffffffffffffffffffffffffff169250816dffffffffffffffffffffffffffff16915050809550819450505061019360009054906101000a900473ffffffffffffffffffffffffffffffffffffffff1673ffffffffffffffffffffffffffffffffffffffff16630902f1ac6040518163ffffffff1660e01b8152600401606060405180830381865afa158015612552573d6000803e3d6000fd5b505050506040513d601f19601f820116820180604052508101906125769190615417565b826dffffffffffffffffffffffffffff169250816dffffffffffffffffffffffffffff1691505080925081935050506125f66125bb858461395990919063ffffffff16565b6125e8670de0b6b3a76400006125da878661395990919063ffffffff16565b61395990919063ffffffff16565b61396f90919063ffffffff16565b9450505050506127db565b61019260009054906101000a900473ffffffffffffffffffffffffffffffffffffffff1673ffffffffffffffffffffffffffffffffffffffff16630902f1ac6040518163ffffffff1660e01b8152600401606060405180830381865afa15801561266f573d6000803e3d6000fd5b505050506040513d601f19601f820116820180604052508101906126939190615417565b826dffffffffffffffffffffffffffff169250816dffffffffffffffffffffffffffff16915050809550819450505061019360009054906101000a900473ffffffffffffffffffffffffffffffffffffffff1673ffffffffffffffffffffffffffffffffffffffff16630902f1ac6040518163ffffffff1660e01b8152600401606060405180830381865afa158015612730573d6000803e3d6000fd5b505050506040513d601f19601f820116820180604052508101906127549190615417565b826dffffffffffffffffffffffffffff169250816dffffffffffffffffffffffffffff1691505080935081925050506127d4612799858461395990919063ffffffff16565b6127c6670de0b6b3a76400006127b8878661395990919063ffffffff16565b61395990919063ffffffff16565b61396f90919063ffffffff16565b9450505050505b90565b6000808211612822576040517f08c379a0000000000000000000000000000000000000000000000000000000008152600401612819906154dc565b60405180910390fd5b61019480549050831061286a576040517f08c379a0000000000000000000000000000000000000000000000000000000008152600401612861906149e8565b60405180910390fd5b6000610194848154811061288157612880614a74565b5b90600052602060002090600402016040518060800160405290816000820160009054906101000a900473ffffffffffffffffffffffffffffffffffffffff1673ffffffffffffffffffffffffffffffffffffffff1673ffffffffffffffffffffffffffffffffffffffff16815260200160018201548152602001600282015481526020016003820154815250509050600061291a611c5c565b905061295f81612951670de0b6b3a764000061294388876060015161395990919063ffffffff16565b61395990919063ffffffff16565b61396f90919063ffffffff16565b9250505092915050565b600063f23a6e6160e01b905095945050505050565b6129866133ee565b73ffffffffffffffffffffffffffffffffffffffff166129a46116c9565b73ffffffffffffffffffffffffffffffffffffffff16146129fa576040517f08c379a00000000000000000000000000000000000000000000000000000000081526004016129f19061497c565b60405180910390fd5b600073ffffffffffffffffffffffffffffffffffffffff168173ffffffffffffffffffffffffffffffffffffffff1603612a69576040517f08c379a0000000000000000000000000000000000000000000000000000000008152600401612a609061556e565b60405180910390fd5b612a72816136dc565b50565b612a7d6133ee565b73ffffffffffffffffffffffffffffffffffffffff16612a9b6116c9565b73ffffffffffffffffffffffffffffffffffffffff1614612af1576040517f08c379a0000000000000000000000000000000000000000000000000000000008152600401612ae89061497c565b60405180910390fd5b612b108173ffffffffffffffffffffffffffffffffffffffff16613361565b612b4f576040517f08c379a0000000000000000000000000000000000000000000000000000000008152600401612b4690615333565b60405180910390fd5b8061019260006101000a81548173ffffffffffffffffffffffffffffffffffffffff021916908373ffffffffffffffffffffffffffffffffffffffff1602179055508073ffffffffffffffffffffffffffffffffffffffff167f0c71903fb7a6c05dca516a08519a63d95988278010e066995c20fbf115aa755360405160405180910390a250565b612bdf6133ee565b73ffffffffffffffffffffffffffffffffffffffff16612bfd6116c9565b73ffffffffffffffffffffffffffffffffffffffff1614612c53576040517f08c379a0000000000000000000000000000000000000000000000000000000008152600401612c4a9061497c565b60405180910390fd5b600073ffffffffffffffffffffffffffffffffffffffff168273ffffffffffffffffffffffffffffffffffffffff1603612cc2576040517f08c379a0000000000000000000000000000000000000000000000000000000008152600401612cb9906155da565b60405180910390fd5b3073ffffffffffffffffffffffffffffffffffffffff1631811115612d1c576040517f08c379a0000000000000000000000000000000000000000000000000000000008152600401612d1390614e4a565b60405180910390fd5b8173ffffffffffffffffffffffffffffffffffffffff166108fc829081150290604051600060405180830381858888f19350505050158015612d62573d6000803e3d6000fd5b505050565b612d6f6133ee565b73ffffffffffffffffffffffffffffffffffffffff16612d8d6116c9565b73ffffffffffffffffffffffffffffffffffffffff1614612de3576040517f08c379a0000000000000000000000000000000000000000000000000000000008152600401612dda9061497c565b60405180910390fd5b610194805490508110612e2b576040517f08c379a0000000000000000000000000000000000000000000000000000000008152600401612e229061566c565b60405180910390fd5b60006101948281548110612e4257612e41614a74565b5b90600052602060002090600402016040518060800160405290816000820160009054906101000a900473ffffffffffffffffffffffffffffffffffffffff1673ffffffffffffffffffffffffffffffffffffffff1673ffffffffffffffffffffffffffffffffffffffff168152602001600182015481526020016002820154815260200160038201548152505090506000600161019480549050612ee69190614c8b565b9050828114612fbe576101948181548110612f0457612f03614a74565b5b90600052602060002090600402016101948481548110612f2757612f26614a74565b5b90600052602060002090600402016000820160009054906101000a900473ffffffffffffffffffffffffffffffffffffffff168160000160006101000a81548173ffffffffffffffffffffffffffffffffffffffff021916908373ffffffffffffffffffffffffffffffffffffffff1602179055506001820154816001015560028201548160020155600382015481600301559050505b610194805480612fd157612fd061568c565b5b6001900381819060005260206000209060040201600080820160006101000a81549073ffffffffffffffffffffffffffffffffffffffff021916905560018201600090556002820160009055600382016000905550509055816000015173ffffffffffffffffffffffffffffffffffffffff167f5bc4b98baedaa04c486ef2cc5c003d70e3673ade2c34096e6c128a0668c6d351848460200151856060015160405161307f939291906156bb565b60405180910390a2505050565b6130946133ee565b73ffffffffffffffffffffffffffffffffffffffff166130b26116c9565b73ffffffffffffffffffffffffffffffffffffffff1614613108576040517f08c379a00000000000000000000000000000000000000000000000000000000081526004016130ff9061497c565b60405180910390fd5b6102268151111561314e576040517f08c379a000000000000000000000000000000000000000000000000000000000815260040161314590615764565b60405180910390fd5b61316d8373ffffffffffffffffffffffffffffffffffffffff16613361565b6131ac576040517f08c379a00000000000000000000000000000000000000000000000000000000081526004016131a3906157f6565b60405180910390fd5b600083905060005b825181101561335a573073ffffffffffffffffffffffffffffffffffffffff168273ffffffffffffffffffffffffffffffffffffffff16636352211e85848151811061320357613202614a74565b5b60200260200101516040518263ffffffff1660e01b81526004016132279190614791565b602060405180830381865afa158015613244573d6000803e3d6000fd5b505050506040513d601f19601f820116820180604052508101906132689190615368565b73ffffffffffffffffffffffffffffffffffffffff16146132be576040517f08c379a00000000000000000000000000000000000000000000000000000000081526004016132b590615888565b60405180910390fd5b8173ffffffffffffffffffffffffffffffffffffffff166342842e0e30868685815181106132ef576132ee614a74565b5b60200260200101516040518463ffffffff1660e01b8152600401613315939291906158a8565b600060405180830381600087803b15801561332f57600080fd5b505af1158015613343573d6000803e3d6000fd5b505050508080613352906158df565b9150506131b4565b5050505050565b6000808273ffffffffffffffffffffffffffffffffffffffff163b119050919050565b60007f01ffc9a7000000000000000000000000000000000000000000000000000000007bffffffffffffffffffffffffffffffffffffffffffffffffffffffff1916827bffffffffffffffffffffffffffffffffffffffffffffffffffffffff1916149050919050565b600033905090565b60006134247f360894a13ba1a3210667c828492db98dca3e2076cc3735a920a3ca505d382bbc60001b613985565b60000160009054906101000a900473ffffffffffffffffffffffffffffffffffffffff16905090565b6134556133ee565b73ffffffffffffffffffffffffffffffffffffffff166134736116c9565b73ffffffffffffffffffffffffffffffffffffffff16146134c9576040517f08c379a00000000000000000000000000000000000000000000000000000000081526004016134c09061497c565b60405180910390fd5b50565b6134f87f4910fdfa16fed3260ed0e7147f7cc6da11a60208b5b9406d12a635614ffd914360001b61398f565b60000160009054906101000a900460ff161561351c5761351783613999565b613635565b8273ffffffffffffffffffffffffffffffffffffffff166352d1902d6040518163ffffffff1660e01b8152600401602060405180830381865afa92505050801561358457506040513d601f19601f82011682018060405250810190613581919061593c565b60015b6135c3576040517f08c379a00000000000000000000000000000000000000000000000000000000081526004016135ba906159db565b60405180910390fd5b7f360894a13ba1a3210667c828492db98dca3e2076cc3735a920a3ca505d382bbc60001b8114613628576040517f08c379a000000000000000000000000000000000000000000000000000000000815260040161361f90615a6d565b60405180910390fd5b50613634838383613a52565b5b505050565b6136426112e0565b613681576040517f08c379a000000000000000000000000000000000000000000000000000000000815260040161367890615ad9565b60405180910390fd5b6000603360006101000a81548160ff0219169083151502179055507f5db9ee0a495bf2e6ff9c91a7834c1ba4fdd244a5e8aa4e537bd38aeae4b073aa6136c56133ee565b6040516136d291906144a4565b60405180910390a1565b6000606560009054906101000a900473ffffffffffffffffffffffffffffffffffffffff16905081606560006101000a81548173ffffffffffffffffffffffffffffffffffffffff021916908373ffffffffffffffffffffffffffffffffffffffff1602179055508173ffffffffffffffffffffffffffffffffffffffff168173ffffffffffffffffffffffffffffffffffffffff167f8be0079c531659141344cd1fd0a4f28419497f9722a3daafe3b4186f6b6457e060405160405180910390a35050565b6137aa6112e0565b156137ea576040517f08c379a00000000000000000000000000000000000000000000000000000000081526004016137e190615b45565b60405180910390fd5b6001603360006101000a81548160ff0219169083151502179055507f62e78cea01bee320cd4e420270b5ea74000d11b0c9f74754ebdbfc544b05a25861382e6133ee565b60405161383b91906144a4565b60405180910390a1565b600061385030613361565b15905090565b600060019054906101000a900460ff166138a5576040517f08c379a000000000000000000000000000000000000000000000000000000000815260040161389c90615bd7565b60405180910390fd5b6138ad613a7e565b565b600060019054906101000a900460ff166138fe576040517f08c379a00000000000000000000000000000000000000000000000000000000081526004016138f590615bd7565b60405180910390fd5b613906613aea565b565b600060019054906101000a900460ff16613957576040517f08c379a000000000000000000000000000000000000000000000000000000000815260040161394e90615bd7565b60405180910390fd5b565b600081836139679190615bf7565b905092915050565b6000818361397d9190615c80565b905092915050565b6000819050919050565b6000819050919050565b6139a281613361565b6139e1576040517f08c379a00000000000000000000000000000000000000000000000000000000081526004016139d890615d23565b60405180910390fd5b80613a0e7f360894a13ba1a3210667c828492db98dca3e2076cc3735a920a3ca505d382bbc60001b613985565b60000160006101000a81548173ffffffffffffffffffffffffffffffffffffffff021916908373ffffffffffffffffffffffffffffffffffffffff16021790555050565b613a5b83613b4b565b600082511180613a685750805b15613a7957613a778383613b9a565b505b505050565b600060019054906101000a900460ff16613acd576040517f08c379a0000000000000000000000000000000000000000000000000000000008152600401613ac490615bd7565b60405180910390fd5b6000603360006101000a81548160ff021916908315150217905550565b600060019054906101000a900460ff16613b39576040517f08c379a0000000000000000000000000000000000000000000000000000000008152600401613b3090615bd7565b60405180910390fd5b613b49613b446133ee565b6136dc565b565b613b5481613999565b8073ffffffffffffffffffffffffffffffffffffffff167fbc7cd75a20ee27fd9adebab32041f755214dbc6bffa90cc0225b39da2e5c2d3b60405160405180910390a250565b6060613ba583613361565b613be4576040517f08c379a0000000000000000000000000000000000000000000000000000000008152600401613bdb90615db5565b60405180910390fd5b6000808473ffffffffffffffffffffffffffffffffffffffff1684604051613c0c9190615e1c565b600060405180830381855af49150503d8060008114613c47576040519150601f19603f3d011682016040523d82523d6000602084013e613c4c565b606091505b5091509150613c748282604051806060016040528060278152602001615e3460279139613c7e565b9250505092915050565b60608315613c8e57829050613cde565b600083511115613ca15782518084602001fd5b816040517f08c379a0000000000000000000000000000000000000000000000000000000008152600401613cd59190614473565b60405180910390fd5b9392505050565b6000604051905090565b600080fd5b600080fd5b60007fffffffff0000000000000000000000000000000000000000000000000000000082169050919050565b613d2e81613cf9565b8114613d3957600080fd5b50565b600081359050613d4b81613d25565b92915050565b600060208284031215613d6757613d66613cef565b5b6000613d7584828501613d3c565b91505092915050565b60008115159050919050565b613d9381613d7e565b82525050565b6000602082019050613dae6000830184613d8a565b92915050565b600073ffffffffffffffffffffffffffffffffffffffff82169050919050565b6000613ddf82613db4565b9050919050565b613def81613dd4565b8114613dfa57600080fd5b50565b600081359050613e0c81613de6565b92915050565b6000819050919050565b613e2581613e12565b8114613e3057600080fd5b50565b600081359050613e4281613e1c565b92915050565b600080fd5b600080fd5b6000601f19601f8301169050919050565b7f4e487b7100000000000000000000000000000000000000000000000000000000600052604160045260246000fd5b613e9b82613e52565b810181811067ffffffffffffffff82111715613eba57613eb9613e63565b5b80604052505050565b6000613ecd613ce5565b9050613ed98282613e92565b919050565b600067ffffffffffffffff821115613ef957613ef8613e63565b5b613f0282613e52565b9050602081019050919050565b82818337600083830152505050565b6000613f31613f2c84613ede565b613ec3565b905082815260208101848484011115613f4d57613f4c613e4d565b5b613f58848285613f0f565b509392505050565b600082601f830112613f7557613f74613e48565b5b8135613f85848260208601613f1e565b91505092915050565b60008060008060808587031215613fa857613fa7613cef565b5b6000613fb687828801613dfd565b9450506020613fc787828801613dfd565b9350506040613fd887828801613e33565b925050606085013567ffffffffffffffff811115613ff957613ff8613cf4565b5b61400587828801613f60565b91505092959194509250565b61401a81613cf9565b82525050565b60006020820190506140356000830184614011565b92915050565b6000806040838503121561405257614051613cef565b5b600061406085828601613e33565b925050602061407185828601613e33565b9150509250929050565b600081519050919050565b600082825260208201905092915050565b6000819050602082019050919050565b6140b081613dd4565b82525050565b6140bf81613e12565b82525050565b6000819050919050565b6140d8816140c5565b82525050565b6080820160008201516140f460008501826140a7565b50602082015161410760208501826140b6565b50604082015161411a60408501826140cf565b50606082015161412d60608501826140b6565b50505050565b600061413f83836140de565b60808301905092915050565b6000602082019050919050565b60006141638261407b565b61416d8185614086565b935061417883614097565b8060005b838110156141a95781516141908882614133565b975061419b8361414b565b92505060018101905061417c565b5085935050505092915050565b600060208201905081810360008301526141d08184614158565b905092915050565b6000602082840312156141ee576141ed613cef565b5b60006141fc84828501613dfd565b91505092915050565b61420e816140c5565b811461421957600080fd5b50565b60008135905061422b81614205565b92915050565b6000806000806080858703121561424b5761424a613cef565b5b600061425987828801613dfd565b945050602061426a87828801613e33565b935050604061427b8782880161421c565b925050606061428c87828801613e33565b91505092959194509250565b6000806000606084860312156142b1576142b0613cef565b5b60006142bf86828701613dfd565b93505060206142d086828701613dfd565b92505060406142e186828701613e33565b9150509250925092565b6000819050919050565b600061431061430b61430684613db4565b6142eb565b613db4565b9050919050565b6000614322826142f5565b9050919050565b600061433482614317565b9050919050565b61434481614329565b82525050565b600060208201905061435f600083018461433b565b92915050565b6000806040838503121561437c5761437b613cef565b5b600061438a85828601613dfd565b925050602083013567ffffffffffffffff8111156143ab576143aa613cf4565b5b6143b785828601613f60565b9150509250929050565b6143ca816140c5565b82525050565b60006020820190506143e560008301846143c1565b92915050565b600081519050919050565b600082825260208201905092915050565b60005b8381101561442557808201518184015260208101905061440a565b83811115614434576000848401525b50505050565b6000614445826143eb565b61444f81856143f6565b935061445f818560208601614407565b61446881613e52565b840191505092915050565b6000602082019050818103600083015261448d818461443a565b905092915050565b61449e81613dd4565b82525050565b60006020820190506144b96000830184614495565b92915050565b600080600080608085870312156144d9576144d8613cef565b5b60006144e787828801613dfd565b94505060206144f887828801613dfd565b935050604061450987828801613e33565b925050606061451a87828801613e33565b91505092959194509250565b600067ffffffffffffffff82111561454157614540613e63565b5b602082029050602081019050919050565b600080fd5b600061456a61456584614526565b613ec3565b9050808382526020820190506020840283018581111561458d5761458c614552565b5b835b818110156145b657806145a28882613e33565b84526020840193505060208101905061458f565b5050509392505050565b600082601f8301126145d5576145d4613e48565b5b81356145e5848260208601614557565b91505092915050565b600080600080600060a0868803121561460a57614609613cef565b5b600061461888828901613dfd565b955050602061462988828901613dfd565b945050604086013567ffffffffffffffff81111561464a57614649613cf4565b5b614656888289016145c0565b935050606086013567ffffffffffffffff81111561467757614676613cf4565b5b614683888289016145c0565b925050608086013567ffffffffffffffff8111156146a4576146a3613cf4565b5b6146b088828901613f60565b9150509295509295909350565b6000602082840312156146d3576146d2613cef565b5b60006146e184828501613e33565b91505092915050565b6146f381613e12565b82525050565b600060808201905061470e6000830187614495565b61471b60208301866146ea565b61472860408301856143c1565b61473560608301846146ea565b95945050505050565b60008060006060848603121561475757614756613cef565b5b600061476586828701613dfd565b935050602061477686828701613dfd565b925050604061478786828701613dfd565b9150509250925092565b60006020820190506147a660008301846146ea565b92915050565b600080600080600060a086880312156147c8576147c7613cef565b5b60006147d688828901613dfd565b95505060206147e788828901613dfd565b94505060406147f888828901613e33565b935050606061480988828901613e33565b925050608086013567ffffffffffffffff81111561482a57614829613cf4565b5b61483688828901613f60565b9150509295509295909350565b600061484e82613db4565b9050919050565b61485e81614843565b811461486957600080fd5b50565b60008135905061487b81614855565b92915050565b6000806040838503121561489857614897613cef565b5b60006148a68582860161486c565b92505060206148b785828601613e33565b9150509250929050565b6000806000606084860312156148da576148d9613cef565b5b60006148e886828701613dfd565b93505060206148f986828701613dfd565b925050604084013567ffffffffffffffff81111561491a57614919613cf4565b5b614926868287016145c0565b9150509250925092565b7f4f776e61626c653a2063616c6c6572206973206e6f7420746865206f776e6572600082015250565b60006149666020836143f6565b915061497182614930565b602082019050919050565b6000602082019050818103600083015261499581614959565b9050919050565b7f4974656d20646f65736e27742065786973747300000000000000000000000000600082015250565b60006149d26013836143f6565b91506149dd8261499c565b602082019050919050565b60006020820190508181036000830152614a01816149c5565b9050919050565b7f4974656d2070726963652063616e277420626520300000000000000000000000600082015250565b6000614a3e6015836143f6565b9150614a4982614a08565b602082019050919050565b60006020820190508181036000830152614a6d81614a31565b9050919050565b7f4e487b7100000000000000000000000000000000000000000000000000000000600052603260045260246000fd5b6000604082019050614ab860008301856146ea565b614ac560208301846146ea565b9392505050565b7f46756e6374696f6e206d7573742062652063616c6c6564207468726f7567682060008201527f64656c656761746563616c6c0000000000000000000000000000000000000000602082015250565b6000614b28602c836143f6565b9150614b3382614acc565b604082019050919050565b60006020820190508181036000830152614b5781614b1b565b9050919050565b7f46756e6374696f6e206d7573742062652063616c6c6564207468726f7567682060008201527f6163746976652070726f78790000000000000000000000000000000000000000602082015250565b6000614bba602c836143f6565b9150614bc582614b5e565b604082019050919050565b60006020820190508181036000830152614be981614bad565b9050919050565b7f4e46542061646472657373206d757374206265206120636f6e74726163740000600082015250565b6000614c26601e836143f6565b9150614c3182614bf0565b602082019050919050565b60006020820190508181036000830152614c5581614c19565b9050919050565b7f4e487b7100000000000000000000000000000000000000000000000000000000600052601160045260246000fd5b6000614c9682613e12565b9150614ca183613e12565b925082821015614cb457614cb3614c5c565b5b828203905092915050565b6000608082019050614cd460008301876146ea565b614ce160208301866146ea565b614cee60408301856143c1565b614cfb60608301846146ea565b95945050505050565b7f455243323020746f6b656e2061646472657373206d757374206265206120636f60008201527f6e74726163740000000000000000000000000000000000000000000000000000602082015250565b6000614d606026836143f6565b9150614d6b82614d04565b604082019050919050565b60006020820190508181036000830152614d8f81614d53565b9050919050565b600081519050614da581613e1c565b92915050565b600060208284031215614dc157614dc0613cef565b5b6000614dcf84828501614d96565b91505092915050565b7f596f752061726520747279696e6720746f207769746864726177206d6f72652060008201527f66756e6473207468616e20617661696c61626c65000000000000000000000000602082015250565b6000614e346034836143f6565b9150614e3f82614dd8565b604082019050919050565b60006020820190508181036000830152614e6381614e27565b9050919050565b6000604082019050614e7f6000830185614495565b614e8c60208301846146ea565b9392505050565b614e9c81613d7e565b8114614ea757600080fd5b50565b600081519050614eb981614e93565b92915050565b600060208284031215614ed557614ed4613cef565b5b6000614ee384828501614eaa565b91505092915050565b7f4661696c206f6e207472616e7366657200000000000000000000000000000000600082015250565b6000614f226010836143f6565b9150614f2d82614eec565b602082019050919050565b60006020820190508181036000830152614f5181614f15565b9050919050565b7f555550535570677261646561626c653a206d757374206e6f742062652063616c60008201527f6c6564207468726f7567682064656c656761746563616c6c0000000000000000602082015250565b6000614fb46038836143f6565b9150614fbf82614f58565b604082019050919050565b60006020820190508181036000830152614fe381614fa7565b9050919050565b7f426e6242757364506169722061646472657373206d757374206265206120636f60008201527f6e74726163740000000000000000000000000000000000000000000000000000602082015250565b60006150466026836143f6565b915061505182614fea565b604082019050919050565b6000602082019050818103600083015261507581615039565b9050919050565b7f4552433131353520746f6b656e2061646472657373206d75737420626520612060008201527f636f6e7472616374000000000000000000000000000000000000000000000000602082015250565b60006150d86028836143f6565b91506150e38261507c565b604082019050919050565b60006020820190508181036000830152615107816150cb565b9050919050565b7f53746f726520646f65736e2774206f776e2074686520616d6f756e74206f662060008201527f746f6b656e7320746f2077697468647261770000000000000000000000000000602082015250565b600061516a6032836143f6565b91506151758261510e565b604082019050919050565b600060208201905081810360008301526151998161515d565b9050919050565b600082825260208201905092915050565b50565b60006151c16000836151a0565b91506151cc826151b1565b600082019050919050565b600060a0820190506151ec6000830187614495565b6151f96020830186614495565b61520660408301856146ea565b61521360608301846146ea565b8181036080830152615224816151b4565b905095945050505050565b7f496e697469616c697a61626c653a20636f6e747261637420697320616c72656160008201527f647920696e697469616c697a6564000000000000000000000000000000000000602082015250565b600061528b602e836143f6565b91506152968261522f565b604082019050919050565b600060208201905081810360008301526152ba8161527e565b9050919050565b7f546b6e426e62506169722061646472657373206d757374206265206120636f6e60008201527f7472616374000000000000000000000000000000000000000000000000000000602082015250565b600061531d6025836143f6565b9150615328826152c1565b604082019050919050565b6000602082019050818103600083015261534c81615310565b9050919050565b60008151905061536281613de6565b92915050565b60006020828403121561537e5761537d613cef565b5b600061538c84828501615353565b91505092915050565b60006dffffffffffffffffffffffffffff82169050919050565b6153b881615395565b81146153c357600080fd5b50565b6000815190506153d5816153af565b92915050565b600063ffffffff82169050919050565b6153f4816153db565b81146153ff57600080fd5b50565b600081519050615411816153eb565b92915050565b6000806000606084860312156154305761542f613cef565b5b600061543e868287016153c6565b935050602061544f868287016153c6565b925050604061546086828701615402565b9150509250925092565b7f416d6f756e7473206d7573742062652067726561746572207468616e207a657260008201527f6f00000000000000000000000000000000000000000000000000000000000000602082015250565b60006154c66021836143f6565b91506154d18261546a565b604082019050919050565b600060208201905081810360008301526154f5816154b9565b9050919050565b7f4f776e61626c653a206e6577206f776e657220697320746865207a65726f206160008201527f6464726573730000000000000000000000000000000000000000000000000000602082015250565b60006155586026836143f6565b9150615563826154fc565b604082019050919050565b600060208201905081810360008301526155878161554b565b9050919050565b7f7472616e7366657220746f20746865207a65726f206164647265737300000000600082015250565b60006155c4601c836143f6565b91506155cf8261558e565b602082019050919050565b600060208201905081810360008301526155f3816155b7565b9050919050565b7f49642073686f756c64206265206265747765656e203020616e64206974656d7360008201527f206c656e67746800000000000000000000000000000000000000000000000000602082015250565b60006156566027836143f6565b9150615661826155fa565b604082019050919050565b6000602082019050818103600083015261568581615649565b9050919050565b7f4e487b7100000000000000000000000000000000000000000000000000000000600052603160045260246000fd5b60006060820190506156d060008301866146ea565b6156dd60208301856146ea565b6156ea60408301846146ea565b949350505050565b7f596f752063616e207769746864726177206174206d6f7374203535302061742060008201527f612074696d650000000000000000000000000000000000000000000000000000602082015250565b600061574e6026836143f6565b9150615759826156f2565b604082019050919050565b6000602082019050818103600083015261577d81615741565b9050919050565b7f45524337323120746f6b656e2061646472657373206d7573742062652061206360008201527f6f6e747261637400000000000000000000000000000000000000000000000000602082015250565b60006157e06027836143f6565b91506157eb82615784565b604082019050919050565b6000602082019050818103600083015261580f816157d3565b9050919050565b7f53746f726520646f65736e2774206f776e20746865204e465420796f7520617260008201527f6520747279696e6720746f207769746864726177000000000000000000000000602082015250565b60006158726034836143f6565b915061587d82615816565b604082019050919050565b600060208201905081810360008301526158a181615865565b9050919050565b60006060820190506158bd6000830186614495565b6158ca6020830185614495565b6158d760408301846146ea565b949350505050565b60006158ea82613e12565b91507fffffffffffffffffffffffffffffffffffffffffffffffffffffffffffffffff820361591c5761591b614c5c565b5b600182019050919050565b60008151905061593681614205565b92915050565b60006020828403121561595257615951613cef565b5b600061596084828501615927565b91505092915050565b7f45524331393637557067726164653a206e657720696d706c656d656e7461746960008201527f6f6e206973206e6f742055555053000000000000000000000000000000000000602082015250565b60006159c5602e836143f6565b91506159d082615969565b604082019050919050565b600060208201905081810360008301526159f4816159b8565b9050919050565b7f45524331393637557067726164653a20756e737570706f727465642070726f7860008201527f6961626c65555549440000000000000000000000000000000000000000000000602082015250565b6000615a576029836143f6565b9150615a62826159fb565b604082019050919050565b60006020820190508181036000830152615a8681615a4a565b9050919050565b7f5061757361626c653a206e6f7420706175736564000000000000000000000000600082015250565b6000615ac36014836143f6565b9150615ace82615a8d565b602082019050919050565b60006020820190508181036000830152615af281615ab6565b9050919050565b7f5061757361626c653a2070617573656400000000000000000000000000000000600082015250565b6000615b2f6010836143f6565b9150615b3a82615af9565b602082019050919050565b60006020820190508181036000830152615b5e81615b22565b9050919050565b7f496e697469616c697a61626c653a20636f6e7472616374206973206e6f74206960008201527f6e697469616c697a696e67000000000000000000000000000000000000000000602082015250565b6000615bc1602b836143f6565b9150615bcc82615b65565b604082019050919050565b60006020820190508181036000830152615bf081615bb4565b9050919050565b6000615c0282613e12565b9150615c0d83613e12565b9250817fffffffffffffffffffffffffffffffffffffffffffffffffffffffffffffffff0483118215151615615c4657615c45614c5c565b5b828202905092915050565b7f4e487b7100000000000000000000000000000000000000000000000000000000600052601260045260246000fd5b6000615c8b82613e12565b9150615c9683613e12565b925082615ca657615ca5615c51565b5b828204905092915050565b7f455243313936373a206e657720696d706c656d656e746174696f6e206973206e60008201527f6f74206120636f6e747261637400000000000000000000000000000000000000602082015250565b6000615d0d602d836143f6565b9150615d1882615cb1565b604082019050919050565b60006020820190508181036000830152615d3c81615d00565b9050919050565b7f416464726573733a2064656c65676174652063616c6c20746f206e6f6e2d636f60008201527f6e74726163740000000000000000000000000000000000000000000000000000602082015250565b6000615d9f6026836143f6565b9150615daa82615d43565b604082019050919050565b60006020820190508181036000830152615dce81615d92565b9050919050565b600081519050919050565b600081905092915050565b6000615df682615dd5565b615e008185615de0565b9350615e10818560208601614407565b80840191505092915050565b6000615e288284615deb565b91508190509291505056fe416464726573733a206c6f772d6c6576656c2064656c65676174652063616c6c206661696c6564a26469706673582212203d5daaff7f2db13fdd3483bf2d0c35bba459f26e9224fd10863aefe06413d5b564736f6c634300080d0033",
  "immutableReferences": {
    "617": [
      {
        "length": 32,
        "start": 2506
      },
      {
        "length": 32,
        "start": 2648
      },
      {
        "length": 32,
        "start": 4272
      },
      {
        "length": 32,
        "start": 4414
      },
      {
        "length": 32,
        "start": 4590
      }
    ]
  },
  "source": "// SPDX-License-Identifier: MIT\n\npragma solidity ^0.8.9;\n\nimport \"@openzeppelin/contracts-upgradeable/utils/introspection/ERC165Upgradeable.sol\";\nimport \"@openzeppelin/contracts-upgradeable/security/PausableUpgradeable.sol\";\nimport \"@openzeppelin/contracts-upgradeable/access/OwnableUpgradeable.sol\";\nimport \"@openzeppelin/contracts-upgradeable/proxy/utils/Initializable.sol\";\nimport \"@openzeppelin/contracts-upgradeable/proxy/utils/UUPSUpgradeable.sol\";\nimport \"@openzeppelin/contracts-upgradeable/security/ReentrancyGuardUpgradeable.sol\";\nimport \"@openzeppelin/contracts-upgradeable/token/ERC1155/utils/ERC1155ReceiverUpgradeable.sol\";\nimport \"@openzeppelin/contracts-upgradeable/utils/math/SafeMathUpgradeable.sol\";\nimport \"@openzeppelin/contracts-upgradeable/utils/AddressUpgradeable.sol\";\nimport \"@openzeppelin/contracts/token/ERC20/IERC20.sol\";\nimport \"@openzeppelin/contracts/token/ERC721/IERC721.sol\";\nimport \"@openzeppelin/contracts/token/ERC1155/IERC1155.sol\";\nimport \"@uniswap/v2-core/contracts/interfaces/IUniswapV2Pair.sol\";\n\n// contrato apenas para processar recebimento. a venda efetivamente acontece no mundo centralizado\n// contrato deve receber em busd\n// vender lootboxes\n// user pode listar itens\n// venda de lootboxes pode ser em game coin ou busd. porem lastreado em busd\n// vender em BUSD e cobrar cut de marketplace\n\ncontract Store is\n    Initializable,\n    PausableUpgradeable,\n    OwnableUpgradeable,\n    UUPSUpgradeable,\n    ReentrancyGuardUpgradeable,\n    ERC1155ReceiverUpgradeable\n{\n    using SafeMathUpgradeable for uint256;\n    using AddressUpgradeable for address;\n\n    struct Item {\n        // token contract\n        address tokenContract;\n        // token id\n        uint256 tokenId;\n        // item title\n        bytes32 title;\n        // price in USD. Value is multiplied by 10**18.\n        uint256 price;\n    }\n\n    struct SellVolume {\n        uint256 date;\n        uint256 amount;\n    }\n\n    // @dev the token the store accepts\n    IERC20 public acceptedToken;\n\n    // @dev the main dex pair\n    IUniswapV2Pair internal _tknBnbPair;\n    // @dev the pair to\n    IUniswapV2Pair internal _bnbBusdPair;\n\n    // @dev list of items available to sell\n    Item[] public items;\n\n    /**\n     * @param _acceptedToken accepted ERC20 token address\n     * @param tknBnb LP token address of TOKEN/BNB pair\n     * @param bnbBusd LP token address of BNB/BUSD pair\n     */\n    function initialize(\n        address _acceptedToken,\n        address tknBnb,\n        address bnbBusd\n    ) public initializer {\n        require(_acceptedToken.isContract(), \"ERC20 token address must be a contract\");\n        require(tknBnb.isContract(), \"TknBnbPair address must be a contract\");\n        require(bnbBusd.isContract(), \"BnbBusdPair address must be a contract\");\n\n        acceptedToken = IERC20(_acceptedToken);\n        _tknBnbPair = IUniswapV2Pair(tknBnb);\n        _bnbBusdPair = IUniswapV2Pair(bnbBusd);\n\n        __Pausable_init();\n        __Ownable_init();\n        __UUPSUpgradeable_init();\n    }\n\n    /**\n     * @dev Update the accepted token\n     * @param addr of the token\n     */\n    function setAcceptedToken(address addr) external virtual onlyOwner {\n        require(addr.isContract(), \"ERC20 token address must be a contract\");\n        acceptedToken = IERC20(addr);\n\n        emit AcceptedTokenChanged(addr);\n    }\n\n\n    /**\n     * @dev Update the token bnb pair token\n     * @param addr of the token\n     */\n    function setTknBnbPair(address addr) external virtual onlyOwner {\n        require(addr.isContract(), \"TknBnbPair address must be a contract\");\n        _tknBnbPair = IUniswapV2Pair(addr);\n\n        emit TknBnbPairChanged(addr);\n    }\n\n    /**\n     * @dev Update the bnb busd pair token\n     * @param addr of the token\n     */\n    function setBnbBusdPair(address addr) external virtual onlyOwner {\n        require(addr.isContract(), \"BnbBusdPair address must be a contract\");\n        _bnbBusdPair = IUniswapV2Pair(addr);\n\n        emit BnbBusdPairChanged(addr);\n    }\n\n    /// @custom:oz-upgrades-unsafe-allow constructor\n    constructor() initializer {}\n\n    /**\n     * @dev pause the contract\n     */\n    function pause() external virtual onlyOwner {\n        _pause();\n    }\n\n    /**\n     * @dev unpause the contract\n     */\n    function unpause() external virtual onlyOwner {\n        _unpause();\n    }\n\n    /**\n     * @dev Add a new item.\n     *  Can only be called by contract owner\n     * @param tokenContract Address of ERC1155 inventory of items\n     * @param tokenId of the ERC1155 contract. it is the item category.\n     * @param title Item title name\n     * @param price Price of the item\n     */\n    function addItemToBeSold(\n        address tokenContract,\n        uint256 tokenId,\n        bytes32 title,\n        uint256 price\n    ) external virtual onlyOwner {\n        require(tokenContract.isContract(), \"NFT address must be a contract\");\n        require(price > 0, \"Item price can't be 0\");\n\n        items.push(Item(tokenContract, tokenId, title, price));\n\n        emit ItemAdded(tokenContract, items.length - 1, tokenId, title, price);\n    }\n\n    /**\n     * @dev Remove an item\n     *  When we delete an item, we move the last item to the deleted position\n     * @param toDeleteIndex The array ID from items to be removed\n     */\n    function removeItemFromStore(uint256 toDeleteIndex) external virtual onlyOwner {\n        require(toDeleteIndex < items.length, \"Id should be between 0 and items length\");\n\n        Item memory toDelete = items[toDeleteIndex];\n\n        uint256 lastIndex = items.length - 1;\n        if (lastIndex != toDeleteIndex) {\n            // Move the last value to the index where the value to delete is\n            items[toDeleteIndex] = items[lastIndex];\n        }\n\n        // Delete the slot where the moved value was stored\n        items.pop();\n\n        emit ItemDeleted(toDeleteIndex, toDelete.tokenContract, toDelete.tokenId, toDelete.price);\n    }\n\n    /**\n     * @dev list all items. to be used on the frontend\n     */\n    function listItems() external view returns (Item[] memory) {\n        return items;\n    }\n\n    /**\n     * @dev Update the price of an item.\n     *  Can only be called by contract owner\n     * @param id Id of the item\n     * @param newPrice New price of the item\n     */\n    function updateItemPrice(uint256 id, uint256 newPrice) external virtual onlyOwner {\n        require(id < items.length, \"Item doesn't exists\");\n        require(newPrice != 0, \"Item price can't be 0\");\n\n        Item storage item = items[id];\n\n        item.price = newPrice;\n\n        emit ItemPriceUpdated(id, newPrice);\n    }\n\n//    /**\n//     * @dev Buy amounts of an item.\n//     * @param id ID on items array\n//     * @param title Item title name\n//     * @param amounts Amounts of items to be sold\n//     */\n//    function buy1155Item(\n//        uint256 id,\n//        bytes32 title,\n//        uint256 amounts\n//    ) external virtual whenNotPaused nonReentrant {\n//        require(amounts > 0, \"Amounts must be greater than zero\");\n//        require(id < items.length, \"Item doesn't exists\");\n//        Item memory item = items[id];\n//        require(item.title == title, \"Title argument must match requested item title\");\n//\n//        address sender = _msgSender();\n//\n//        uint256 tknBusdPrice = getTKNtoBUSDprice();\n//        uint256 itemPriceInToken = (item.price.mul(amounts).mul(10**18).div(tknBusdPrice));\n//\n//        uint256 allowance = acceptedToken.allowance(sender, address(this));\n//        require(allowance >= itemPriceInToken, \"Check the token allowance\");\n//\n//        // Transfer item price amount to owner\n//        require(\n//            acceptedToken.transferFrom(sender, owner(), itemPriceInToken),\n//            \"Fail transferring the item price amount to owner\"\n//        );\n//\n//        IERC1155 nftRegistry = IERC1155(item.tokenContract);\n//\n//        nftRegistry.mint(sender, item.tokenId, amounts, \"\");\n//\n//        emit ItemBought(item.tokenContract, id, item.tokenId, owner(), sender, itemPriceInToken, amounts);\n//    }\n\n    function remove(SellVolume[] storage array, uint256 index) internal returns (bool success) {\n        if (index >= array.length) return false;\n\n        array[index] = array[array.length - 1];\n        array.pop();\n\n        return true;\n    }\n\n    /**\n     * @dev Withdraw BNB from this contract\n     * @param to receiver address\n     * @param amount amount to withdraw\n     */\n    function withdraw(address payable to, uint256 amount) external virtual onlyOwner {\n        require(to != address(0), \"transfer to the zero address\");\n        require(amount <= payable(address(this)).balance, \"You are trying to withdraw more funds than available\");\n        to.transfer(amount);\n    }\n\n    /**\n     * @dev Withdraw any ERC20 token from this contract\n     * @param tokenAddress ERC20 token to withdraw\n     * @param to receiver address\n     * @param amount amount to withdraw\n     */\n    function withdrawERC20(\n        address tokenAddress,\n        address to,\n        uint256 amount\n    ) external virtual onlyOwner {\n        require(tokenAddress.isContract(), \"ERC20 token address must be a contract\");\n\n        IERC20 tokenContract = IERC20(tokenAddress);\n        require(\n            tokenContract.balanceOf(address(this)) >= amount,\n            \"You are trying to withdraw more funds than available\"\n        );\n\n        require(tokenContract.transfer(to, amount), \"Fail on transfer\");\n    }\n\n    /**\n     * @dev Withdraw any ERC721 token from this contract\n     * @param tokenAddress ERC721 token to withdraw\n     * @param to receiver address\n     * @param tokenIds IDs of the NFTs to withdraw\n     */\n    function withdrawERC721(\n        address tokenAddress,\n        address to,\n        uint256[] memory tokenIds\n    ) external virtual onlyOwner {\n        require(tokenIds.length <= 550, \"You can withdraw at most 550 at a time\");\n        require(tokenAddress.isContract(), \"ERC721 token address must be a contract\");\n\n        IERC721 tokenContract = IERC721(tokenAddress);\n        for (uint256 i = 0; i < tokenIds.length; i++) {\n            require(\n                tokenContract.ownerOf(tokenIds[i]) == address(this),\n                \"Store doesn't own the NFT you are trying to withdraw\"\n            );\n\n            tokenContract.safeTransferFrom(address(this), to, tokenIds[i]);\n        }\n    }\n\n//    /**\n//     * @dev Withdraw any ERC721 token from this contract\n//     * @param tokenAddress ERC721 token to withdraw\n//     * @param to receiver address\n//     * @param amount amount to withdraw\n//     */\n//    function withdrawERC721(\n//        address tokenAddress,\n//        address to,\n//        uint256 amount\n//    ) external virtual onlyOwner {\n//        require(amount <= 500, \"You can withdraw at most 500 avatars at a time\");\n//        require(tokenAddress.isContract(), \"ERC721 token address must be a contract\");\n//\n//        IERC721 tokenContract = IERC721(tokenAddress);\n//        uint256[] memory tokenIds = tokenContract.listMyNftIds();\n//        require(tokenIds.length >= amount, \"Store doesn't own the amount of NFTs\");\n//        for (uint256 i = 0; i < amount; i++) {\n//            require(\n//                tokenContract.ownerOf(tokenIds[i]) == address(this),\n//                \"Store doesn't own the NFT you are trying to withdraw\"\n//            );\n//\n//            tokenContract.safeTransferFrom(address(this), to, tokenIds[i]);\n//        }\n//    }\n\n    /**\n     * @dev Withdraw any ERC1155 token from this contract\n     * @param tokenAddress ERC1155 token to withdraw\n     * @param to receiver address\n     * @param id ID of the token to withdraw\n     * @param amount amount to withdraw\n     */\n    function withdrawERC1155(\n        address tokenAddress,\n        address to,\n        uint256 id,\n        uint256 amount\n    ) external virtual onlyOwner {\n        require(tokenAddress.isContract(), \"ERC1155 token address must be a contract\");\n\n        IERC1155 tokenContract = IERC1155(tokenAddress);\n        require(\n            tokenContract.balanceOf(address(this), id) >= amount,\n            \"Store doesn't own the amount of tokens to withdraw\"\n        );\n\n        tokenContract.safeTransferFrom(address(this), to, id, amount, \"\");\n    }\n\n    /**\n     * @dev gets the price of TOKEN per BUSD.\n     */\n    function getTKNtoBUSDprice() public view virtual returns (uint256 price) {\n        uint256 reserves0LP0 = 0;\n        uint256 reserves1LP0 = 0;\n        uint256 reserves0LP1 = 0;\n        uint256 reserves1LP1 = 0;\n\n        if (_tknBnbPair.token1() == _bnbBusdPair.token0()) {\n            (reserves0LP0, reserves1LP0, ) = _tknBnbPair.getReserves();\n            (reserves0LP1, reserves1LP1, ) = _bnbBusdPair.getReserves();\n\n            return (reserves1LP1.mul(reserves1LP0).mul(10**18)).div(reserves0LP1.mul(reserves0LP0));\n        } else if (_tknBnbPair.token1() == _bnbBusdPair.token1()) {\n            (reserves0LP0, reserves1LP0, ) = _tknBnbPair.getReserves();\n            (reserves1LP1, reserves0LP1, ) = _bnbBusdPair.getReserves();\n\n            return (reserves1LP1.mul(reserves1LP0).mul(10**18)).div(reserves0LP1.mul(reserves0LP0));\n        } else if (_tknBnbPair.token0() == _bnbBusdPair.token0()) {\n            (reserves1LP0, reserves0LP0, ) = _tknBnbPair.getReserves();\n            (reserves0LP1, reserves1LP1, ) = _bnbBusdPair.getReserves();\n\n            return (reserves1LP1.mul(reserves1LP0).mul(10**18)).div(reserves0LP1.mul(reserves0LP0));\n        } else {\n            (reserves1LP0, reserves0LP0, ) = _tknBnbPair.getReserves();\n            (reserves1LP1, reserves0LP1, ) = _bnbBusdPair.getReserves();\n\n            return (reserves1LP1.mul(reserves1LP0).mul(10**18)).div(reserves0LP1.mul(reserves0LP0));\n        }\n    }\n\n    /**\n     * @dev gets the price in Token of an item.\n     * @param id ID on items array\n     * @param amounts Amounts of the items\n     */\n    function getItemPriceInToken(uint256 id, uint256 amounts) external view virtual returns (uint256 price) {\n        require(amounts > 0, \"Amounts must be greater than zero\");\n        require(id < items.length, \"Item doesn't exists\");\n        Item memory item = items[id];\n\n        uint256 tknBusdPrice = getTKNtoBUSDprice();\n\n        return (item.price.mul(amounts).mul(10**18).div(tknBusdPrice));\n    }\n\n    /**\n     * @dev upgradable version\n     */\n    function version() external pure virtual returns (string memory) {\n        return \"1.0.0\";\n    }\n\n    function _authorizeUpgrade(address newImplementation) internal override onlyOwner {}\n\n    // MUST IMPLEMENT TO BE ABLE TO RECEIVE TOKENS\n    receive() external payable {}\n\n    function onERC1155Received(\n        address,\n        address,\n        uint256,\n        uint256,\n        bytes memory\n    ) public virtual returns (bytes4) {\n        return this.onERC1155Received.selector;\n    }\n\n    function onERC1155BatchReceived(\n        address,\n        address,\n        uint256[] memory,\n        uint256[] memory,\n        bytes memory\n    ) public virtual returns (bytes4) {\n        return this.onERC1155BatchReceived.selector;\n    }\n\n    function onERC721Received(\n        address,\n        address,\n        uint256,\n        bytes memory\n    ) public virtual returns (bytes4) {\n        return this.onERC721Received.selector;\n    }\n\n    // EVENTS\n    event ItemAdded(address indexed tokenContract, uint256 id, uint256 tokenId, bytes32 title, uint256 price);\n    event ItemDeleted(uint256 toDeleteIndex, address indexed tokenContract, uint256 itemId, uint256 price);\n    event ItemPriceUpdated(uint256 id, uint256 price);\n    event ItemBought(\n        address indexed tokenContract,\n        uint256 id,\n        uint256 tokenId,\n        address indexed seller,\n        address indexed buyer,\n        uint256 price,\n        uint256 amounts\n    );\n    event AcceptedTokenChanged(address indexed addr);\n    event TknBnbPairChanged(address indexed addr);\n    event BnbBusdPairChanged(address indexed addr);\n\n    uint256[50] private __gap;\n}",
  "sourcePath": "D:\\Solidity - Curso FG\\Solidity-Course\\contracts\\Store.sol",
  "compiler": {
    "name": "solc",
    "version": "0.8.13+commit.abaa5c0e.Emscripten.clang"
  },
  "schemaVersion": "3.4.6",
  "updatedAt": "2022-03-30T15:35:27.931Z",
  "devdoc": {
    "kind": "dev",
    "methods": {
      "addItemToBeSold(address,uint256,bytes32,uint256)": {
        "details": "Add a new item.  Can only be called by contract owner",
        "params": {
          "price": "Price of the item",
          "title": "Item title name",
          "tokenContract": "Address of ERC1155 inventory of items",
          "tokenId": "of the ERC1155 contract. it is the item category."
        }
      },
      "constructor": {
        "custom:oz-upgrades-unsafe-allow": "constructor"
      },
      "getItemPriceInToken(uint256,uint256)": {
        "details": "gets the price in Token of an item.",
        "params": {
          "amounts": "Amounts of the items",
          "id": "ID on items array"
        }
      },
      "getTKNtoBUSDprice()": {
        "details": "gets the price of TOKEN per BUSD."
      },
      "initialize(address,address,address)": {
        "params": {
          "_acceptedToken": "accepted ERC20 token address",
          "bnbBusd": "LP token address of BNB/BUSD pair",
          "tknBnb": "LP token address of TOKEN/BNB pair"
        }
      },
      "listItems()": {
        "details": "list all items. to be used on the frontend"
      },
      "owner()": {
        "details": "Returns the address of the current owner."
      },
      "pause()": {
        "details": "pause the contract"
      },
      "paused()": {
        "details": "Returns true if the contract is paused, and false otherwise."
      },
      "proxiableUUID()": {
        "details": "Implementation of the ERC1822 {proxiableUUID} function. This returns the storage slot used by the implementation. It is used to validate that the this implementation remains valid after an upgrade. IMPORTANT: A proxy pointing at a proxiable contract should not be considered proxiable itself, because this risks bricking a proxy that upgrades to it, by delegating to itself until out of gas. Thus it is critical that this function revert if invoked through a proxy. This is guaranteed by the `notDelegated` modifier."
      },
      "removeItemFromStore(uint256)": {
        "details": "Remove an item  When we delete an item, we move the last item to the deleted position",
        "params": {
          "toDeleteIndex": "The array ID from items to be removed"
        }
      },
      "renounceOwnership()": {
        "details": "Leaves the contract without owner. It will not be possible to call `onlyOwner` functions anymore. Can only be called by the current owner. NOTE: Renouncing ownership will leave the contract without an owner, thereby removing any functionality that is only available to the owner."
      },
      "setAcceptedToken(address)": {
        "details": "Update the accepted token",
        "params": {
          "addr": "of the token"
        }
      },
      "setBnbBusdPair(address)": {
        "details": "Update the bnb busd pair token",
        "params": {
          "addr": "of the token"
        }
      },
      "setTknBnbPair(address)": {
        "details": "Update the token bnb pair token",
        "params": {
          "addr": "of the token"
        }
      },
      "supportsInterface(bytes4)": {
        "details": "See {IERC165-supportsInterface}."
      },
      "transferOwnership(address)": {
        "details": "Transfers ownership of the contract to a new account (`newOwner`). Can only be called by the current owner."
      },
      "unpause()": {
        "details": "unpause the contract"
      },
      "updateItemPrice(uint256,uint256)": {
        "details": "Update the price of an item.  Can only be called by contract owner",
        "params": {
          "id": "Id of the item",
          "newPrice": "New price of the item"
        }
      },
      "upgradeTo(address)": {
        "details": "Upgrade the implementation of the proxy to `newImplementation`. Calls {_authorizeUpgrade}. Emits an {Upgraded} event."
      },
      "upgradeToAndCall(address,bytes)": {
        "details": "Upgrade the implementation of the proxy to `newImplementation`, and subsequently execute the function call encoded in `data`. Calls {_authorizeUpgrade}. Emits an {Upgraded} event."
      },
      "version()": {
        "details": "upgradable version"
      },
      "withdraw(address,uint256)": {
        "details": "Withdraw BNB from this contract",
        "params": {
          "amount": "amount to withdraw",
          "to": "receiver address"
        }
      },
      "withdrawERC1155(address,address,uint256,uint256)": {
        "details": "Withdraw any ERC1155 token from this contract",
        "params": {
          "amount": "amount to withdraw",
          "id": "ID of the token to withdraw",
          "to": "receiver address",
          "tokenAddress": "ERC1155 token to withdraw"
        }
      },
      "withdrawERC20(address,address,uint256)": {
        "details": "Withdraw any ERC20 token from this contract",
        "params": {
          "amount": "amount to withdraw",
          "to": "receiver address",
          "tokenAddress": "ERC20 token to withdraw"
        }
      },
      "withdrawERC721(address,address,uint256[])": {
        "details": "Withdraw any ERC721 token from this contract",
        "params": {
          "to": "receiver address",
          "tokenAddress": "ERC721 token to withdraw",
          "tokenIds": "IDs of the NFTs to withdraw"
        }
      }
    },
    "version": 1
  },
  "userdoc": {
    "kind": "user",
    "methods": {},
    "version": 1
  }
}