{
  "contractName": "TimeLockDexTransactions",
  "abi": [
    {
      "anonymous": false,
      "inputs": [
        {
          "indexed": false,
          "internalType": "uint256",
          "name": "timeBetweenPurchases",
          "type": "uint256"
        }
      ],
      "name": "SetLockTimeEvent",
      "type": "event"
    },
    {
      "inputs": [],
      "name": "getLockTime",
      "outputs": [
        {
          "internalType": "uint256",
          "name": "",
          "type": "uint256"
        }
      ],
      "stateMutability": "view",
      "type": "function"
    },
    {
      "inputs": [
        {
          "internalType": "address",
          "name": "wallet",
          "type": "address"
        }
      ],
      "name": "getFromLastTransaction",
      "outputs": [
        {
          "internalType": "uint256",
          "name": "",
          "type": "uint256"
        }
      ],
      "stateMutability": "view",
      "type": "function"
    },
    {
      "inputs": [
        {
          "internalType": "address",
          "name": "addr",
          "type": "address"
        }
      ],
      "name": "canOperate",
      "outputs": [
        {
          "internalType": "bool",
          "name": "",
          "type": "bool"
        }
      ],
      "stateMutability": "view",
      "type": "function"
    }
  ],
  "bytecode": "0x60a060405262015180608090815250600060015534801561001f57600080fd5b50608051610291610038600039600050506102916000f3fe608060405234801561001057600080fd5b50600436106100415760003560e01c8063814058bd14610046578063c0a4d64d14610076578063eb56a79614610094575b600080fd5b610060600480360381019061005b91906101c4565b6100c4565b60405161006d919061020a565b60405180910390f35b61007e61010c565b60405161008b919061020a565b60405180910390f35b6100ae60048036038101906100a991906101c4565b610116565b6040516100bb9190610240565b60405180910390f35b60008060008373ffffffffffffffffffffffffffffffffffffffff1673ffffffffffffffffffffffffffffffffffffffff168152602001908152602001600020549050919050565b6000600154905090565b6000426000808473ffffffffffffffffffffffffffffffffffffffff1673ffffffffffffffffffffffffffffffffffffffff1681526020019081526020016000205411159050919050565b600080fd5b600073ffffffffffffffffffffffffffffffffffffffff82169050919050565b600061019182610166565b9050919050565b6101a181610186565b81146101ac57600080fd5b50565b6000813590506101be81610198565b92915050565b6000602082840312156101da576101d9610161565b5b60006101e8848285016101af565b91505092915050565b6000819050919050565b610204816101f1565b82525050565b600060208201905061021f60008301846101fb565b92915050565b60008115159050919050565b61023a81610225565b82525050565b60006020820190506102556000830184610231565b9291505056fea2646970667358221220462daa95f7a1e532a92e022a37ba987907904114bee96c001761e24d4943b34864736f6c634300080d0033",
  "immutableReferences": {},
  "source": "// SPDX-License-Identifier: NOLICENSE\n\npragma solidity ^0.8.9;\n\ncontract TimeLockDexTransactions {\n    mapping (address => uint) private walletToTime;\n\n    uint private immutable _maxAllowedTime = 1 days;\n    uint private _lockTime = 0; // 0 s per transaciton\n\n    function getLockTime() external view returns(uint){\n        return _lockTime;\n    }\n\n    function getFromLastTransaction(address wallet) public view returns (uint) {\n        return walletToTime[wallet];\n    }\n\n    function lockToOperate(address addr) internal {\n        walletToTime[addr] = block.timestamp + _lockTime;\n    }\n\n    function canOperate(address addr) public view returns (bool){\n        return walletToTime[addr] <= block.timestamp;\n    }\n\n    function _setLockTime(uint timeBetweenTransactions) internal {\n        require(timeBetweenTransactions <= _maxAllowedTime, \"max temp ban greater than the allowed\");\n        _lockTime = timeBetweenTransactions;\n        emit SetLockTimeEvent(timeBetweenTransactions);\n    }\n    event SetLockTimeEvent(uint timeBetweenPurchases);\n}\n",
  "sourcePath": "D:\\Solidity - Curso FG\\Solidity-Course\\contracts\\TimeLockDexTransactions.sol",
  "compiler": {
    "name": "solc",
    "version": "0.8.13+commit.abaa5c0e.Emscripten.clang"
  },
  "schemaVersion": "3.4.6",
  "updatedAt": "2022-03-30T15:35:27.953Z",
  "devdoc": {
    "kind": "dev",
    "methods": {},
    "version": 1
  },
  "userdoc": {
    "kind": "user",
    "methods": {},
    "version": 1
  }
}